{"abi":[{"type":"function","name":"chainReinitialize","inputs":[{"name":"i","type":"uint64","internalType":"uint64"},{"name":"j","type":"uint64","internalType":"uint64"}],"outputs":[],"stateMutability":"nonpayable"},{"type":"function","name":"counter","inputs":[],"outputs":[{"name":"","type":"uint256","internalType":"uint256"}],"stateMutability":"view"},{"type":"function","name":"disableInitializers","inputs":[],"outputs":[],"stateMutability":"nonpayable"},{"type":"function","name":"doStuff","inputs":[],"outputs":[],"stateMutability":"nonpayable"},{"type":"function","name":"getInitializedVersion","inputs":[],"outputs":[{"name":"","type":"uint64","internalType":"uint64"}],"stateMutability":"view"},{"type":"function","name":"initialize","inputs":[],"outputs":[],"stateMutability":"nonpayable"},{"type":"function","name":"nestedReinitialize","inputs":[{"name":"i","type":"uint64","internalType":"uint64"},{"name":"j","type":"uint64","internalType":"uint64"}],"outputs":[],"stateMutability":"nonpayable"},{"type":"function","name":"reinitialize","inputs":[{"name":"i","type":"uint64","internalType":"uint64"}],"outputs":[],"stateMutability":"nonpayable"},{"type":"event","name":"Initialized","inputs":[{"name":"version","type":"uint64","indexed":false,"internalType":"uint64"}],"anonymous":false},{"type":"error","name":"InvalidInitialization","inputs":[]},{"type":"error","name":"NotInitializing","inputs":[]}],"bytecode":{"object":"0x6080806040523460155761069d908161001a8239f35b5f80fdfe6080806040526004361015610012575f80fd5b5f3560e01c90816331f44900146105515750806361bc221a146105355780638129fc1c14610407578063874f33a1146103cc5780639a1b97df14610388578063b3c6501514610356578063b5f214c0146101ed5763ff57ab7414610074575f80fd5b346101e95760403660031901126101e95761008d6105c7565b6100956105dd565b905f5160206106485f395f51905f525460ff8160401c169081156101d2575b506101ac576100c2816105f3565b5f5160206106485f395f51905f525460ff600160401b60ff60401b19831617805f5160206106485f395f51905f525560401c169081156101bb575b506101ac5761010b826105f3565b5f5160206106485f395f51905f525460ff60401b191690600160401b821760401c60ff161561019d575f54915f198314610189575f5160206106285f395f51905f526020819560018296015f556001600160401b0360405191168152a15f5160206106485f395f51905f52556001600160401b0360405191168152a1005b634e487b7160e01b5f52601160045260245ffd5b631afcd79f60e31b5f5260045ffd5b63f92ee8a960e01b5f5260045ffd5b90506001600160401b03808416911610155f6100fd565b90506001600160401b03808316911610155f6100b4565b5f80fd5b346101e95760403660031901126101e9576102066105c7565b61020e6105dd565b905f5160206106485f395f51905f525460ff8160401c1690811561033f575b506101ac5761023b816105f3565b5f5160206106485f395f51905f52549060ff60401b19821690600160401b821760401c60ff161561019d575f54905f198214610189575f5160206106285f395f51905f52926001602093015f555f5160206106485f395f51905f52556001600160401b0360405191168152a15f90610328565b506101ac576102bc816105f3565b5f5160206106485f395f51905f525460ff60401b191690600160401b821760401c60ff161561019d575f54905f198214610189575f5160206106285f395f51905f52926001602093015f555f5160206106485f395f51905f52556001600160401b0360405191168152a1005b90506001600160401b0380831691161015826102ae565b90506001600160401b03808316911610158361022d565b346101e9575f3660031901126101e95760206001600160401b035f5160206106485f395f51905f525416604051908152f35b346101e95760203660031901126101e9576103a16105c7565b5f5160206106485f395f51905f525460ff8160401c1690811561032857506101ac576102bc816105f3565b346101e9575f3660031901126101e95760ff5f5160206106485f395f51905f525460401c161561019d575f545f198114610189576001015f55005b346101e9575f3660031901126101e9575f5160206106485f395f51905f52546001600160401b0360ff8260401c161591168015908161052d575b6001149081610523575b15908161051a575b506101ac578060016001600160401b03195f5160206106485f395f51905f525416175f5160206106485f395f51905f52556104ea575b5f5160206106485f395f51905f52549060ff8260401c161561019d575f545f198114610189576001015f556104ba57005b60ff60401b19165f5160206106485f395f51905f52555f5160206106285f395f51905f52602060405160018152a1005b600160401b60ff60401b195f5160206106485f395f51905f525416175f5160206106485f395f51905f5255610489565b90501582610453565b303b15915061044b565b829150610441565b346101e9575f3660031901126101e95760205f54604051908152f35b346101e9575f3660031901126101e9575f5160206106485f395f51905f525460ff8160401c166101ac576001600160401b038082160361058d57005b5f5160206106285f395f51905f52916001600160401b03602092811916175f5160206106485f395f51905f52556001600160401b038152a1005b600435906001600160401b03821682036101e957565b602435906001600160401b03821682036101e957565b6001600160401b03166001600160401b03195f5160206106485f395f51905f525416175f5160206106485f395f51905f525556fec7f505b2f371ae2175ee4913f4499e1f2633a7b5936321eed1cdaeb6115181d2f0c57e16840df040f15088dc2f81fe391c3923bec73e23a9662efc9c229c6a00a26469706673582212203040612de23ff265cee8f58597906c9d0046b1ea44ad3970a7bcb91fb7a381a364736f6c634300081e0033","linkReferences":{}},"methodIdentifiers":{"chainReinitialize(uint64,uint64)":"b5f214c0","counter()":"61bc221a","disableInitializers()":"31f44900","doStuff()":"874f33a1","getInitializedVersion()":"b3c65015","initialize()":"8129fc1c","nestedReinitialize(uint64,uint64)":"ff57ab74","reinitialize(uint64)":"9a1b97df"},"id":118}