{"abi":[{"type":"constructor","inputs":[{"name":"vspToken_","type":"address","internalType":"address"},{"name":"treasury_","type":"address","internalType":"address"},{"name":"feeBps_","type":"uint256","internalType":"uint256"},{"name":"minFeeWei_","type":"uint256","internalType":"uint256"}],"stateMutability":"nonpayable"},{"type":"function","name":"eip712Domain","inputs":[],"outputs":[{"name":"fields","type":"bytes1","internalType":"bytes1"},{"name":"name","type":"string","internalType":"string"},{"name":"version","type":"string","internalType":"string"},{"name":"chainId","type":"uint256","internalType":"uint256"},{"name":"verifyingContract","type":"address","internalType":"address"},{"name":"salt","type":"bytes32","internalType":"bytes32"},{"name":"extensions","type":"uint256[]","internalType":"uint256[]"}],"stateMutability":"view"},{"type":"function","name":"execute","inputs":[{"name":"request","type":"tuple","internalType":"struct ERC2771Forwarder.ForwardRequestData","components":[{"name":"from","type":"address","internalType":"address"},{"name":"to","type":"address","internalType":"address"},{"name":"value","type":"uint256","internalType":"uint256"},{"name":"gas","type":"uint256","internalType":"uint256"},{"name":"deadline","type":"uint48","internalType":"uint48"},{"name":"data","type":"bytes","internalType":"bytes"},{"name":"signature","type":"bytes","internalType":"bytes"}]}],"outputs":[],"stateMutability":"payable"},{"type":"function","name":"executeBatch","inputs":[{"name":"requests","type":"tuple[]","internalType":"struct ERC2771Forwarder.ForwardRequestData[]","components":[{"name":"from","type":"address","internalType":"address"},{"name":"to","type":"address","internalType":"address"},{"name":"value","type":"uint256","internalType":"uint256"},{"name":"gas","type":"uint256","internalType":"uint256"},{"name":"deadline","type":"uint48","internalType":"uint48"},{"name":"data","type":"bytes","internalType":"bytes"},{"name":"signature","type":"bytes","internalType":"bytes"}]},{"name":"refundReceiver","type":"address","internalType":"address payable"}],"outputs":[],"stateMutability":"payable"},{"type":"function","name":"feeBps","inputs":[],"outputs":[{"name":"","type":"uint256","internalType":"uint256"}],"stateMutability":"view"},{"type":"function","name":"feeEnabled","inputs":[],"outputs":[{"name":"","type":"bool","internalType":"bool"}],"stateMutability":"view"},{"type":"function","name":"minFeeWei","inputs":[],"outputs":[{"name":"","type":"uint256","internalType":"uint256"}],"stateMutability":"view"},{"type":"function","name":"nonces","inputs":[{"name":"owner","type":"address","internalType":"address"}],"outputs":[{"name":"","type":"uint256","internalType":"uint256"}],"stateMutability":"view"},{"type":"function","name":"owner","inputs":[],"outputs":[{"name":"","type":"address","internalType":"address"}],"stateMutability":"view"},{"type":"function","name":"setFeeConfig","inputs":[{"name":"feeBps_","type":"uint256","internalType":"uint256"},{"name":"minFeeWei_","type":"uint256","internalType":"uint256"},{"name":"enabled_","type":"bool","internalType":"bool"}],"outputs":[],"stateMutability":"nonpayable"},{"type":"function","name":"setOwner","inputs":[{"name":"newOwner","type":"address","internalType":"address"}],"outputs":[],"stateMutability":"nonpayable"},{"type":"function","name":"setTreasury","inputs":[{"name":"treasury_","type":"address","internalType":"address"}],"outputs":[],"stateMutability":"nonpayable"},{"type":"function","name":"treasury","inputs":[],"outputs":[{"name":"","type":"address","internalType":"address"}],"stateMutability":"view"},{"type":"function","name":"verify","inputs":[{"name":"request","type":"tuple","internalType":"struct ERC2771Forwarder.ForwardRequestData","components":[{"name":"from","type":"address","internalType":"address"},{"name":"to","type":"address","internalType":"address"},{"name":"value","type":"uint256","internalType":"uint256"},{"name":"gas","type":"uint256","internalType":"uint256"},{"name":"deadline","type":"uint48","internalType":"uint48"},{"name":"data","type":"bytes","internalType":"bytes"},{"name":"signature","type":"bytes","internalType":"bytes"}]}],"outputs":[{"name":"","type":"bool","internalType":"bool"}],"stateMutability":"view"},{"type":"function","name":"vspToken","inputs":[],"outputs":[{"name":"","type":"address","internalType":"contract IERC20"}],"stateMutability":"view"},{"type":"event","name":"EIP712DomainChanged","inputs":[],"anonymous":false},{"type":"event","name":"ExecutedForwardRequest","inputs":[{"name":"signer","type":"address","indexed":true,"internalType":"address"},{"name":"nonce","type":"uint256","indexed":false,"internalType":"uint256"},{"name":"success","type":"bool","indexed":false,"internalType":"bool"}],"anonymous":false},{"type":"event","name":"FeeCollected","inputs":[{"name":"user","type":"address","indexed":true,"internalType":"address"},{"name":"fee","type":"uint256","indexed":false,"internalType":"uint256"},{"name":"txValue","type":"uint256","indexed":false,"internalType":"uint256"}],"anonymous":false},{"type":"event","name":"FeeConfigUpdated","inputs":[{"name":"feeBps","type":"uint256","indexed":false,"internalType":"uint256"},{"name":"minFeeWei","type":"uint256","indexed":false,"internalType":"uint256"},{"name":"enabled","type":"bool","indexed":false,"internalType":"bool"}],"anonymous":false},{"type":"event","name":"OwnerUpdated","inputs":[{"name":"oldOwner","type":"address","indexed":true,"internalType":"address"},{"name":"newOwner","type":"address","indexed":true,"internalType":"address"}],"anonymous":false},{"type":"event","name":"TreasuryUpdated","inputs":[{"name":"oldTreasury","type":"address","indexed":true,"internalType":"address"},{"name":"newTreasury","type":"address","indexed":true,"internalType":"address"}],"anonymous":false},{"type":"error","name":"ERC2771ForwarderExpiredRequest","inputs":[{"name":"deadline","type":"uint48","internalType":"uint48"}]},{"type":"error","name":"ERC2771ForwarderFailureInAtomicBatch","inputs":[]},{"type":"error","name":"ERC2771ForwarderInvalidSigner","inputs":[{"name":"signer","type":"address","internalType":"address"},{"name":"from","type":"address","internalType":"address"}]},{"type":"error","name":"ERC2771ForwarderMismatchedValue","inputs":[{"name":"requestedValue","type":"uint256","internalType":"uint256"},{"name":"msgValue","type":"uint256","internalType":"uint256"}]},{"type":"error","name":"ERC2771UntrustfulTarget","inputs":[{"name":"target","type":"address","internalType":"address"},{"name":"forwarder","type":"address","internalType":"address"}]},{"type":"error","name":"FailedCall","inputs":[]},{"type":"error","name":"InsufficientBalance","inputs":[{"name":"balance","type":"uint256","internalType":"uint256"},{"name":"needed","type":"uint256","internalType":"uint256"}]},{"type":"error","name":"InvalidAccountNonce","inputs":[{"name":"account","type":"address","internalType":"address"},{"name":"currentNonce","type":"uint256","internalType":"uint256"}]},{"type":"error","name":"InvalidShortString","inputs":[]},{"type":"error","name":"NotOwner","inputs":[]},{"type":"error","name":"StringTooLong","inputs":[{"name":"str","type":"string","internalType":"string"}]},{"type":"error","name":"ZeroAddress","inputs":[]}],"bytecode":{"object":"0x61018080604052346101f6576080816117c4803803809161002082856101fa565b8339810103126101f65761003381610231565b9061004060208201610231565b60606040830151920151926040516100596040826101fa565b6013815260208101907f56657269737068657265466f72776172646572000000000000000000000000008252604051916100946040846101fa565b600183526020830191603160f81b83526100ad81610245565b610120526100ba846103db565b61014052519020918260e05251902080610100524660a0526040519060208201927f8b73c3c69bb8fe3d512ecc4cf759cc79239f7b179b0ffacaa9a75d522b39400f8452604083015260608201524660808201523060a082015260a0815261012360c0826101fa565b5190206080523060c0526001600160a01b03169081156101e7576001600160a01b03169081156101e75761016052600380546001600160a01b031990811692909217905560048054909116331790556005556006556007805460ff191660011790556040516112b0908161051482396080518161110a015260a051816111c7015260c051816110d4015260e051816111590152610100518161117f0152610120518161063f015261014051816106680152610160518181816105ae0152610d4f0152f35b63d92e233d60e01b5f5260045ffd5b5f80fd5b601f909101601f19168101906001600160401b0382119082101761021d57604052565b634e487b7160e01b5f52604160045260245ffd5b51906001600160a01b03821682036101f657565b908151602081105f146102bf575090601f81511161027f576020815191015160208210610270571790565b5f198260200360031b1b161790565b604460209160405192839163305a27a960e01b83528160048401528051918291826024860152018484015e5f828201840152601f01601f19168101030190fd5b6001600160401b03811161021d575f54600181811c911680156103d1575b60208210146103bd57601f811161038b575b50602092601f821160011461032c57928192935f92610321575b50508160011b915f199060031b1c1916175f5560ff90565b015190505f80610309565b601f198216935f8052805f20915f5b868110610373575083600195961061035b575b505050811b015f5560ff90565b01515f1960f88460031b161c191690555f808061034e565b9192602060018192868501518155019401920161033b565b5f8052601f60205f20910160051c810190601f830160051c015b8181106103b257506102ef565b5f81556001016103a5565b634e487b7160e01b5f52602260045260245ffd5b90607f16906102dd565b908151602081105f14610406575090601f81511161027f576020815191015160208210610270571790565b6001600160401b03811161021d57600154600181811c91168015610509575b60208210146103bd57601f81116104d6575b50602092601f821160011461047557928192935f9261046a575b50508160011b915f199060031b1c19161760015560ff90565b015190505f80610451565b601f1982169360015f52805f20915f5b8681106104be57508360019596106104a6575b505050811b0160015560ff90565b01515f1960f88460031b161c191690555f8080610498565b91926020600181928685015181550194019201610485565b60015f52601f60205f20910160051c810190601f830160051c015b8181106104fe5750610437565b5f81556001016104f1565b90607f169061042556fe60806040526004361015610011575f80fd5b5f3560e01c806313af40351461088f57806319d8d38c1461084d5780631b5e4f961461083057806324a9d8531461081357806351a220f71461078d57806361d027b3146107655780637ecebe001461071f57806384b0196e146106275780638da5cb5b146105ff578063a771ebc7146105dd578063baa7f00e14610599578063ccf96b4a1461035d578063df905caf146101565763f0f44260146100b3575f80fd5b34610152576020366003190112610152576004356001600160a01b03811690819003610152576004546001600160a01b0316330361014357801561013457600380546001600160a01b0319811683179091556001600160a01b03167f4ab5be82436d353e61ca18726e984e561f5c1cc7c6d38b29d2553c790434705a5f80a3005b63d92e233d60e01b5f5260045ffd5b6330cd747160e01b5f5260045ffd5b5f80fd5b61015f36610906565b610168816109eb565b61018060a083019161017a83856109ff565b91610ccd565b604082013590813403610346575f9261019881610a45565b92919082156103165781156102f05780156102c257826102ba575b50816102b2575b506101da575b50505050156101cb57005b63d6bda27560e01b5f5260045ffd5b5f9192939450819060018060a01b0316938482526002602052604082209384549460018601905560608101359661022e6102666014602061022661021f8288016109eb565b97876109ff565b9490966109eb565b9360405194818692848401998a378201906bffffffffffffffffffffffff199060601b16838201520301600b1981018452018261095e565b519288f192603f5a9104116102b05760407f842fb24a83793558587a3dab2be7674da4a51d09c5542d6dd354e5d0ea70813c9181519081528415156020820152a2818080806101c0565bfe5b9050866101ba565b9150876101b3565b836102cc866109eb565b636422d02b60e11b5f9081526001600160a01b039283166004529116602452604490fd5b65ffffffffffff61030360808701610a32565b634a777ac560e11b5f521660045260245ffd5b610322602086016109eb565b63d2650cd160e01b5f9081526001600160a01b039190911660045230602452604490fd5b506370647f7960e01b5f526004523460245260445ffd5b60403660031901126101525760043567ffffffffffffffff8111610152573660238201121561015257806004013567ffffffffffffffff8111610152576024820191602436918360051b01011161015257602435916001600160a01b038316808403610152575f9290159183918291905b80831061041b575050503481036104055750816103e757005b6103f6576103f491610c76565b005b6313ba10a360e11b5f5260045ffd5b6370647f7960e01b5f526004523460245260445ffd5b90919261043790604061042f868587610994565b0135906109ca565b92610443818385610994565b5f908661044f82610a45565b9361057e575b82610576575b508161056e575b50610496575b50501561047a575b60010191906103ce565b9461048e600191604061042f898688610994565b959050610470565b90915060018060a01b0316805f52600260205260405f208054906001820190555f8060608501359460406104cc602083016109eb565b6104d960a08401846109ff565b610523601460206104ec889795976109eb565b938551948186928484019a8b378201906bffffffffffffffffffffffff199060601b16838201520301600b1981018452018261095e565b519301359088f192603f5a9104116102b05760407f842fb24a83793558587a3dab2be7674da4a51d09c5542d6dd354e5d0ea70813c9181519081528415156020820152a28880610468565b90508b610462565b91508c61045b565b82156103165781156102f0578061045557836102cc866109eb565b34610152575f366003190112610152576040517f00000000000000000000000000000000000000000000000000000000000000006001600160a01b03168152602090f35b34610152575f36600319011261015257602060ff600754166040519015158152f35b34610152575f366003190112610152576004546040516001600160a01b039091168152602090f35b34610152575f366003190112610152576106c36106637f0000000000000000000000000000000000000000000000000000000000000000610e02565b61068c7f0000000000000000000000000000000000000000000000000000000000000000610f28565b60206106d16040519261069f838561095e565b5f84525f368137604051958695600f60f81b875260e08588015260e087019061093a565b90858203604087015261093a565b4660608501523060808501525f60a085015283810360c08501528180845192838152019301915f5b82811061070857505050500390f35b8351855286955093810193928101926001016106f9565b34610152576020366003190112610152576004356001600160a01b0381168103610152576001600160a01b03165f90815260026020908152604090912054604051908152f35b34610152575f366003190112610152576003546040516001600160a01b039091168152602090f35b346101525760603660031901126101525760043560243560443591821515809303610152576004546001600160a01b03163303610143577ff208d7a01e57684bcd378e29c4c2e55c6de3eb8cc6707bfdf1ff68c3d76f1cd492606092826005558060065560ff196007541660ff83161760075560405192835260208301526040820152a1005b34610152575f366003190112610152576020600554604051908152f35b34610152575f366003190112610152576020600654604051908152f35b3461015257602061086561086036610906565b610a45565b509082610887575b508161087f575b506040519015158152f35b905082610874565b91508361086d565b34610152576020366003190112610152576004356001600160a01b03811690819003610152576004546001600160a01b0381169033829003610143578215610134576001600160a01b03191682176004557f8292fce18fa69edf4db7b94ea2e58241df0ae57f97e0a6c9b29067028bf92d765f80a3005b6020600319820112610152576004359067ffffffffffffffff82116101525760e09082900360031901126101525760040190565b805180835260209291819084018484015e5f828201840152601f01601f1916010190565b90601f8019910116810190811067ffffffffffffffff82111761098057604052565b634e487b7160e01b5f52604160045260245ffd5b91908110156109b65760051b8101359060de1981360301821215610152570190565b634e487b7160e01b5f52603260045260245ffd5b919082018092116109d757565b634e487b7160e01b5f52601160045260245ffd5b356001600160a01b03811681036101525790565b903590601e1981360301821215610152570180359067ffffffffffffffff82116101525760200191813603831361015257565b3565ffffffffffff811681036101525790565b90610a4f826109eb565b6020830191610a5d836109eb565b610a83610a69866109eb565b6001600160a01b03165f9081526002602052604090205490565b6080860193610a9185610a32565b92610a9f60a08901896109ff565b939067ffffffffffffffff85116109805760405195610ac8601f8701601f19166020018861095e565b85875260208701368784011161015257610ba7975f60208960429a65ffffffffffff97863783010152519020926040519460208601967f7f96328b83274ebc7c1cf4f7a3abda602b51a78b7fa1d86a2ce353d75e587cac885260018060a01b0316604087015260018060a01b0316606086015260408c0135608086015260608c013560a086015260c08501521660e08301526101008201526101008152610b716101208261095e565b519020610b7c6110d1565b906040519161190160f01b83526002830152602282015220610ba160c08701876109ff565b9161109d565b506004819492941015610c62575f610bc260209215966109eb565b6040518381019063572b6c0560e01b825230602482015260248152610be860448261095e565b51915afa903d5f519083610c56575b5082610c4a575b50610c0890610a32565b9484610c22575b509365ffffffffffff4291161015929190565b9093506001600160a01b0390610c37906109eb565b166001600160a01b03831614925f610c0f565b15159150610c08610bfe565b6020111592505f610bf7565b634e487b7160e01b5f52602160045260245ffd5b814710610cb6575f808093819382604051610c9260208261095e565b526001600160a01b03165af115610ca557565b3d156101cb576040513d5f823e3d90fd5b504763cf47918160e01b5f5260045260245260445ffd5b9160ff60075416158015610df8575b610df357610ce991610ff8565b6005548082029082820414821517156109d757612710900490600654808310610deb575b506003546040516323b872dd60e01b81526001600160a01b03948516600482018190529185166024820152604481018490529093602090829060649082905f907f0000000000000000000000000000000000000000000000000000000000000000165af19081610db4575b50610d8257505050565b7f108516ddcf5ba43cea6bb2cd5ff6d59ac196c1c86ccb9178332b9dd72d1ca5619160409182519182526020820152a2565b6020813d602011610de3575b81610dcd6020938361095e565b8101031261015257518015158114610d78575f80fd5b3d9150610dc0565b91505f610d0d565b505050565b5060055415610cdc565b60ff8114610e485760ff811690601f8211610e395760405191610e2660408461095e565b6020808452838101919036833783525290565b632cd44ac360e21b5f5260045ffd5b506040515f5f548060011c9160018216918215610f1e575b602084108314610f0a578385528492908115610eeb5750600114610e8e575b610e8b9250038261095e565b90565b505f80805290917f290decd9548b62a8d60345a988386fc84ba6bc95484008f6362f93160ef3e5635b818310610ecf575050906020610e8b92820101610e7f565b6020919350806001915483858801015201910190918392610eb7565b60209250610e8b94915060ff191682840152151560051b820101610e7f565b634e487b7160e01b5f52602260045260245ffd5b92607f1692610e60565b60ff8114610f4c5760ff811690601f8211610e395760405191610e2660408461095e565b506040515f6001548060011c9160018216918215610fee575b602084108314610f0a578385528492908115610eeb5750600114610f8f57610e8b9250038261095e565b5060015f90815290917fb10e2d527612073b26eecdfd717e6a320cf44b4afac2b0732d9fcbe2b7fa0cf65b818310610fd2575050906020610e8b92820101610e7f565b6020919350806001915483858801015201910190918392610fba565b92607f1692610f65565b906004811061109757806004116101525781356001600160e01b0319166384c08ed360e01b81148015611087575b6110785763f99b7d7560e01b8114611068576334a3386760e01b1461104b5750505f90565b606481101561105a5750505f90565b606411610152576044013590565b50606481101561105a5750505f90565b505050670de0b6b3a764000090565b5063b6f0b78760e01b8114611026565b50505f90565b90604183036110c7576110c09250602081013591604082359201355f1a906111ed565b9192909190565b50505f9160029190565b307f00000000000000000000000000000000000000000000000000000000000000006001600160a01b031614806111c4575b1561112c577f000000000000000000000000000000000000000000000000000000000000000090565b60405160208101907f8b73c3c69bb8fe3d512ecc4cf759cc79239f7b179b0ffacaa9a75d522b39400f82527f000000000000000000000000000000000000000000000000000000000000000060408201527f000000000000000000000000000000000000000000000000000000000000000060608201524660808201523060a082015260a081526111be60c08261095e565b51902090565b507f00000000000000000000000000000000000000000000000000000000000000004614611103565b91907f7fffffffffffffffffffffffffffffff5d576e7357a4501ddfe92f46681b20a0841161126f579160209360809260ff5f9560405194855216868401526040830152606082015282805260015afa15611264575f516001600160a01b0381161561125a57905f905f90565b505f906001905f90565b6040513d5f823e3d90fd5b5050505f916003919056fea26469706673582212204726c8a2afdd4d567f6d2a73f4a953deb54578e868bf09aa131f527ee589007064736f6c634300081e0033","linkReferences":{}},"methodIdentifiers":{"eip712Domain()":"84b0196e","execute((address,address,uint256,uint256,uint48,bytes,bytes))":"df905caf","executeBatch((address,address,uint256,uint256,uint48,bytes,bytes)[],address)":"ccf96b4a","feeBps()":"24a9d853","feeEnabled()":"a771ebc7","minFeeWei()":"1b5e4f96","nonces(address)":"7ecebe00","owner()":"8da5cb5b","setFeeConfig(uint256,uint256,bool)":"51a220f7","setOwner(address)":"13af4035","setTreasury(address)":"f0f44260","treasury()":"61d027b3","verify((address,address,uint256,uint256,uint48,bytes,bytes))":"19d8d38c","vspToken()":"baa7f00e"},"id":0}