{"abi":[{"type":"constructor","inputs":[{"name":"_token","type":"address","internalType":"contract IVotes"},{"name":"_timelock","type":"address","internalType":"contract TimelockController"}],"stateMutability":"nonpayable"},{"type":"receive","stateMutability":"payable"},{"type":"function","name":"BALLOT_TYPEHASH","inputs":[],"outputs":[{"name":"","type":"bytes32","internalType":"bytes32"}],"stateMutability":"view"},{"type":"function","name":"CLOCK_MODE","inputs":[],"outputs":[{"name":"","type":"string","internalType":"string"}],"stateMutability":"view"},{"type":"function","name":"COUNTING_MODE","inputs":[],"outputs":[{"name":"","type":"string","internalType":"string"}],"stateMutability":"pure"},{"type":"function","name":"EXTENDED_BALLOT_TYPEHASH","inputs":[],"outputs":[{"name":"","type":"bytes32","internalType":"bytes32"}],"stateMutability":"view"},{"type":"function","name":"cancel","inputs":[{"name":"targets","type":"address[]","internalType":"address[]"},{"name":"values","type":"uint256[]","internalType":"uint256[]"},{"name":"calldatas","type":"bytes[]","internalType":"bytes[]"},{"name":"descriptionHash","type":"bytes32","internalType":"bytes32"}],"outputs":[{"name":"","type":"uint256","internalType":"uint256"}],"stateMutability":"nonpayable"},{"type":"function","name":"castVote","inputs":[{"name":"proposalId","type":"uint256","internalType":"uint256"},{"name":"support","type":"uint8","internalType":"uint8"}],"outputs":[{"name":"","type":"uint256","internalType":"uint256"}],"stateMutability":"nonpayable"},{"type":"function","name":"castVoteBySig","inputs":[{"name":"proposalId","type":"uint256","internalType":"uint256"},{"name":"support","type":"uint8","internalType":"uint8"},{"name":"voter","type":"address","internalType":"address"},{"name":"signature","type":"bytes","internalType":"bytes"}],"outputs":[{"name":"","type":"uint256","internalType":"uint256"}],"stateMutability":"nonpayable"},{"type":"function","name":"castVoteWithReason","inputs":[{"name":"proposalId","type":"uint256","internalType":"uint256"},{"name":"support","type":"uint8","internalType":"uint8"},{"name":"reason","type":"string","internalType":"string"}],"outputs":[{"name":"","type":"uint256","internalType":"uint256"}],"stateMutability":"nonpayable"},{"type":"function","name":"castVoteWithReasonAndParams","inputs":[{"name":"proposalId","type":"uint256","internalType":"uint256"},{"name":"support","type":"uint8","internalType":"uint8"},{"name":"reason","type":"string","internalType":"string"},{"name":"params","type":"bytes","internalType":"bytes"}],"outputs":[{"name":"","type":"uint256","internalType":"uint256"}],"stateMutability":"nonpayable"},{"type":"function","name":"castVoteWithReasonAndParamsBySig","inputs":[{"name":"proposalId","type":"uint256","internalType":"uint256"},{"name":"support","type":"uint8","internalType":"uint8"},{"name":"voter","type":"address","internalType":"address"},{"name":"reason","type":"string","internalType":"string"},{"name":"params","type":"bytes","internalType":"bytes"},{"name":"signature","type":"bytes","internalType":"bytes"}],"outputs":[{"name":"","type":"uint256","internalType":"uint256"}],"stateMutability":"nonpayable"},{"type":"function","name":"clock","inputs":[],"outputs":[{"name":"","type":"uint48","internalType":"uint48"}],"stateMutability":"view"},{"type":"function","name":"eip712Domain","inputs":[],"outputs":[{"name":"fields","type":"bytes1","internalType":"bytes1"},{"name":"name","type":"string","internalType":"string"},{"name":"version","type":"string","internalType":"string"},{"name":"chainId","type":"uint256","internalType":"uint256"},{"name":"verifyingContract","type":"address","internalType":"address"},{"name":"salt","type":"bytes32","internalType":"bytes32"},{"name":"extensions","type":"uint256[]","internalType":"uint256[]"}],"stateMutability":"view"},{"type":"function","name":"execute","inputs":[{"name":"targets","type":"address[]","internalType":"address[]"},{"name":"values","type":"uint256[]","internalType":"uint256[]"},{"name":"calldatas","type":"bytes[]","internalType":"bytes[]"},{"name":"descriptionHash","type":"bytes32","internalType":"bytes32"}],"outputs":[{"name":"","type":"uint256","internalType":"uint256"}],"stateMutability":"payable"},{"type":"function","name":"getProposalId","inputs":[{"name":"targets","type":"address[]","internalType":"address[]"},{"name":"values","type":"uint256[]","internalType":"uint256[]"},{"name":"calldatas","type":"bytes[]","internalType":"bytes[]"},{"name":"descriptionHash","type":"bytes32","internalType":"bytes32"}],"outputs":[{"name":"","type":"uint256","internalType":"uint256"}],"stateMutability":"view"},{"type":"function","name":"getVotes","inputs":[{"name":"account","type":"address","internalType":"address"},{"name":"timepoint","type":"uint256","internalType":"uint256"}],"outputs":[{"name":"","type":"uint256","internalType":"uint256"}],"stateMutability":"view"},{"type":"function","name":"getVotesWithParams","inputs":[{"name":"account","type":"address","internalType":"address"},{"name":"timepoint","type":"uint256","internalType":"uint256"},{"name":"params","type":"bytes","internalType":"bytes"}],"outputs":[{"name":"","type":"uint256","internalType":"uint256"}],"stateMutability":"view"},{"type":"function","name":"hasVoted","inputs":[{"name":"proposalId","type":"uint256","internalType":"uint256"},{"name":"account","type":"address","internalType":"address"}],"outputs":[{"name":"","type":"bool","internalType":"bool"}],"stateMutability":"view"},{"type":"function","name":"hashProposal","inputs":[{"name":"targets","type":"address[]","internalType":"address[]"},{"name":"values","type":"uint256[]","internalType":"uint256[]"},{"name":"calldatas","type":"bytes[]","internalType":"bytes[]"},{"name":"descriptionHash","type":"bytes32","internalType":"bytes32"}],"outputs":[{"name":"","type":"uint256","internalType":"uint256"}],"stateMutability":"pure"},{"type":"function","name":"name","inputs":[],"outputs":[{"name":"","type":"string","internalType":"string"}],"stateMutability":"view"},{"type":"function","name":"nonces","inputs":[{"name":"owner","type":"address","internalType":"address"}],"outputs":[{"name":"","type":"uint256","internalType":"uint256"}],"stateMutability":"view"},{"type":"function","name":"onERC1155BatchReceived","inputs":[{"name":"","type":"address","internalType":"address"},{"name":"","type":"address","internalType":"address"},{"name":"","type":"uint256[]","internalType":"uint256[]"},{"name":"","type":"uint256[]","internalType":"uint256[]"},{"name":"","type":"bytes","internalType":"bytes"}],"outputs":[{"name":"","type":"bytes4","internalType":"bytes4"}],"stateMutability":"nonpayable"},{"type":"function","name":"onERC1155Received","inputs":[{"name":"","type":"address","internalType":"address"},{"name":"","type":"address","internalType":"address"},{"name":"","type":"uint256","internalType":"uint256"},{"name":"","type":"uint256","internalType":"uint256"},{"name":"","type":"bytes","internalType":"bytes"}],"outputs":[{"name":"","type":"bytes4","internalType":"bytes4"}],"stateMutability":"nonpayable"},{"type":"function","name":"onERC721Received","inputs":[{"name":"","type":"address","internalType":"address"},{"name":"","type":"address","internalType":"address"},{"name":"","type":"uint256","internalType":"uint256"},{"name":"","type":"bytes","internalType":"bytes"}],"outputs":[{"name":"","type":"bytes4","internalType":"bytes4"}],"stateMutability":"nonpayable"},{"type":"function","name":"proposalDeadline","inputs":[{"name":"proposalId","type":"uint256","internalType":"uint256"}],"outputs":[{"name":"","type":"uint256","internalType":"uint256"}],"stateMutability":"view"},{"type":"function","name":"proposalEta","inputs":[{"name":"proposalId","type":"uint256","internalType":"uint256"}],"outputs":[{"name":"","type":"uint256","internalType":"uint256"}],"stateMutability":"view"},{"type":"function","name":"proposalNeedsQueuing","inputs":[{"name":"proposalId","type":"uint256","internalType":"uint256"}],"outputs":[{"name":"","type":"bool","internalType":"bool"}],"stateMutability":"view"},{"type":"function","name":"proposalProposer","inputs":[{"name":"proposalId","type":"uint256","internalType":"uint256"}],"outputs":[{"name":"","type":"address","internalType":"address"}],"stateMutability":"view"},{"type":"function","name":"proposalSnapshot","inputs":[{"name":"proposalId","type":"uint256","internalType":"uint256"}],"outputs":[{"name":"","type":"uint256","internalType":"uint256"}],"stateMutability":"view"},{"type":"function","name":"proposalThreshold","inputs":[],"outputs":[{"name":"","type":"uint256","internalType":"uint256"}],"stateMutability":"pure"},{"type":"function","name":"proposalVotes","inputs":[{"name":"proposalId","type":"uint256","internalType":"uint256"}],"outputs":[{"name":"againstVotes","type":"uint256","internalType":"uint256"},{"name":"forVotes","type":"uint256","internalType":"uint256"},{"name":"abstainVotes","type":"uint256","internalType":"uint256"}],"stateMutability":"view"},{"type":"function","name":"propose","inputs":[{"name":"targets","type":"address[]","internalType":"address[]"},{"name":"values","type":"uint256[]","internalType":"uint256[]"},{"name":"calldatas","type":"bytes[]","internalType":"bytes[]"},{"name":"description","type":"string","internalType":"string"}],"outputs":[{"name":"","type":"uint256","internalType":"uint256"}],"stateMutability":"nonpayable"},{"type":"function","name":"queue","inputs":[{"name":"targets","type":"address[]","internalType":"address[]"},{"name":"values","type":"uint256[]","internalType":"uint256[]"},{"name":"calldatas","type":"bytes[]","internalType":"bytes[]"},{"name":"descriptionHash","type":"bytes32","internalType":"bytes32"}],"outputs":[{"name":"","type":"uint256","internalType":"uint256"}],"stateMutability":"nonpayable"},{"type":"function","name":"quorum","inputs":[{"name":"timepoint","type":"uint256","internalType":"uint256"}],"outputs":[{"name":"","type":"uint256","internalType":"uint256"}],"stateMutability":"view"},{"type":"function","name":"quorumDenominator","inputs":[],"outputs":[{"name":"","type":"uint256","internalType":"uint256"}],"stateMutability":"view"},{"type":"function","name":"quorumNumerator","inputs":[{"name":"timepoint","type":"uint256","internalType":"uint256"}],"outputs":[{"name":"","type":"uint256","internalType":"uint256"}],"stateMutability":"view"},{"type":"function","name":"quorumNumerator","inputs":[],"outputs":[{"name":"","type":"uint256","internalType":"uint256"}],"stateMutability":"view"},{"type":"function","name":"relay","inputs":[{"name":"target","type":"address","internalType":"address"},{"name":"value","type":"uint256","internalType":"uint256"},{"name":"data","type":"bytes","internalType":"bytes"}],"outputs":[],"stateMutability":"payable"},{"type":"function","name":"state","inputs":[{"name":"proposalId","type":"uint256","internalType":"uint256"}],"outputs":[{"name":"","type":"uint8","internalType":"enum IGovernor.ProposalState"}],"stateMutability":"view"},{"type":"function","name":"supportsInterface","inputs":[{"name":"interfaceId","type":"bytes4","internalType":"bytes4"}],"outputs":[{"name":"","type":"bool","internalType":"bool"}],"stateMutability":"view"},{"type":"function","name":"timelock","inputs":[],"outputs":[{"name":"","type":"address","internalType":"address"}],"stateMutability":"view"},{"type":"function","name":"token","inputs":[],"outputs":[{"name":"","type":"address","internalType":"contract IERC5805"}],"stateMutability":"view"},{"type":"function","name":"updateQuorumNumerator","inputs":[{"name":"newQuorumNumerator","type":"uint256","internalType":"uint256"}],"outputs":[],"stateMutability":"nonpayable"},{"type":"function","name":"updateTimelock","inputs":[{"name":"newTimelock","type":"address","internalType":"contract TimelockController"}],"outputs":[],"stateMutability":"nonpayable"},{"type":"function","name":"version","inputs":[],"outputs":[{"name":"","type":"string","internalType":"string"}],"stateMutability":"view"},{"type":"function","name":"votingDelay","inputs":[],"outputs":[{"name":"","type":"uint256","internalType":"uint256"}],"stateMutability":"pure"},{"type":"function","name":"votingPeriod","inputs":[],"outputs":[{"name":"","type":"uint256","internalType":"uint256"}],"stateMutability":"pure"},{"type":"event","name":"EIP712DomainChanged","inputs":[],"anonymous":false},{"type":"event","name":"ProposalCanceled","inputs":[{"name":"proposalId","type":"uint256","indexed":false,"internalType":"uint256"}],"anonymous":false},{"type":"event","name":"ProposalCreated","inputs":[{"name":"proposalId","type":"uint256","indexed":false,"internalType":"uint256"},{"name":"proposer","type":"address","indexed":false,"internalType":"address"},{"name":"targets","type":"address[]","indexed":false,"internalType":"address[]"},{"name":"values","type":"uint256[]","indexed":false,"internalType":"uint256[]"},{"name":"signatures","type":"string[]","indexed":false,"internalType":"string[]"},{"name":"calldatas","type":"bytes[]","indexed":false,"internalType":"bytes[]"},{"name":"voteStart","type":"uint256","indexed":false,"internalType":"uint256"},{"name":"voteEnd","type":"uint256","indexed":false,"internalType":"uint256"},{"name":"description","type":"string","indexed":false,"internalType":"string"}],"anonymous":false},{"type":"event","name":"ProposalExecuted","inputs":[{"name":"proposalId","type":"uint256","indexed":false,"internalType":"uint256"}],"anonymous":false},{"type":"event","name":"ProposalQueued","inputs":[{"name":"proposalId","type":"uint256","indexed":false,"internalType":"uint256"},{"name":"etaSeconds","type":"uint256","indexed":false,"internalType":"uint256"}],"anonymous":false},{"type":"event","name":"QuorumNumeratorUpdated","inputs":[{"name":"oldQuorumNumerator","type":"uint256","indexed":false,"internalType":"uint256"},{"name":"newQuorumNumerator","type":"uint256","indexed":false,"internalType":"uint256"}],"anonymous":false},{"type":"event","name":"TimelockChange","inputs":[{"name":"oldTimelock","type":"address","indexed":false,"internalType":"address"},{"name":"newTimelock","type":"address","indexed":false,"internalType":"address"}],"anonymous":false},{"type":"event","name":"VoteCast","inputs":[{"name":"voter","type":"address","indexed":true,"internalType":"address"},{"name":"proposalId","type":"uint256","indexed":false,"internalType":"uint256"},{"name":"support","type":"uint8","indexed":false,"internalType":"uint8"},{"name":"weight","type":"uint256","indexed":false,"internalType":"uint256"},{"name":"reason","type":"string","indexed":false,"internalType":"string"}],"anonymous":false},{"type":"event","name":"VoteCastWithParams","inputs":[{"name":"voter","type":"address","indexed":true,"internalType":"address"},{"name":"proposalId","type":"uint256","indexed":false,"internalType":"uint256"},{"name":"support","type":"uint8","indexed":false,"internalType":"uint8"},{"name":"weight","type":"uint256","indexed":false,"internalType":"uint256"},{"name":"reason","type":"string","indexed":false,"internalType":"string"},{"name":"params","type":"bytes","indexed":false,"internalType":"bytes"}],"anonymous":false},{"type":"error","name":"CheckpointUnorderedInsertion","inputs":[]},{"type":"error","name":"FailedCall","inputs":[]},{"type":"error","name":"GovernorAlreadyCastVote","inputs":[{"name":"voter","type":"address","internalType":"address"}]},{"type":"error","name":"GovernorAlreadyQueuedProposal","inputs":[{"name":"proposalId","type":"uint256","internalType":"uint256"}]},{"type":"error","name":"GovernorDisabledDeposit","inputs":[]},{"type":"error","name":"GovernorInsufficientProposerVotes","inputs":[{"name":"proposer","type":"address","internalType":"address"},{"name":"votes","type":"uint256","internalType":"uint256"},{"name":"threshold","type":"uint256","internalType":"uint256"}]},{"type":"error","name":"GovernorInvalidProposalLength","inputs":[{"name":"targets","type":"uint256","internalType":"uint256"},{"name":"calldatas","type":"uint256","internalType":"uint256"},{"name":"values","type":"uint256","internalType":"uint256"}]},{"type":"error","name":"GovernorInvalidQuorumFraction","inputs":[{"name":"quorumNumerator","type":"uint256","internalType":"uint256"},{"name":"quorumDenominator","type":"uint256","internalType":"uint256"}]},{"type":"error","name":"GovernorInvalidSignature","inputs":[{"name":"voter","type":"address","internalType":"address"}]},{"type":"error","name":"GovernorInvalidVoteParams","inputs":[]},{"type":"error","name":"GovernorInvalidVoteType","inputs":[]},{"type":"error","name":"GovernorInvalidVotingPeriod","inputs":[{"name":"votingPeriod","type":"uint256","internalType":"uint256"}]},{"type":"error","name":"GovernorNonexistentProposal","inputs":[{"name":"proposalId","type":"uint256","internalType":"uint256"}]},{"type":"error","name":"GovernorOnlyExecutor","inputs":[{"name":"account","type":"address","internalType":"address"}]},{"type":"error","name":"GovernorQueueNotImplemented","inputs":[]},{"type":"error","name":"GovernorRestrictedProposer","inputs":[{"name":"proposer","type":"address","internalType":"address"}]},{"type":"error","name":"GovernorUnableToCancel","inputs":[{"name":"proposalId","type":"uint256","internalType":"uint256"},{"name":"account","type":"address","internalType":"address"}]},{"type":"error","name":"GovernorUnexpectedProposalState","inputs":[{"name":"proposalId","type":"uint256","internalType":"uint256"},{"name":"current","type":"uint8","internalType":"enum IGovernor.ProposalState"},{"name":"expectedStates","type":"bytes32","internalType":"bytes32"}]},{"type":"error","name":"InvalidAccountNonce","inputs":[{"name":"account","type":"address","internalType":"address"},{"name":"currentNonce","type":"uint256","internalType":"uint256"}]},{"type":"error","name":"InvalidShortString","inputs":[]},{"type":"error","name":"SafeCastOverflowedUintDowncast","inputs":[{"name":"bits","type":"uint8","internalType":"uint8"},{"name":"value","type":"uint256","internalType":"uint256"}]},{"type":"error","name":"StringTooLong","inputs":[{"name":"str","type":"string","internalType":"string"}]}],"bytecode":{"object":"0x610180604052346100a05761001b610015610102565b9061016e565b60405161373c908161093482396080518161329a015260a05181613351015260c05181613264015260e051816132e90152610100518161330f0152610120518161131401526101405181611340015261016051818181611598015281816119a301528181611a8601528181611c0901528181611f860152818161219c01526125b60152f35b5f80fd5b634e487b7160e01b5f52604160045260245ffd5b601f909101601f19168101906001600160401b038211908210176100db57604052565b6100a4565b604051906100ef6040836100b8565b565b6001600160a01b038116036100a057565b6140709060408238039283825194859261011c82856100b8565b8339810103126100a0576020825192610134846100f1565b015191610140836100f1565b9190565b604051906101536040836100b8565b600a8252565b604051906101686040836100b8565b60018252565b906100ef9161023661017e610144565b602081016926bca3b7bb32b93737b960b11b815261019a610159565b906020820190603160f81b82526101b0846104bc565b610120526101bd836105ac565b6101405283519020918260e05251902080610100524660a0526040519060208201927f8b73c3c69bb8fe3d512ecc4cf759cc79239f7b179b0ffacaa9a75d522b39400f8452604083015260608201524660808201523060a082015260a0815261022760c0826100b8565b5190206080523060c0526102d7565b6001600160a01b03166101605261024b61040f565b6103bc565b90600182811c9216801561027e575b602083101461026a57565b634e487b7160e01b5f52602260045260245ffd5b91607f169161025f565b601f821161029557505050565b5f5260205f20906020601f840160051c830193106102cd575b601f0160051c01905b8181106102c2575050565b5f81556001016102b7565b90915081906102ae565b80519091906001600160401b0381116100db57610300816102f9600354610250565b6003610288565b602092601f821160011461034057610330929382915f92610335575b50508160011b915f199060031b1c19161790565b600355565b015190505f8061031c565b60035f52601f198216937fc2575a0e9e593c00f959f8c92f12db2869c3395a3b0502d05e2516446f71f85b915f5b8681106103a4575083600195961061038c575b505050811b01600355565b01515f1960f88460031b161c191690555f8080610381565b9192602060018192868501518155019401920161036e565b600954604080516001600160a01b03808416825290931660208401819052927f08f74ea46ef7894f65eabfb5e6e695de773a000b47c529ab559178069b2264019190a16001600160a01b03191617600955565b6008548061046f57505f5b6001600160d01b031661042b61069e565b7f0553476bf02ef2726e8ce5ced78d63e26e602e4a2257b1f559418e24b46339979160049161045b9083906107ff565b5050604080519182526020820192909252a1565b805f198101116104a85760085f527ff3f7a9fe364faab93b216da50a3214154f22a0a2b415b23a84c8169e8b636ee2015460301c61041a565b634e487b7160e01b5f52601160045260245ffd5b908151602081105f146104d75750906104d49061071f565b90565b6001600160401b0381116100db576104f9816104f35f54610250565b5f610288565b602092601f821160011461052f57610528929382915f926103355750508160011b915f199060031b1c19161790565b5f5560ff90565b5f8052601f198216937f290decd9548b62a8d60345a988386fc84ba6bc95484008f6362f93160ef3e563915f5b868110610594575083600195961061057c575b505050811b015f5560ff90565b01515f1960f88460031b161c191690555f808061056f565b9192602060018192868501518155019401920161055c565b908151602081105f146105c45750906104d49061071f565b6001600160401b0381116100db576105e8816105e1600154610250565b6001610288565b602092601f821160011461061f57610617929382915f926103355750508160011b915f199060031b1c19161790565b60015560ff90565b60015f52601f198216937fb10e2d527612073b26eecdfd717e6a320cf44b4afac2b0732d9fcbe2b7fa0cf6915f5b868110610686575083600195961061066e575b505050811b0160015560ff90565b01515f1960f88460031b161c191690555f8080610660565b9192602060018192868501518155019401920161064d565b610160516040516324776b7d60e21b815290602090829060049082906001600160a01b03165afa5f91816106dc575b506104d457506104d443610904565b9091506020813d602011610717575b816106f8602093836100b8565b810103126100a0575165ffffffffffff811681036100a057905f6106cd565b3d91506106eb565b601f81511161074a57602081519101516020821061073b571790565b5f198260200360031b1b161790565b604460209160405192839163305a27a960e01b83528160048401528051918291826024860152018484015e5f828201840152601f01601f19168101030190fd5b5f198101919082116104a857565b908154680100000000000000008110156100db57600181018084558110156107eb575f9283526020928390208251929093015160301b65ffffffffffff191665ffffffffffff9290921691909117910155565b634e487b7160e01b5f52603260045260245ffd5b60085491929180156108db576108176108409161078a565b60085f527ff3f7a9fe364faab93b216da50a3214154f22a0a2b415b23a84c8169e8b636ee30190565b90815461085c6108558265ffffffffffff1690565b9160301c90565b9265ffffffffffff8084169216918083116108cc578692036108965761014092509065ffffffffffff82549181199060301b169116179055565b5050610140906108b56108a76100e0565b65ffffffffffff9092168252565b6001600160d01b03851660208201525b6008610798565b632520601d60e01b5f5260045ffd5b506108ff906108eb6108a76100e0565b6001600160d01b03841660208201526108c5565b5f9190565b65ffffffffffff811161091c5765ffffffffffff1690565b6306dfcc6560e41b5f52603060045260245260445ffdfe60806040526004361015610022575b3615610018575f80fd5b61002061220d565b005b5f3560e01c806301ffc9a7146102fc57806302a251a3146102f757806306f3f9e6146102f257806306fdde03146102ed578063143489d0146102e8578063150b7a02146102e3578063160cbed7146102de5780632656227d146102d95780632d63f693146102d45780632fe3e261146102cf5780633932abb1146102ca5780633e4f49e6146102c557806343859632146102c0578063452115d6146102bb5780634bf5d7e9146102b6578063544ffc9c146102b157806354fd4d50146102ac57806356781388146102a75780635b8d0e0d146102a25780635f398a141461029d57806360c4247f146102985780637b3c71d3146102935780637d5e81e21461028e5780637ecebe001461028957806384b0196e146102845780638ff262e31461027f57806391ddadf41461027a57806397c3d334146102755780639a802a6d14610270578063a7713a701461026b578063a890c91014610266578063a8f8a66814610243578063a9a9529414610261578063ab58fb8e1461025c578063b58131b014610257578063bc197c8114610252578063c01f9e371461024d578063c28bc2fa14610248578063c59057e414610243578063d33219b41461023e578063dd4e2ba514610239578063deaaa7cc14610234578063eb9019d41461022f578063f23a6e611461022a578063f8ce560a146102255763fc0c546a0361000e57611a71565b611a53565b6119e6565b611941565b611907565b6118a8565b611880565b61169e565b6117ee565b6117d0565b611723565b611709565b6116d6565b6116ba565b611626565b6115fb565b611526565b61150b565b6114e1565b6113cc565b6112fc565b61128e565b6111e0565b61118b565b61116d565b6110f8565b611052565b610fe4565b610f91565b610f50565b610f21565b610dac565b610d57565b610d28565b610cdb565b610ca1565b610c6c565b610b09565b6108c2565b61067e565b610584565b6104aa565b6103ac565b610390565b346103825760203660031901126103825760043563ffffffff60e01b8116809103610382576366defe7760e11b8114908115610371575b8115610360575b811561034f575b506040519015158152602090f35b6301ffc9a760e01b1490505f610341565b630271189760e51b8114915061033a565b6332a2ad4360e11b81149150610333565b5f80fd5b5f91031261038257565b34610382575f36600319011261038257602060405161c4e08152f35b34610382576020366003190112610382576004356103c8612223565b6064811161045b576001600160d01b036103e0612952565b16906103ea611f71565b916001600160d01b038211610443577f0553476bf02ef2726e8ce5ced78d63e26e602e4a2257b1f559418e24b46339979261042f906001600160d01b0384169061313d565b5050604080519182526020820192909252a1005b506306dfcc6560e41b5f5260d060045260245260445ffd5b63243e544560e01b5f52600452606460245260445ffd5b805180835260209291819084018484015e5f828201840152601f01601f1916010190565b9060206104a7928181520190610472565b90565b34610382575f366003190112610382576040515f6003546104ca81611ab5565b80845290600181169081156105605750600114610502575b6104fe836104f2818503826105db565b60405191829182610496565b0390f35b60035f9081527fc2575a0e9e593c00f959f8c92f12db2869c3395a3b0502d05e2516446f71f85b939250905b808210610546575090915081016020016104f26104e2565b91926001816020925483858801015201910190929161052e565b60ff191660208086019190915291151560051b840190910191506104f290506104e2565b34610382576020366003190112610382576004355f526004602052602060018060a01b0360405f205416604051908152f35b6001600160a01b0381160361038257565b634e487b7160e01b5f52604160045260245ffd5b90601f801991011681019081106001600160401b038211176105fc57604052565b6105c7565b604051906106106040836105db565b565b6001600160401b0381116105fc57601f01601f191660200190565b92919261063982610612565b9161064760405193846105db565b829481845281830111610382578281602093845f960137010152565b9080601f83011215610382578160206104a79335910161062d565b346103825760803660031901126103825761069a6004356105b6565b6106a56024356105b6565b6064356001600160401b038111610382576106c4903690600401610663565b50600954306001600160a01b03909116036106eb57604051630a85bd0160e11b8152602090f35b637485328f60e11b5f5260045ffd5b6001600160401b0381116105fc5760051b60200190565b9080601f83011215610382578135610728816106fa565b9261073660405194856105db565b81845260208085019260051b82010192831161038257602001905b82821061075e5750505090565b60208091833561076d816105b6565b815201910190610751565b9080601f8301121561038257813561078f816106fa565b9261079d60405194856105db565b81845260208085019260051b82010192831161038257602001905b8282106107c55750505090565b81358152602091820191016107b8565b9080601f830112156103825781356107ec816106fa565b926107fa60405194856105db565b81845260208085019260051b820101918383116103825760208201905b83821061082657505050505090565b81356001600160401b0381116103825760209161084887848094880101610663565b815201910190610817565b6080600319820112610382576004356001600160401b038111610382578161087d91600401610711565b916024356001600160401b038111610382578261089c91600401610778565b91604435906001600160401b038211610382576108bb916004016107d5565b9060643590565b34610382576108d036610853565b90926108de82858584612109565b936108e8856122cb565b50600954610906906001600160a01b03165b6001600160a01b031690565b936040519363793d064960e11b8552602085600481895afa948515610ab4575f95610ae8575b503060601b6bffffffffffffffffffffffff191618946020604051809263b1c5f42760e01b825281806109658b89898c60048601612a6b565b03915afa908115610ab4575f91610ab9575b5061098a875f52600a60205260405f2090565b556009546109a0906001600160a01b03166108fa565b90813b15610382575f80946109cc87604051998a97889687956308f2a0bb60e41b875260048701612ab0565b03925af1908115610ab4576109f0926109eb92610a9a575b5042612815565b612ecd565b9065ffffffffffff821615610a8b577f9a2e42fd6722813d69113e7d0079d3d940171428df7373df9c7f7617cfda2892610a7883610a596104fe956001610a3f875f52600460205260405f2090565b019065ffffffffffff1665ffffffffffff19825416179055565b6040805185815265ffffffffffff909216602083015290918291820190565b0390a16040519081529081906020820190565b634844252360e11b5f5260045ffd5b80610aa85f610aae936105db565b80610386565b5f6109e4565b611b9b565b610adb915060203d602011610ae1575b610ad381836105db565b810190612170565b5f610977565b503d610ac9565b610b0291955060203d602011610ae157610ad381836105db565b935f61092c565b610b1236610853565b909291610b2182858386612109565b92610b35610b2f600561229f565b8561234b565b50610b5e610b4b855f52600460205260405f2090565b805460ff60f01b1916600160f01b179055565b600954306001600160a01b0390911603610c07575b93610b8392916104fe9585612b7f565b6009543090610b9a906001600160a01b03166108fa565b141580610be2575b610bd9575b6040518181527f712ae1383f79ac853f8d882153778e0260ef8f03b504e2866e0593e04d2b291f908060208101610a78565b5f600555610ba7565b50610c02610bfe6005546001600160801b0381169060801c1490565b1590565b610ba2565b915f9391935b8351811015610c625760019030610c376108fa610c2a8489611b82565b516001600160a01b031690565b14610c43575b01610c0d565b610c5d610c508289611b82565b5160208151910120612389565b610c3d565b5090929091610b73565b34610382576020366003190112610382576004355f526004602052602065ffffffffffff60405f205460a01c16604051908152f35b34610382575f3660031901126103825760206040517f3e83946653575f9a39005e1545185629e92736b7528ab20ca3816f315424a8118152f35b34610382575f366003190112610382576020604051611c208152f35b634e487b7160e01b5f52602160045260245ffd5b60081115610d1557565b610cf7565b6008811015610d1557602452565b3461038257602036600319011261038257610d446004356123c5565b6040516008821015610d15576020918152f35b3461038257604036600319011261038257602060ff610da0602435600435610d7e826105b6565b5f5260078452600360405f20019060018060a01b03165f5260205260405f2090565b54166040519015158152f35b3461038257610dba36610853565b91610dc783838387612109565b93610dd1856123c5565b6008811015610d15571580610f04575b15610eed57610df09450612109565b610dfb603b8261234b565b50610e26610e11825f52600460205260405f2090565b80546001600160f81b0316600160f81b179055565b6040518181527f789cf55be980739dad1d0699b93b58e806b51c9d96619bfa8fe0a28abaa7b30c90602090a1610e64815f52600a60205260405f2090565b549081610e77575b604051908152602090f35b600954610e8c906001600160a01b03166108fa565b803b156103825760405163c4d252f560e01b815260048101939093525f908390602490829084905af1918215610ab4576104fe92610ed9575b505f818152600a6020526040812055610e6c565b80610aa85f610ee7936105db565b5f610ec5565b84638fe5d8a960e01b5f526004523360245260445ffd5b50845f52600460205260018060a01b0360405f2054163314610de1565b34610382575f366003190112610382576104fe610f3c611bf5565b604051918291602083526020830190610472565b34610382576020366003190112610382576004355f526007602052606060405f20805490600260018201549101549060405192835260208301526040820152f35b34610382575f366003190112610382576104fe604051610fb26040826105db565b60018152603160f81b6020820152604051918291602083526020830190610472565b6024359060ff8216820361038257565b3461038257604036600319011261038257602061101d600435611005610fd4565b6040519161101385846105db565b5f835233906124d2565b604051908152f35b9181601f84011215610382578235916001600160401b038311610382576020838186019501011161038257565b346103825760c03660031901126103825760043561106e610fd4565b906044359061107c826105b6565b6064356001600160401b0381116103825761109b903690600401611025565b6084356001600160401b038111610382576110ba903690600401610663565b9160a435946001600160401b038611610382576104fe966110e26110e8973690600401610663565b95611cc4565b6040519081529081906020820190565b3461038257608036600319011261038257600435611114610fd4565b906044356001600160401b03811161038257611134903690600401611025565b9190926064356001600160401b03811161038257610e6c9461115d611165923690600401610663565b94369161062d565b91339061254f565b3461038257602036600319011261038257602061101d60043561268a565b34610382576060366003190112610382576004356111a7610fd4565b90604435906001600160401b038211610382576020926111d86111d161101d943690600401611025565b369161062d565b9133906124d2565b34610382576080366003190112610382576004356001600160401b03811161038257611210903690600401610711565b6024356001600160401b0381116103825761122f903690600401610778565b906044356001600160401b0381116103825761124f9036906004016107d5565b90606435916001600160401b0383116103825736602384011215610382576104fe936112886110e894369060248160040135910161062d565b92611dc8565b34610382576020366003190112610382576004356112ab816105b6565b60018060a01b03165f526002602052602060405f2054604051908152f35b90602080835192838152019201905f5b8181106112e65750505090565b82518452602093840193909201916001016112d9565b34610382575f3660031901126103825761139e6113387f0000000000000000000000000000000000000000000000000000000000000000612fb8565b6104fe6113647f0000000000000000000000000000000000000000000000000000000000000000613017565b6113ac604051916113766020846105db565b5f808452366020850137604051958695600f60f81b875260e0602088015260e0870190610472565b908582036040870152610472565b904660608501523060808501525f60a085015283820360c08501526112c9565b34610382576080366003190112610382576004356113e8610fd4565b90604435916113f6836105b6565b6064356001600160401b03811161038257610bfe61141b6114a9923690600401610663565b6001600160a01b0386165f9081526002602052604090208054600181019091556114a39060405160208101917ff2aad550cf55f045cb27e9c559f9889fdfb6e6cdaa032301d6ea397784ae51d7835288604083015260ff8816606083015260018060a01b038a16608083015260a082015260a0815261149b60c0826105db565b519020612d17565b86612d47565b6114c457906110e8916104fe936114be611ba6565b926124d2565b6394ab6c0760e01b5f526001600160a01b03831660045260245b5ffd5b34610382575f3660031901126103825760206114fb611f71565b65ffffffffffff60405191168152f35b34610382575f36600319011261038257602060405160648152f35b3461038257606036600319011261038257600435611543816105b6565b6024356044356001600160401b03811161038257611565903690600401610663565b50604051630748d63560e31b81526001600160a01b039283166004820152602481019190915290602090829060449082907f0000000000000000000000000000000000000000000000000000000000000000165afa8015610ab4576104fe915f916115dc575b506040519081529081906020820190565b6115f5915060203d602011610ae157610ad381836105db565b5f6115cb565b34610382575f3660031901126103825760206001600160d01b0361161d612952565b16604051908152f35b3461038257602036600319011261038257600435611643816105b6565b61164b612223565b600954604080516001600160a01b03808416825290931660208401819052927f08f74ea46ef7894f65eabfb5e6e695de773a000b47c529ab559178069b2264019190a16001600160a01b03191617600955005b3461038257602061101d6116b136610853565b92919091612109565b3461038257602036600319011261038257602060405160018152f35b3461038257602036600319011261038257602061101d6004355f52600460205265ffffffffffff600160405f2001541690565b34610382575f3660031901126103825760206040515f8152f35b346103825760a03660031901126103825761173f6004356105b6565b61174a6024356105b6565b6044356001600160401b03811161038257611769903690600401610778565b506064356001600160401b03811161038257611789903690600401610778565b506084356001600160401b038111610382576117a9903690600401610663565b506104fe6117b561200a565b6040516001600160e01b031990911681529081906020820190565b3461038257602036600319011261038257602061101d600435612029565b606036600319011261038257600435611806816105b6565b6024356044356001600160401b03811161038257610020925f9261182f84933690600401611025565b9190611839612223565b826040519384928337810185815203925af13d15611878573d9061185c82610612565b9161186a60405193846105db565b82523d5f602084013e612996565b606090612996565b34610382575f366003190112610382576009546040516001600160a01b039091168152602090f35b34610382575f366003190112610382576104fe6040516118c96040826105db565b602081527f737570706f72743d627261766f2671756f72756d3d666f722c6162737461696e6020820152604051918291602083526020830190610472565b34610382575f3660031901126103825760206040517ff2aad550cf55f045cb27e9c559f9889fdfb6e6cdaa032301d6ea397784ae51d78152f35b346103825760403660031901126103825760043561195e816105b6565b6024355f6040516119706020826105db565b52604051630748d63560e31b81526001600160a01b039283166004820152602481019190915290602090829060449082907f0000000000000000000000000000000000000000000000000000000000000000165afa8015610ab4576104fe915f916115dc57506040519081529081906020820190565b346103825760a036600319011261038257611a026004356105b6565b611a0d6024356105b6565b6084356001600160401b03811161038257611a2c903690600401610663565b50600954306001600160a01b03909116036106eb5760405163f23a6e6160e01b8152602090f35b3461038257602036600319011261038257602061101d60043561217f565b34610382575f366003190112610382576040517f00000000000000000000000000000000000000000000000000000000000000006001600160a01b03168152602090f35b90600182811c92168015611ae3575b6020831014611acf57565b634e487b7160e01b5f52602260045260245ffd5b91607f1691611ac4565b5f9291815491611afc83611ab5565b8083529260018116908115611b515750600114611b1857505050565b5f9081526020812093945091925b838310611b37575060209250010190565b600181602092949394548385870101520191019190611b26565b915050602093945060ff929192191683830152151560051b010190565b634e487b7160e01b5f52603260045260245ffd5b8051821015611b965760209160051b010190565b611b6e565b6040513d5f823e3d90fd5b60405190611bb56020836105db565b5f8252565b60405190611bc96040836105db565b601d82527f6d6f64653d626c6f636b6e756d6265722666726f6d3d64656661756c740000006020830152565b604051634bf5d7e960e01b81525f816004817f00000000000000000000000000000000000000000000000000000000000000006001600160a01b03165afa5f9181611c49575b506104a757506104a7611bba565b9091503d805f833e611c5b81836105db565b810190602081830312610382578051906001600160401b038211610382570181601f8201121561038257805190611c9182610612565b92611c9f60405194856105db565b8284526020838301011161038257815f9260208093018386015e83010152905f611c3b565b939092919695610bfe611d7d91611d778a611ce036878961062d565b6001600160a01b0382165f90815260026020526040902080546001810190915590602081519101208b5160208d0120906040519260208401947f3e83946653575f9a39005e1545185629e92736b7528ab20ca3816f315424a81186528d604086015260ff8d16606086015260018060a01b0316608085015260a084015260c083015260e082015260e0815261149b610100826105db565b8a612d47565b611d98576104a7959691611d9291369161062d565b9261254f565b6394ab6c0760e01b5f526001600160a01b03871660045260245ffd5b634e487b7160e01b5f52601160045260245ffd5b909192611dd58133612781565b15611f5e57611dec81516020830120858585612109565b938251845190818114801590611f53575b8015611f4b575b611f2c57505065ffffffffffff611e35611e26875f52600460205260405f2090565b5460a01c65ffffffffffff1690565b16611f0f577f7d84a6263ae0d98d3329bd7b46bb4e8d6f98cd35a7adb45c274c8b7fd5ebd5e0939291611f0991611e7a65ffffffffffff611e74611f71565b166127f7565b611ee6611e8f895f52600460205260405f2090565b80546001600160a01b03191633178155611ecf611eab84612ecd565b825465ffffffffffff60a01b191660a09190911b65ffffffffffff60a01b16178255565b805463ffffffff60d01b191661062760d51b179055565b611ef08551612822565b91611efa82612806565b92604051978897338c8a61286b565b0390a190565b6114de85611f1c816123c5565b6331b75e4d60e01b5f52906122b2565b9151630447b05d60e41b5f908152600493909352602452604452606490fd5b508015611e04565b508251811415611dfd565b63d9b3955760e01b5f523360045260245ffd5b6040516324776b7d60e21b81526020816004817f00000000000000000000000000000000000000000000000000000000000000006001600160a01b03165afa5f9181611fc7575b506104a757506104a743612ecd565b9091506020813d602011612002575b81611fe3602093836105db565b81010312610382575165ffffffffffff8116810361038257905f611fb8565b3d9150611fd6565b600954306001600160a01b03909116036106eb5763bc197c8160e01b90565b805f52600460205265ffffffffffff60405f205460a01c16905f52600460205263ffffffff60405f205460d01c160165ffffffffffff81116120705765ffffffffffff1690565b611db4565b90602080835192838152019201905f5b8181106120925750505090565b82516001600160a01b0316845260209384019390920191600101612085565b9080602083519182815201916020808360051b8301019401925f915b8383106120dc57505050505090565b90919293946020806120fa600193601f198682030187528951610472565b970193019301919392906120cd565b929061216a9161215661214494604051958694612132602087019960808b5260a0880190612075565b868103601f19016040880152906112c9565b848103601f19016060860152906120b1565b90608083015203601f1981018352826105db565b51902090565b90816020910312610382575190565b604051632394e7a360e21b815260048101829052906020826024817f00000000000000000000000000000000000000000000000000000000000000006001600160a01b03165afa908115610ab4576104a7925f926121e8575b506121e29061268a565b906129da565b6121e29192506122069060203d602011610ae157610ad381836105db565b91906121d8565b600954306001600160a01b03909116036106eb57565b600954336001600160a01b039091160361228c57600954306001600160a01b039091160361224d57565b61225636610612565b61226360405191826105db565b3681526020810190365f83375f602036830101525190205b80612284612a46565b0361227b5750565b6347096e4760e01b5f523360045260245ffd5b6008811015610d155760ff600191161b90565b600452606491906008811015610d15576024525f604452565b6122d4816123c5565b9060106122e08361229f565b16156122ea575090565b6331b75e4d60e01b5f526004526123019150610d1a565b601060445260645ffd5b612314816123c5565b9060026123208361229f565b161561232a575090565b6331b75e4d60e01b5f526004526123419150610d1a565b600260445260645ffd5b90612355826123c5565b91816123608461229f565b161561236b57505090565b6331b75e4d60e01b5f5260045261238182610d1a565b60445260645ffd5b612394906005612afd565b1561239b57565b634e487b715f5260416020526024601cfd5b90816020910312610382575180151581036103825790565b6123ce81612c0c565b906123d882610d0b565b600582036124ce576123f391505f52600a60205260405f2090565b54600954612409906001600160a01b03166108fa565b604051632c258a9f60e11b815260048101839052602081602481855afa908115610ab4575f916124af575b5015612441575050600590565b604051632ab0f52960e01b81526004810192909252602090829060249082905afa908115610ab4575f91612480575b501561247b57600790565b600290565b6124a2915060203d6020116124a8575b61249a81836105db565b8101906123ad565b5f612470565b503d612490565b6124c8915060203d6020116124a85761249a81836105db565b5f612434565b5090565b916104a79391604051936124e76020866105db565b5f855261254f565b93909260ff61251b936104a797958752166020860152604085015260a0606085015260a0840190610472565b916080818403910152610472565b909260ff6080936104a79695845216602083015260408201528160608201520190610472565b9291909261255c8161230b565b50805f52600460205265ffffffffffff61258360405f2065ffffffffffff905460a01c1690565b1693604051630748d63560e31b815260018060a01b03821695866004830152602482015260208160448160018060a01b037f0000000000000000000000000000000000000000000000000000000000000000165afa908115610ab4576125f39285915f93612669575b5084612db5565b948051155f1461263657506126307fb8e138887d0aa13bab447e82de9d5c1777041ecd21ca36ba824ff1e6c07ddda4938660405194859485612529565b0390a290565b612630907fe2babfbac5889a709b63bb7f598b324e08bc5a4fb9ec647fb3cbc9ec07eb87129487604051958695866124ef565b61268391935060203d602011610ae157610ad381836105db565b915f6125ec565b65ffffffffffff908061269d6008612e92565b9491501611155f146126b757505b6001600160d01b031690565b6126c19150612ecd565b600854905f82916005841161272d575b6126dd9350600861350f565b806126e957505f6126ab565b6127216126f861272892612937565b60085f527ff3f7a9fe364faab93b216da50a3214154f22a0a2b415b23a84c8169e8b636ee30190565b5460301c90565b6126ab565b9192612738816133b1565b8103908111612070576126dd9360085f5265ffffffffffff8260205f2001541665ffffffffffff8516105f1461276f5750916126d1565b92915061277b906127e9565b906126d1565b908051603481106127e15760131981830101516001600160b01b03191669dc8f8d908f908c9a8dc360b01b016127e1576127c091602919820190612f28565b90159182156127ce57505090565b6001600160a01b03918216911614919050565b505050600190565b906001820180921161207057565b90611c20820180921161207057565b9061c4e0820180921161207057565b9190820180921161207057565b9061282c826106fa565b61283960405191826105db565b828152809261284a601f19916106fa565b01905f5b82811061285a57505050565b80606060208093850101520161284e565b9599989697949391926128ac9361289e92885260018060a01b031660208801526101206040880152610120870190612075565b9085820360608701526112c9565b968388036080850152815180895260208901906020808260051b8c01019401915f905b82821061290b57505050506104a7969750906128f29184820360a08601526120b1565b9360c083015260e0820152610100818403910152610472565b909192946020806129296001938f601f199082030186528951610472565b9701920192019092916128cf565b5f1981019190821161207057565b9190820391821161207057565b6008548061295f57505f90565b805f198101116120705760085f527ff3f7a9fe364faab93b216da50a3214154f22a0a2b415b23a84c8169e8b636ee2015460301c90565b1561299e5790565b8051156129ad57602081519101fd5b63d6bda27560e01b5f5260045ffd5b81156129c6570490565b634e487b7160e01b5f52601260045260245ffd5b5f19828209908281029182808210910303908115612a3b578160641115612a34577f5c28f5c28f5c28f5c28f5c28f5c28f5c28f5c28f5c28f5c28f5c28f5c28f5c29936064910990828211900360fe1b910360021c170290565b6011612b6f565b505060649004919050565b612a50600561304e565b9015612a595790565b634e487b715f5260316020526024601cfd5b949392612a97608093612a89612aa59460a08a5260a08a0190612075565b9088820360208a01526112c9565b9086820360408801526120b1565b935f60608201520152565b9192612adf60a094612ad1612aed949998979960c0875260c0870190612075565b9085820360208701526112c9565b9083820360408501526120b1565b945f606083015260808201520152565b908154908160801c6001600160801b036001820193166001600160801b03841614612b67576001600160801b03165f90815260018401602052604090205581546001600160801b031660809190911b6fffffffffffffffffffffffffffffffff1916179055600190565b505050505f90565b634e487b715f526020526024601cfd5b60095490949192916001600160a01b03909116906bffffffffffffffffffffffff193060601b16823b1561038257612bd15f956040519788968795869563e38335e560e01b8752189260048601612a6b565b039134905af18015610ab457612bf3575b505f908152600a6020526040812055565b80612bff5f80936105db565b800312610382575f612be2565b612c1e815f52600460205260405f2090565b5460f881901c9060f01c60ff16612d1057612d0a57612c56612c4b611e26835f52600460205260405f2090565b65ffffffffffff1690565b8015612cf657612c67612c4b611f71565b80911015612cf057612c7882612029565b10612c835750600190565b612c8f610bfe8261321d565b8015612ccd575b15612ca15750600390565b612cbf905f52600460205265ffffffffffff600160405f2001541690565b612cc857600490565b600590565b50612ceb610bfe825f52600760205260405f20600181015490541090565b612c96565b50505f90565b636ad0607560e01b5f52600482905260245ffd5b50600290565b5050600790565b604290612d22613261565b906040519161190160f01b8352600283015260228201522090565b60041115610d1557565b9190823b612d6f5790612d5991613377565b50612d6381612d3d565b1591826127ce57505090565b916020926064835f94519060405193630b135d3f60e11b855260048501526040602485015286820190604485015e01915afa630b135d3f60e11b5f5114601f3d11161690565b612dca909291925f52600760205260405f2090565b9160038301612df3612dec83839060018060a01b03165f5260205260405f2090565b5460ff1690565b612e7657612e1760ff9392612e24929060018060a01b03165f5260205260405f2090565b805460ff19166001179055565b1680612e3b5750612e36828254612815565b905590565b60018103612e525750600101612e36828254612815565b600203612e6757600201612e36828254612815565b6303599be160e11b5f5260045ffd5b6371c6af4960e01b5f526001600160a01b03821660045260245ffd5b80549081612ea45750505f905f905f90565b815f19810111612070575f525f199060205f2001015460019165ffffffffffff82169160301c90565b65ffffffffffff8111612ee55765ffffffffffff1690565b6306dfcc6560e41b5f52603060045260245260445ffd5b908160011b918083046002149015171561207057565b908160041b918083046010149015171561207057565b9190825182118015612faf575b612f8857612f42816127e9565b821180612f91575b612f55901515612efc565b6028018060281161207057612f6a8284612945565b03612f8857612f7892613568565b90916001600160a01b0390911690565b5050505f905f90565b50602081840101516001600160f01b03191661060f60f31b14612f4a565b50818111612f35565b60ff8114612ffe5760ff811690601f8211612fef5760405191612fdc6040846105db565b6020808452838101919036833783525290565b632cd44ac360e21b5f5260045ffd5b506040516104a781613010815f611aed565b03826105db565b60ff811461303b5760ff811690601f8211612fef5760405191612fdc6040846105db565b506040516104a781613010816001611aed565b908154906001600160801b0382169160801c82146130c3576001926001600160801b036001808301945f6130af82613097818a906001600160801b03165f5260205260405f2090565b5498906001600160801b03165f5260205260405f2090565b5501166001600160801b0319825416179055565b5f9250829150565b908154600160401b8110156105fc5760018101808455811015611b9657610610925f5260205f20019061311b65ffffffffffff825116839065ffffffffffff1665ffffffffffff19825416179055565b60200151815465ffffffffffff1660309190911b65ffffffffffff1916179055565b60085491929180156131f4576126f861315591612937565b90815461317161316a8265ffffffffffff1690565b9160301c90565b9265ffffffffffff8084169216918083116131e5578692036131af576131ab92509065ffffffffffff82549181199060301b169116179055565b9190565b50506131ab906131ce6131c0610601565b65ffffffffffff9092168252565b6001600160d01b03851660208201525b60086130cb565b632520601d60e01b5f5260045ffd5b50613218906132046131c0610601565b6001600160d01b03841660208201526131de565b5f9190565b805f52600760205260405f20905f52600460205261324965ffffffffffff60405f205460a01c1661217f565b60026001830154920154820180921161207057111590565b307f00000000000000000000000000000000000000000000000000000000000000006001600160a01b0316148061334e575b156132bc577f000000000000000000000000000000000000000000000000000000000000000090565b60405160208101907f8b73c3c69bb8fe3d512ecc4cf759cc79239f7b179b0ffacaa9a75d522b39400f82527f000000000000000000000000000000000000000000000000000000000000000060408201527f000000000000000000000000000000000000000000000000000000000000000060608201524660808201523060a082015260a0815261216a60c0826105db565b507f00000000000000000000000000000000000000000000000000000000000000004614613293565b81519190604183036133a7576133a09250602082015190606060408401519301515f1a90613612565b9192909190565b50505f9160029190565b60018111156104a757806001600160801b8210156134d2575b61347861346e61346461345a61345061344661343561347f9760048a600160401b6134849c10156134c5575b6401000000008110156134b8575b620100008110156134ab575b61010081101561349e575b6010811015613491575b1015613489575b60030260011c90565b61343f818b6129bc565b0160011c90565b61343f818a6129bc565b61343f81896129bc565b61343f81886129bc565b61343f81876129bc565b61343f81866129bc565b80936129bc565b821190565b900390565b60011b61342c565b60041c9160021b91613425565b60081c9160041b9161341b565b60101c9160081b91613410565b60201c9160101b91613404565b60401c9160201b916133f6565b505061348461347f61347861346e61346461345a6134506134466134356134f98a60801c90565b9850600160401b97506133ca9650505050505050565b905b83831061351e5750505090565b90919280841860011c8185160190835f5265ffffffffffff8260205f2001541665ffffffffffff8416105f146135585750925b9190613511565b9350613563906127e9565b613551565b929092613574846127e9565b8311806135f4575b61358e61359591949293941515612efc565b5f95612815565b915b8183106135a75750505060019190565b9092919360ff6135c86135c36020888601015160ff60f81b1690565b613694565b1690600f82116135e957906135de600192612f12565b019401919290613597565b505f94508493505050565b50602084820101516001600160f01b03191661060f60f31b1461357c565b91907f7fffffffffffffffffffffffffffffff5d576e7357a4501ddfe92f46681b20a08411613689579160209360809260ff5f9560405194855216868401526040830152606082015282805260015afa15610ab4575f516001600160a01b0381161561367f57905f905f90565b505f906001905f90565b5050505f9160039190565b60f81c602f8111806136fc575b156136b057602f190160ff1690565b60608111806136f2575b156136c9576056190160ff1690565b60408111806136e8575b156136e2576036190160ff1690565b5060ff90565b50604781106136d3565b50606781106136ba565b50603a81106136a156fea264697066735822122037cdff0ab673b5ecda0b894dafb4a8365d5bd7be94d1f9f8cf5a9da330697b8a64736f6c634300081e0033","linkReferences":{}},"methodIdentifiers":{"BALLOT_TYPEHASH()":"deaaa7cc","CLOCK_MODE()":"4bf5d7e9","COUNTING_MODE()":"dd4e2ba5","EXTENDED_BALLOT_TYPEHASH()":"2fe3e261","cancel(address[],uint256[],bytes[],bytes32)":"452115d6","castVote(uint256,uint8)":"56781388","castVoteBySig(uint256,uint8,address,bytes)":"8ff262e3","castVoteWithReason(uint256,uint8,string)":"7b3c71d3","castVoteWithReasonAndParams(uint256,uint8,string,bytes)":"5f398a14","castVoteWithReasonAndParamsBySig(uint256,uint8,address,string,bytes,bytes)":"5b8d0e0d","clock()":"91ddadf4","eip712Domain()":"84b0196e","execute(address[],uint256[],bytes[],bytes32)":"2656227d","getProposalId(address[],uint256[],bytes[],bytes32)":"a8f8a668","getVotes(address,uint256)":"eb9019d4","getVotesWithParams(address,uint256,bytes)":"9a802a6d","hasVoted(uint256,address)":"43859632","hashProposal(address[],uint256[],bytes[],bytes32)":"c59057e4","name()":"06fdde03","nonces(address)":"7ecebe00","onERC1155BatchReceived(address,address,uint256[],uint256[],bytes)":"bc197c81","onERC1155Received(address,address,uint256,uint256,bytes)":"f23a6e61","onERC721Received(address,address,uint256,bytes)":"150b7a02","proposalDeadline(uint256)":"c01f9e37","proposalEta(uint256)":"ab58fb8e","proposalNeedsQueuing(uint256)":"a9a95294","proposalProposer(uint256)":"143489d0","proposalSnapshot(uint256)":"2d63f693","proposalThreshold()":"b58131b0","proposalVotes(uint256)":"544ffc9c","propose(address[],uint256[],bytes[],string)":"7d5e81e2","queue(address[],uint256[],bytes[],bytes32)":"160cbed7","quorum(uint256)":"f8ce560a","quorumDenominator()":"97c3d334","quorumNumerator()":"a7713a70","quorumNumerator(uint256)":"60c4247f","relay(address,uint256,bytes)":"c28bc2fa","state(uint256)":"3e4f49e6","supportsInterface(bytes4)":"01ffc9a7","timelock()":"d33219b4","token()":"fc0c546a","updateQuorumNumerator(uint256)":"06f3f9e6","updateTimelock(address)":"a890c910","version()":"54fd4d50","votingDelay()":"3932abb1","votingPeriod()":"02a251a3"},"id":154}