{"abi":[{"type":"constructor","inputs":[{"name":"initialAdmin","type":"address","internalType":"address"}],"stateMutability":"nonpayable"},{"type":"function","name":"ADMIN_ROLE","inputs":[],"outputs":[{"name":"","type":"uint64","internalType":"uint64"}],"stateMutability":"view"},{"type":"function","name":"PUBLIC_ROLE","inputs":[],"outputs":[{"name":"","type":"uint64","internalType":"uint64"}],"stateMutability":"view"},{"type":"function","name":"canCall","inputs":[{"name":"caller","type":"address","internalType":"address"},{"name":"target","type":"address","internalType":"address"},{"name":"selector","type":"bytes4","internalType":"bytes4"}],"outputs":[{"name":"immediate","type":"bool","internalType":"bool"},{"name":"delay","type":"uint32","internalType":"uint32"}],"stateMutability":"view"},{"type":"function","name":"cancel","inputs":[{"name":"caller","type":"address","internalType":"address"},{"name":"target","type":"address","internalType":"address"},{"name":"data","type":"bytes","internalType":"bytes"}],"outputs":[{"name":"","type":"uint32","internalType":"uint32"}],"stateMutability":"nonpayable"},{"type":"function","name":"consumeScheduledOp","inputs":[{"name":"caller","type":"address","internalType":"address"},{"name":"data","type":"bytes","internalType":"bytes"}],"outputs":[],"stateMutability":"nonpayable"},{"type":"function","name":"execute","inputs":[{"name":"target","type":"address","internalType":"address"},{"name":"data","type":"bytes","internalType":"bytes"}],"outputs":[{"name":"","type":"uint32","internalType":"uint32"}],"stateMutability":"payable"},{"type":"function","name":"expiration","inputs":[],"outputs":[{"name":"","type":"uint32","internalType":"uint32"}],"stateMutability":"view"},{"type":"function","name":"fnRestricted","inputs":[],"outputs":[],"stateMutability":"nonpayable"},{"type":"function","name":"fnUnrestricted","inputs":[],"outputs":[],"stateMutability":"nonpayable"},{"type":"function","name":"getAccess","inputs":[{"name":"roleId","type":"uint64","internalType":"uint64"},{"name":"account","type":"address","internalType":"address"}],"outputs":[{"name":"since","type":"uint48","internalType":"uint48"},{"name":"currentDelay","type":"uint32","internalType":"uint32"},{"name":"pendingDelay","type":"uint32","internalType":"uint32"},{"name":"effect","type":"uint48","internalType":"uint48"}],"stateMutability":"view"},{"type":"function","name":"getNonce","inputs":[{"name":"id","type":"bytes32","internalType":"bytes32"}],"outputs":[{"name":"","type":"uint32","internalType":"uint32"}],"stateMutability":"view"},{"type":"function","name":"getRoleAdmin","inputs":[{"name":"roleId","type":"uint64","internalType":"uint64"}],"outputs":[{"name":"","type":"uint64","internalType":"uint64"}],"stateMutability":"view"},{"type":"function","name":"getRoleGrantDelay","inputs":[{"name":"roleId","type":"uint64","internalType":"uint64"}],"outputs":[{"name":"","type":"uint32","internalType":"uint32"}],"stateMutability":"view"},{"type":"function","name":"getRoleGuardian","inputs":[{"name":"roleId","type":"uint64","internalType":"uint64"}],"outputs":[{"name":"","type":"uint64","internalType":"uint64"}],"stateMutability":"view"},{"type":"function","name":"getSchedule","inputs":[{"name":"id","type":"bytes32","internalType":"bytes32"}],"outputs":[{"name":"","type":"uint48","internalType":"uint48"}],"stateMutability":"view"},{"type":"function","name":"getTargetAdminDelay","inputs":[{"name":"target","type":"address","internalType":"address"}],"outputs":[{"name":"","type":"uint32","internalType":"uint32"}],"stateMutability":"view"},{"type":"function","name":"getTargetFunctionRole","inputs":[{"name":"target","type":"address","internalType":"address"},{"name":"selector","type":"bytes4","internalType":"bytes4"}],"outputs":[{"name":"","type":"uint64","internalType":"uint64"}],"stateMutability":"view"},{"type":"function","name":"grantRole","inputs":[{"name":"roleId","type":"uint64","internalType":"uint64"},{"name":"account","type":"address","internalType":"address"},{"name":"executionDelay","type":"uint32","internalType":"uint32"}],"outputs":[],"stateMutability":"nonpayable"},{"type":"function","name":"hasRole","inputs":[{"name":"roleId","type":"uint64","internalType":"uint64"},{"name":"account","type":"address","internalType":"address"}],"outputs":[{"name":"isMember","type":"bool","internalType":"bool"},{"name":"executionDelay","type":"uint32","internalType":"uint32"}],"stateMutability":"view"},{"type":"function","name":"hashOperation","inputs":[{"name":"caller","type":"address","internalType":"address"},{"name":"target","type":"address","internalType":"address"},{"name":"data","type":"bytes","internalType":"bytes"}],"outputs":[{"name":"","type":"bytes32","internalType":"bytes32"}],"stateMutability":"view"},{"type":"function","name":"isTargetClosed","inputs":[{"name":"target","type":"address","internalType":"address"}],"outputs":[{"name":"","type":"bool","internalType":"bool"}],"stateMutability":"view"},{"type":"function","name":"labelRole","inputs":[{"name":"roleId","type":"uint64","internalType":"uint64"},{"name":"label","type":"string","internalType":"string"}],"outputs":[],"stateMutability":"nonpayable"},{"type":"function","name":"minSetback","inputs":[],"outputs":[{"name":"","type":"uint32","internalType":"uint32"}],"stateMutability":"view"},{"type":"function","name":"multicall","inputs":[{"name":"data","type":"bytes[]","internalType":"bytes[]"}],"outputs":[{"name":"results","type":"bytes[]","internalType":"bytes[]"}],"stateMutability":"nonpayable"},{"type":"function","name":"renounceRole","inputs":[{"name":"roleId","type":"uint64","internalType":"uint64"},{"name":"callerConfirmation","type":"address","internalType":"address"}],"outputs":[],"stateMutability":"nonpayable"},{"type":"function","name":"revokeRole","inputs":[{"name":"roleId","type":"uint64","internalType":"uint64"},{"name":"account","type":"address","internalType":"address"}],"outputs":[],"stateMutability":"nonpayable"},{"type":"function","name":"schedule","inputs":[{"name":"target","type":"address","internalType":"address"},{"name":"data","type":"bytes","internalType":"bytes"},{"name":"when","type":"uint48","internalType":"uint48"}],"outputs":[{"name":"operationId","type":"bytes32","internalType":"bytes32"},{"name":"nonce","type":"uint32","internalType":"uint32"}],"stateMutability":"nonpayable"},{"type":"function","name":"setGrantDelay","inputs":[{"name":"roleId","type":"uint64","internalType":"uint64"},{"name":"newDelay","type":"uint32","internalType":"uint32"}],"outputs":[],"stateMutability":"nonpayable"},{"type":"function","name":"setRoleAdmin","inputs":[{"name":"roleId","type":"uint64","internalType":"uint64"},{"name":"admin","type":"uint64","internalType":"uint64"}],"outputs":[],"stateMutability":"nonpayable"},{"type":"function","name":"setRoleGuardian","inputs":[{"name":"roleId","type":"uint64","internalType":"uint64"},{"name":"guardian","type":"uint64","internalType":"uint64"}],"outputs":[],"stateMutability":"nonpayable"},{"type":"function","name":"setTargetAdminDelay","inputs":[{"name":"target","type":"address","internalType":"address"},{"name":"newDelay","type":"uint32","internalType":"uint32"}],"outputs":[],"stateMutability":"nonpayable"},{"type":"function","name":"setTargetClosed","inputs":[{"name":"target","type":"address","internalType":"address"},{"name":"closed","type":"bool","internalType":"bool"}],"outputs":[],"stateMutability":"nonpayable"},{"type":"function","name":"setTargetFunctionRole","inputs":[{"name":"target","type":"address","internalType":"address"},{"name":"selectors","type":"bytes4[]","internalType":"bytes4[]"},{"name":"roleId","type":"uint64","internalType":"uint64"}],"outputs":[],"stateMutability":"nonpayable"},{"type":"function","name":"updateAuthority","inputs":[{"name":"target","type":"address","internalType":"address"},{"name":"newAuthority","type":"address","internalType":"address"}],"outputs":[],"stateMutability":"nonpayable"},{"type":"event","name":"CalledRestricted","inputs":[{"name":"caller","type":"address","indexed":false,"internalType":"address"}],"anonymous":false},{"type":"event","name":"CalledUnrestricted","inputs":[{"name":"caller","type":"address","indexed":false,"internalType":"address"}],"anonymous":false},{"type":"event","name":"OperationCanceled","inputs":[{"name":"operationId","type":"bytes32","indexed":true,"internalType":"bytes32"},{"name":"nonce","type":"uint32","indexed":true,"internalType":"uint32"}],"anonymous":false},{"type":"event","name":"OperationExecuted","inputs":[{"name":"operationId","type":"bytes32","indexed":true,"internalType":"bytes32"},{"name":"nonce","type":"uint32","indexed":true,"internalType":"uint32"}],"anonymous":false},{"type":"event","name":"OperationScheduled","inputs":[{"name":"operationId","type":"bytes32","indexed":true,"internalType":"bytes32"},{"name":"nonce","type":"uint32","indexed":true,"internalType":"uint32"},{"name":"schedule","type":"uint48","indexed":false,"internalType":"uint48"},{"name":"caller","type":"address","indexed":false,"internalType":"address"},{"name":"target","type":"address","indexed":false,"internalType":"address"},{"name":"data","type":"bytes","indexed":false,"internalType":"bytes"}],"anonymous":false},{"type":"event","name":"RoleAdminChanged","inputs":[{"name":"roleId","type":"uint64","indexed":true,"internalType":"uint64"},{"name":"admin","type":"uint64","indexed":true,"internalType":"uint64"}],"anonymous":false},{"type":"event","name":"RoleGrantDelayChanged","inputs":[{"name":"roleId","type":"uint64","indexed":true,"internalType":"uint64"},{"name":"delay","type":"uint32","indexed":false,"internalType":"uint32"},{"name":"since","type":"uint48","indexed":false,"internalType":"uint48"}],"anonymous":false},{"type":"event","name":"RoleGranted","inputs":[{"name":"roleId","type":"uint64","indexed":true,"internalType":"uint64"},{"name":"account","type":"address","indexed":true,"internalType":"address"},{"name":"delay","type":"uint32","indexed":false,"internalType":"uint32"},{"name":"since","type":"uint48","indexed":false,"internalType":"uint48"},{"name":"newMember","type":"bool","indexed":false,"internalType":"bool"}],"anonymous":false},{"type":"event","name":"RoleGuardianChanged","inputs":[{"name":"roleId","type":"uint64","indexed":true,"internalType":"uint64"},{"name":"guardian","type":"uint64","indexed":true,"internalType":"uint64"}],"anonymous":false},{"type":"event","name":"RoleLabel","inputs":[{"name":"roleId","type":"uint64","indexed":true,"internalType":"uint64"},{"name":"label","type":"string","indexed":false,"internalType":"string"}],"anonymous":false},{"type":"event","name":"RoleRevoked","inputs":[{"name":"roleId","type":"uint64","indexed":true,"internalType":"uint64"},{"name":"account","type":"address","indexed":true,"internalType":"address"}],"anonymous":false},{"type":"event","name":"TargetAdminDelayUpdated","inputs":[{"name":"target","type":"address","indexed":true,"internalType":"address"},{"name":"delay","type":"uint32","indexed":false,"internalType":"uint32"},{"name":"since","type":"uint48","indexed":false,"internalType":"uint48"}],"anonymous":false},{"type":"event","name":"TargetClosed","inputs":[{"name":"target","type":"address","indexed":true,"internalType":"address"},{"name":"closed","type":"bool","indexed":false,"internalType":"bool"}],"anonymous":false},{"type":"event","name":"TargetFunctionRoleUpdated","inputs":[{"name":"target","type":"address","indexed":true,"internalType":"address"},{"name":"selector","type":"bytes4","indexed":false,"internalType":"bytes4"},{"name":"roleId","type":"uint64","indexed":true,"internalType":"uint64"}],"anonymous":false},{"type":"error","name":"AccessManagerAlreadyScheduled","inputs":[{"name":"operationId","type":"bytes32","internalType":"bytes32"}]},{"type":"error","name":"AccessManagerBadConfirmation","inputs":[]},{"type":"error","name":"AccessManagerExpired","inputs":[{"name":"operationId","type":"bytes32","internalType":"bytes32"}]},{"type":"error","name":"AccessManagerInvalidInitialAdmin","inputs":[{"name":"initialAdmin","type":"address","internalType":"address"}]},{"type":"error","name":"AccessManagerLockedFunction","inputs":[{"name":"selector","type":"bytes4","internalType":"bytes4"}]},{"type":"error","name":"AccessManagerLockedRole","inputs":[{"name":"roleId","type":"uint64","internalType":"uint64"}]},{"type":"error","name":"AccessManagerNotReady","inputs":[{"name":"operationId","type":"bytes32","internalType":"bytes32"}]},{"type":"error","name":"AccessManagerNotScheduled","inputs":[{"name":"operationId","type":"bytes32","internalType":"bytes32"}]},{"type":"error","name":"AccessManagerUnauthorizedAccount","inputs":[{"name":"msgsender","type":"address","internalType":"address"},{"name":"roleId","type":"uint64","internalType":"uint64"}]},{"type":"error","name":"AccessManagerUnauthorizedCall","inputs":[{"name":"caller","type":"address","internalType":"address"},{"name":"target","type":"address","internalType":"address"},{"name":"selector","type":"bytes4","internalType":"bytes4"}]},{"type":"error","name":"AccessManagerUnauthorizedCancel","inputs":[{"name":"msgsender","type":"address","internalType":"address"},{"name":"caller","type":"address","internalType":"address"},{"name":"target","type":"address","internalType":"address"},{"name":"selector","type":"bytes4","internalType":"bytes4"}]},{"type":"error","name":"AccessManagerUnauthorizedConsume","inputs":[{"name":"target","type":"address","internalType":"address"}]},{"type":"error","name":"AddressEmptyCode","inputs":[{"name":"target","type":"address","internalType":"address"}]},{"type":"error","name":"FailedCall","inputs":[]},{"type":"error","name":"InsufficientBalance","inputs":[{"name":"balance","type":"uint256","internalType":"uint256"},{"name":"needed","type":"uint256","internalType":"uint256"}]},{"type":"error","name":"SafeCastOverflowedUintDowncast","inputs":[{"name":"bits","type":"uint8","internalType":"uint8"},{"name":"value","type":"uint256","internalType":"uint256"}]}],"bytecode":{"object":"0x6080604052346102b757604051601f61274538819003918201601f19168301916001600160401b0383118484101761015a578084926020946040528339810103126102b757516001600160a01b038116908190036102b75780156102a4575f8181525f5160206127055f395f51905f52602052604090205465ffffffffffff161580156101825765ffffffffffff610096426102bb565b1665ffffffffffff811161016e578060405191604083019383851060018060401b0386111761015a5760409485529183525f60208085018281528783525f5160206127055f395f51905f529091529481209351845495516001600160a01b031990961665ffffffffffff919091161760309590951b600160301b600160a01b0316949094179092555f5160206127255f395f51905f52916060915b65ffffffffffff604051928684521660208301526040820152a360405161241a90816102eb8239f35b634e487b7160e01b5f52604160045260245ffd5b634e487b7160e01b5f52601160045260245ffd5b5f8281525f5160206127055f395f51905f526020526040902054906101a6426102bb565b63ffffffff8360301c169265ffffffffffff808260701c1692168211155f146102925750505b63ffffffff8216801561028b5763ffffffff811161016e575b65ffffffffffff63ffffffff6101fa426102bb565b921691160165ffffffffffff811161016e575f8481525f5160206127055f395f51905f52602090815260408083208054600160301b600160a01b0319169185901b6dffffffffffff0000000000000000169690921b67ffffffff00000000169590951760301b600160301b600160a01b0316949094179093555f5160206127255f395f51905f529160609190610131565b505f6101e5565b63ffffffff9060501c169250506101cc565b630409d6d160e11b5f525f60045260245ffd5b5f80fd5b65ffffffffffff81116102d35765ffffffffffff1690565b6306dfcc6560e41b5f52603060045260245260445ffdfe60806040526004361015610011575f80fd5b5f5f3560e01c806308d6122d1461157e5780630b0a93ba1461153957806312be872714611516578063167bd3951461148b57806318ff183c146113f95780631cff79cd146112ba57806325c471a014610fb15780633078f11414610f5657806330cae18714610eb85780633adc277a14610e895780633ca7c02a14610e675780634136a33c14610e345780634665096d14610e165780634c1da1e214610de45780635296295214610d2c578063530dd45614610cd857806357a2211114610c925780636d5115bd14610c325780636f154d2d14610bf457806375b238fc14610bd8578063853551b814610b1e57806394c7d7ee14610a58578063a166aa8914610a0c578063a64d95ce14610900578063abd9bd2a146108db578063ac9650d81461072e578063b7009613146106e9578063b7d2b162146106b6578063cc1b6c8114610698578063d1f856ee14610653578063d22b598914610584578063d6bb62c614610405578063f801a698146101e25763fe0776f514610190575f80fd5b346101df5760403660031901126101df576101a96116db565b6101b1611695565b90336001600160a01b038316036101d057906101cc91611e31565b5080f35b635f159e6360e01b8352600483fd5b80fd5b50346101df5760603660031901126101df576101fc61167f565b906024356001600160401b0381116104015761021c903690600401611707565b919060443565ffffffffffff81168091036103fd5761023d84838733611bd9565b905061025963ffffffff610250426123b5565b92168092611b08565b901580156103e2575b6103a9579065ffffffffffff809216908180821191180218169061028884828733611906565b93848452600260205265ffffffffffff6040852054168015159081610398575b5061038457604095849361037587947f82a2da5dee54ea8021c6545b4444620291e07ee83be6dd57edb175062715f3b494868b99526002602052600163ffffffff8a8a205460301c160163ffffffff81169989898c9b52600260205281812065ffffffffffff881665ffffffffffff198254161790558981526002602052209069ffffffff00000000000082549160301b169069ffffffff00000000000019161790558a51948594855233602086015260018060a01b03168b8501526080606085015260808401916118e6565b0390a382519182526020820152f35b63813e945960e01b84526004859052602484fd5b6103a29150611ddb565b155f6102a8565b606484876103b78887611c20565b6381c6f24b60e01b8352336004526001600160a01b039091166024526001600160e01b031916604452fd5b508115158015610262575065ffffffffffff81168210610262565b8280fd5b5080fd5b50346101df5761042d906104183661178a565b6104258183949793611c20565b928685611906565b91828452600260205265ffffffffffff604085205416155f1461045e5763060a299b60e41b84526004839052602484fd5b6001600160a01b0316903382036104d0575b505060209250808252600283526040822065ffffffffffff1981541690558082526002835263ffffffff604083205460301c1680917fbd9ac67a6e2f6463b80927326310338bcbb4bdb7936ce1365ea3e01067e7b9f76040519480a38152f35b6104d933611aa0565b509460018060a01b03169485855284602052604085209163ffffffff60e01b16918286526020526105413361053c6001600160401b036040892054166001600160401b03165f5260016020526001600160401b03600160405f20015460401c1690565b611add565b509015908161057b575b501561047057608492508460405192630ff89d4760e21b8452336004850152602484015260448301526064820152fd5b9050155f61054b565b50346101df5760403660031901126101df5761059e61167f565b7fa56b76017453f399ec2327ba00375dbfb1fd070ff854341ad6191e6a2e2de19c6105c7611777565b916105d0611b3a565b60018060a01b031691828452836020526105fa816001600160701b03600160408820015416612322565b9190848652856020526001600160701b036001604088200191166001600160701b031982541617905561064d6040519283928390929165ffffffffffff60209163ffffffff604085019616845216910152565b0390a280f35b50346101df5760403660031901126101df5761067e6106706116db565b610678611695565b90611add565b60408051921515835263ffffffff91909116602083015290f35b50346101df57806003193601126101df576020604051620697808152f35b50346101df5760403660031901126101df576101cc6106d36116db565b6106db611695565b906106e4611b3a565b611e31565b50346101df5760603660031901126101df5761070361167f565b61070b611695565b604435916001600160e01b03198316830361072a5761067e9350611994565b8380fd5b50346101df5760203660031901126101df576004356001600160401b0381116104015761075f9036906004016116ab565b90602060405161076f828261180d565b84815281810191601f19810136843761078785611955565b93610795604051958661180d565b858552601f196107a487611955565b01875b8181106108cc57505036819003601e190190875b87811015610854578060051b82013583811215610850578201908135916001600160401b03831161084c578501823603811361084c578261082a610830928d898c6001986040519687958487013784018281018481528e519283915e010190815203601f19810183528261180d565b30611e0f565b61083a828a61196c565b52610845818961196c565b50016107bb565b8a80fd5b8980fd5b88848860405191808301818452825180915260408401918060408360051b870101940192865b8388106108875786860387f35b9091929394838080600193603f198b8203018752818a518051918291828552018484015e86838284010152601f8019910116010197019301970196909392919361087a565b606087820185015283016107a7565b50346101df5760206108f86108ef3661178a565b92919091611906565b604051908152f35b50346101df5760403660031901126101df5761091a6116db565b6001600160401b0361092a611777565b91610933611b3a565b16906001600160401b0382146109f8577ffeb69018ee8b8fd50ea86348f1267d07673379f72cffdeccec63853ee8ce8b4890828452600160205261098a816001600160701b03600160408820015460801c16612322565b84865260016020818152604080892090920180546dffffffffffffffffffffffffffff60801b191660809590951b6dffffffffffffffffffffffffffff60801b1694909417909355805163ffffffff909416845265ffffffffffff909116918301919091528190810161064d565b63061c6a4360e21b83526004829052602483fd5b50346101df5760203660031901126101df576020610a4e610a2b61167f565b6001600160a01b03165f9081526020819052604090206001015460701c60ff1690565b6040519015158152f35b50346101df57610a6736611734565b91604051638fb3603760e01b8152602081600481335afa908115610b13578591610acc575b506001600160e01b03191663704c9fc960e01b01610ab95791610ab4916101cc933390611906565b611c36565b630641fee960e31b845233600452602484fd5b90506020813d602011610b0b575b81610ae76020938361180d565b81010312610b0757516001600160e01b031981168103610b07575f610a8c565b8480fd5b3d9150610ada565b6040513d87823e3d90fd5b50346101df5760403660031901126101df57610b386116db565b602435906001600160401b0382116103fd57610b606001600160401b03923690600401611707565b929091610b6b611b3a565b169182158015610bc8575b610bb457907f1256f5b5ecb89caec12db449738f2fbcd1ba5806cf38f35413f4e5c15bf6a4509161064d6040519283926020845260208401916118e6565b63061c6a4360e21b84526004839052602484fd5b506001600160401b038314610b76565b50346101df57806003193601126101df57602090604051908152f35b50346101df57806003193601126101df577f723e9347c9cee19522d182a3a0d8287ce6ba225b534114cb124b76e1523bfb7e6020604051338152a180f35b50346101df5760403660031901126101df57610c4c61167f565b6024359063ffffffff60e01b82168092036103fd576001600160a01b0316825260208281526040808420928452918152918190205490516001600160401b039091168152f35b50346101df57806003193601126101df57610cab611b3a565b7f736614e0596fd68e76f34c74b62efa34b16c2a960f58ae22d1ec8fe770c1961a6020604051338152a180f35b50346101df5760203660031901126101df576020610d1b610cf76116db565b6001600160401b03165f5260016020526001600160401b03600160405f2001541690565b6001600160401b0360405191168152f35b50346101df5760403660031901126101df57610d466116db565b6001600160401b03610d566116f1565b91610d5f611b3a565b169081158015610dd4575b6109f8576001600160401b0390828452600160205260016040852001805467ffffffffffffffff60401b8360401b169067ffffffffffffffff60401b191617905516907f7a8059630b897b5de4c08ade69f8b90c3ead1f8596d62d10b6c4d14a0afb4ae28380a380f35b506001600160401b038214610d6a565b50346101df5760203660031901126101df576020610e08610e0361167f565b6118bf565b63ffffffff60405191168152f35b50346101df57806003193601126101df57602060405162093a808152f35b50346101df5760203660031901126101df5763ffffffff6040602092600435815260028452205460301c16604051908152f35b50346101df57806003193601126101df5760206040516001600160401b038152f35b50346101df5760203660031901126101df576020610ea8600435611895565b65ffffffffffff60405191168152f35b50346101df5760403660031901126101df57610ed26116db565b6001600160401b03610ee26116f1565b91610eeb611b3a565b169081158015610f46575b6109f8576001600160401b0390828452600160205260016040852001828216831982541617905516907f1fd6dd7631312dfac2205b52913f99de03b4d7e381d5d27d3dbfe0713e6e63408380a380f35b506001600160401b038214610ef6565b50346101df5760403660031901126101df57608063ffffffff65ffffffffffff81610f90610f826116db565b610f8a611695565b90611842565b93929590918560405197168752166020860152166040840152166060820152f35b50346101df5760603660031901126101df57610fcb6116db565b610fd3611695565b906044359163ffffffff831680930361072a57610fee611b3a565b6001600160401b03610fff836117dc565b9216916001600160401b0383146112a6578285526001602090815260408087206001600160a01b0385165f908152925290205465ffffffffffff16159081156111445761105c9063ffffffff611054426123b5565b911690611b08565b604051604081018181106001600160401b03821117611130577ff98448b987f1428e0e230e1f3c6e2ce15b5693eaf31827fbd0b1ec4b424ae7cf94926111116060959365ffffffffffff9360405283831681526001600160701b03602082018b81528a8d52600160205260408d2060018060a01b0389165f52602052858060405f209451161686198454161783555116600160301b600160a01b0382549160301b1690600160301b600160a01b031916179055565b60408051988952911660208801528601526001600160a01b031693a380f35b634e487b7160e01b88526041600452602488fd5b5082855260016020526040852060018060a01b0383165f526020526111786001600160701b0360405f205460301c16611d9e565b50508463ffffffff82168181115f1461125d570363ffffffff8111611249579165ffffffffffff7ff98448b987f1428e0e230e1f3c6e2ce15b5693eaf31827fbd0b1ec4b424ae7cf949261124467ffffffff000000006111e963ffffffff6060985b166111e4426123b5565b611b08565b9260201b1665ffffffffffff60401b8360401b16178917888b52600160205260408b2060018060a01b0387165f5260205260405f2090600160301b600160a01b0382549160301b1690600160301b600160a01b031916179055565b611111565b634e487b7160e01b87526011600452602487fd5b50509160609165ffffffffffff7ff98448b987f1428e0e230e1f3c6e2ce15b5693eaf31827fbd0b1ec4b424ae7cf9461124467ffffffff000000006111e963ffffffff8c6111da565b63061c6a4360e21b85526004839052602485fd5b506112c436611734565b90916112d282848333611bd9565b939015806113eb575b6113dd576112eb83828433611906565b63ffffffff869516158015906113c4575b6113b2575b50600354926113386113138284611c20565b6001600160a01b0385165f9081526001600160e01b0319919091166020526040902090565b6003556001600160401b03811161139e5760405191611361601f8301601f19166020018461180d565b818352368282011161139a5795602082849382998361138898970137830101523491611d03565b5060035563ffffffff60405191168152f35b8680fd5b634e487b7160e01b86526041600452602486fd5b6113bd919450611c36565b925f611301565b5065ffffffffffff6113d582611895565b1615156112fc565b906103b76064938693611c20565b5063ffffffff8416156112db565b50346114875760403660031901126114875761141361167f565b61141b611695565b90611424611b3a565b6001600160a01b031690813b1561148757604051637a9e5e4b60e01b81526001600160a01b039091166004820152905f908290602490829084905af1801561147c5761146e575080f35b61147a91505f9061180d565b005b6040513d5f823e3d90fd5b5f80fd5b34611487576040366003190112611487576114a461167f565b602435908115158092036114875760207f90d4e7bb7e5d933792b3562e1741306f8be94837e1348dacef9b6f1df56eb138916114de611b3a565b6001600160a01b03165f818152808352604090819020600101805460ff60701b1916607087901b60ff60701b161790555193845292a2005b34611487576020366003190112611487576020610e086115346116db565b6117dc565b34611487576020366003190112611487576020610d1b6115576116db565b6001600160401b03165f5260016020526001600160401b03600160405f20015460401c1690565b346114875760603660031901126114875761159761167f565b6024356001600160401b038111611487576115b69036906004016116ab565b9190604435906001600160401b038216809203611487576115d8939293611b3a565b6001600160a01b03909316925f5b8381101561147a578060051b82013563ffffffff60e01b811680910361148757637a9e5e4b60e01b811461166d579083867f9ea6790c7dadfd01c9f8b9762b3682607af2c7e79e05a9f9fdf5580dde9491516020600195835f525f825260405f20815f52825260405f20856001600160401b0319825416179055604051908152a3016115e6565b637a3a272560e11b5f5260045260245ffd5b600435906001600160a01b038216820361148757565b602435906001600160a01b038216820361148757565b9181601f84011215611487578235916001600160401b038311611487576020808501948460051b01011161148757565b600435906001600160401b038216820361148757565b602435906001600160401b038216820361148757565b9181601f84011215611487578235916001600160401b038311611487576020838186019501011161148757565b906040600319830112611487576004356001600160a01b03811681036114875791602435906001600160401b0382116114875761177391600401611707565b9091565b6024359063ffffffff8216820361148757565b6060600319820112611487576004356001600160a01b038116810361148757916024356001600160a01b03811681036114875791604435906001600160401b0382116114875761177391600401611707565b6001600160401b03165f5260016020526118086001600160701b03600160405f20015460801c16611d9e565b505090565b90601f801991011681019081106001600160401b0382111761182e57604052565b634e487b7160e01b5f52604160045260245ffd5b6001600160401b03165f9081526001602090815260408083206001600160a01b039094168352929052205465ffffffffffff9161188b603083901c6001600160701b0316611d9e565b9490931693909291565b5f52600260205265ffffffffffff60405f2054166118b281611ddb565b156118bc57505f90565b90565b60018060a01b03165f525f6020526118086001600160701b03600160405f20015416611d9e565b908060209392818452848401375f828201840152601f01601f1916010190565b604080516001600160a01b0392831660208201908152929093169083015260608083015292909161194f9183916119419160808401916118e6565b03601f19810183528261180d565b51902090565b6001600160401b03811161182e5760051b60200190565b80518210156119805760209160051b010190565b634e487b7160e01b5f52603260045260245ffd5b6001600160a01b0382165f9081526020819052604090206001015491929160701c60ff16156119c6575050505f905f90565b6001600160a01b0381163003611a0357506003546001600160a01b039092165f9081526001600160e01b0319909116602052604090205b14905f90565b919291906001600160e01b031916637a9e5e4b60e01b8103611a5d5750611a3b63ffffffff80611a338194611aa0565b9390966118bf565b9216911690818082119118021816915f14611a565781159190565b5f91508190565b611a8d929360018060a01b03165f525f60205260405f20905f526020526001600160401b0360405f205416611add565b919015611a565763ffffffff8216159190565b90611ab265ffffffffffff925f611842565b505092168015159081611ac457509190565b905065ffffffffffff611ad6426123b5565b1610159190565b6001600160401b0381811603611af65750506001905f90565b65ffffffffffff9291611ab291611842565b9065ffffffffffff8091169116019065ffffffffffff8211611b2657565b634e487b7160e01b5f52601160045260245ffd5b611b443633611ee0565b9015611b4d5750565b63ffffffff16611b82576001600160401b03611b6836611fe3565b50905063f07e038f60e01b5f52336004521660245260445ffd5b611bd66040516020810190338252306040820152606080820152611bce81602060808201368152365f838301375f823683010152601f19601f360116010103601f19810183528261180d565b519020611c36565b50565b909291906001600160a01b0384163003611bf7576117739350611f94565b9192906004841015611c0d57505050505f905f90565b61177393611c1a91611c20565b91611994565b9060041161148757356001600160e01b03191690565b5f81815260026020526040902054909190603081901c63ffffffff169065ffffffffffff1680611c73578363060a299b60e41b5f5260045260245ffd5b65ffffffffffff611c83426123b5565b16811115611c9e5783630c65b5bd60e11b5f5260045260245ffd5b611cab9093919293611ddb565b611cf1578190805f52600260205260405f2065ffffffffffff1981541690557f76a2a46953689d4861a5d3f6ed883ad7e6af674a21f8e162707159fc9dde614d5f80a390565b631e2975b960e21b5f5260045260245ffd5b91804710611d8857815f92916020849351920190855af18080611d75575b15611d305750506118bc612309565b15611d5557639996b31560e01b5f9081526001600160a01b0391909116600452602490fd5b3d15611d66576040513d5f823e3d90fd5b63d6bda27560e01b5f5260045ffd5b503d151580611d215750813b1515611d21565b4763cf47918160e01b5f5260045260245260445ffd5b611da7426123b5565b63ffffffff82169165ffffffffffff604082901c811692168211611dcf575090915f91508190565b60201c63ffffffff1692565b65ffffffffffff62093a8091160165ffffffffffff8111611b265765ffffffffffff80611e07426123b5565b169116111590565b905f8091602081519101845af48080611d755715611d305750506118bc612309565b6001600160401b0316906001600160401b038214611ecd57815f52600160205260405f2060018060a01b0382165f5260205265ffffffffffff60405f20541615611ec757815f52600160205260405f2060018060a01b0382165f526020525f604081205560018060a01b0316907ff229baa593af28c41b1d16b748cd7688f0c83aaf92d4be41c44005defe84c1665f80a3600190565b50505f90565b5063061c6a4360e21b5f5260045260245ffd5b9060048110611f3c576001600160a01b0382163014611f6b57611f03905f61218b565b9290911580611f4d575b611f4457611f1a91611add565b9015611f3c5763ffffffff808093169116908180821191180218169081159190565b50505f905f90565b5050505f905f90565b50305f9081526020819052604090206001015460701c60ff16611f0d565b905060041161148757600354305f90815280356001600160e01b031916602052604090206119fd565b919060048210611f44576001600160a01b0383163014611fb85790611f039161218b565b611fc29250611c20565b600354305f9081526001600160e01b031990921660205260409091206119fd565b5f90600481106121815780600411611487575f356001600160e01b031916906310a6aa3760e31b82148015612171575b8015612161575b8015612151575b8015612141575b6121355763063fc60f60e21b82148015612125575b8015612115575b6120e55763012e238d60e51b821480156120d5575b612084575030825281602052604082209082526020526001600160401b036040822054169181929190565b90506024116101df57806101df57506004356001600160401b0381168103611487576120ce906001600160401b03165f5260016020526001600160401b03600160405f2001541690565b6001915f90565b50635be958b160e11b8214612059565b915050602411611487576004356001600160a01b038116908190036114875761210d906118bf565b6001915f9190565b506308d6122d60e01b8214612044565b5063167bd39560e01b821461203d565b5050506001905f905f90565b5063d22b598960e01b8214612028565b50635326cae760e11b8214612021565b5063294b14a960e11b821461201a565b506330cae18760e01b8214612013565b50505f905f905f90565b60048210612181576001600160e01b03196121a68383611c20565b16916310a6aa3760e31b831480156122f9575b80156122e9575b80156122d9575b80156122c9575b6121355763063fc60f60e21b831480156122b9575b80156122a9575b6122825763012e238d60e51b83148015612272575b61222c575050305f525f60205260405f20905f526020526001600160401b0360405f205416905f91905f90565b90915060241161148757600401356001600160401b0381168103611487576120ce906001600160401b03165f5260016020526001600160401b03600160405f2001541690565b50635be958b160e11b83146121ff565b909150602411611487576004013560018060a01b0381168091036114875761210d906118bf565b506308d6122d60e01b83146121ea565b5063167bd39560e01b83146121e3565b5063d22b598960e01b83146121ce565b50635326cae760e11b83146121c7565b5063294b14a960e11b83146121c0565b506330cae18760e01b83146121b9565b604051903d82523d5f602084013e60203d830101604052565b61233363ffffffff91939293611d9e565b505092168063ffffffff84168181115f1461239b570363ffffffff8111611b265761238163ffffffff8067ffffffff00000000935b168062069780118162069780180218166111e4426123b5565b9360201b1665ffffffffffff60401b8460401b1617179190565b505067ffffffff0000000061238163ffffffff805f612368565b65ffffffffffff81116123cd5765ffffffffffff1690565b6306dfcc6560e41b5f52603060045260245260445ffdfea264697066735822122022453226f1de37c5491d3d27354827c4fa4a240bdb0848b9c20c1cb2feedd81764736f6c634300081e0033a6eef7e35abe7026729641147f7915573c7e97b47efa546f5f6e3230263bcb49f98448b987f1428e0e230e1f3c6e2ce15b5693eaf31827fbd0b1ec4b424ae7cf","linkReferences":{}},"methodIdentifiers":{"ADMIN_ROLE()":"75b238fc","PUBLIC_ROLE()":"3ca7c02a","canCall(address,address,bytes4)":"b7009613","cancel(address,address,bytes)":"d6bb62c6","consumeScheduledOp(address,bytes)":"94c7d7ee","execute(address,bytes)":"1cff79cd","expiration()":"4665096d","fnRestricted()":"57a22111","fnUnrestricted()":"6f154d2d","getAccess(uint64,address)":"3078f114","getNonce(bytes32)":"4136a33c","getRoleAdmin(uint64)":"530dd456","getRoleGrantDelay(uint64)":"12be8727","getRoleGuardian(uint64)":"0b0a93ba","getSchedule(bytes32)":"3adc277a","getTargetAdminDelay(address)":"4c1da1e2","getTargetFunctionRole(address,bytes4)":"6d5115bd","grantRole(uint64,address,uint32)":"25c471a0","hasRole(uint64,address)":"d1f856ee","hashOperation(address,address,bytes)":"abd9bd2a","isTargetClosed(address)":"a166aa89","labelRole(uint64,string)":"853551b8","minSetback()":"cc1b6c81","multicall(bytes[])":"ac9650d8","renounceRole(uint64,address)":"fe0776f5","revokeRole(uint64,address)":"b7d2b162","schedule(address,bytes,uint48)":"f801a698","setGrantDelay(uint64,uint32)":"a64d95ce","setRoleAdmin(uint64,uint64)":"30cae187","setRoleGuardian(uint64,uint64)":"52962952","setTargetAdminDelay(address,uint32)":"d22b5989","setTargetClosed(address,bool)":"167bd395","setTargetFunctionRole(address,bytes4[],uint64)":"08d6122d","updateAuthority(address,address)":"18ff183c"},"id":103}