{"abi":[{"type":"constructor","inputs":[{"name":"underlying","type":"address","internalType":"address"}],"stateMutability":"nonpayable"},{"type":"function","name":"allowance","inputs":[{"name":"owner","type":"address","internalType":"address"},{"name":"spender","type":"address","internalType":"address"}],"outputs":[{"name":"","type":"uint256","internalType":"uint256"}],"stateMutability":"view"},{"type":"function","name":"approve","inputs":[{"name":"spender","type":"address","internalType":"address"},{"name":"value","type":"uint256","internalType":"uint256"}],"outputs":[{"name":"","type":"bool","internalType":"bool"}],"stateMutability":"nonpayable"},{"type":"function","name":"asset","inputs":[],"outputs":[{"name":"","type":"address","internalType":"address"}],"stateMutability":"view"},{"type":"function","name":"balanceOf","inputs":[{"name":"account","type":"address","internalType":"address"}],"outputs":[{"name":"","type":"uint256","internalType":"uint256"}],"stateMutability":"view"},{"type":"function","name":"burn","inputs":[{"name":"account","type":"address","internalType":"address"},{"name":"amount","type":"uint256","internalType":"uint256"}],"outputs":[],"stateMutability":"nonpayable"},{"type":"function","name":"convertToAssets","inputs":[{"name":"shares","type":"uint256","internalType":"uint256"}],"outputs":[{"name":"","type":"uint256","internalType":"uint256"}],"stateMutability":"view"},{"type":"function","name":"convertToShares","inputs":[{"name":"assets","type":"uint256","internalType":"uint256"}],"outputs":[{"name":"","type":"uint256","internalType":"uint256"}],"stateMutability":"view"},{"type":"function","name":"decimals","inputs":[],"outputs":[{"name":"","type":"uint8","internalType":"uint8"}],"stateMutability":"view"},{"type":"function","name":"deposit","inputs":[{"name":"assets","type":"uint256","internalType":"uint256"},{"name":"receiver","type":"address","internalType":"address"}],"outputs":[{"name":"","type":"uint256","internalType":"uint256"}],"stateMutability":"nonpayable"},{"type":"function","name":"maxDeposit","inputs":[{"name":"","type":"address","internalType":"address"}],"outputs":[{"name":"","type":"uint256","internalType":"uint256"}],"stateMutability":"view"},{"type":"function","name":"maxMint","inputs":[{"name":"","type":"address","internalType":"address"}],"outputs":[{"name":"","type":"uint256","internalType":"uint256"}],"stateMutability":"view"},{"type":"function","name":"maxRedeem","inputs":[{"name":"owner","type":"address","internalType":"address"}],"outputs":[{"name":"","type":"uint256","internalType":"uint256"}],"stateMutability":"view"},{"type":"function","name":"maxWithdraw","inputs":[{"name":"owner","type":"address","internalType":"address"}],"outputs":[{"name":"","type":"uint256","internalType":"uint256"}],"stateMutability":"view"},{"type":"function","name":"mint","inputs":[{"name":"account","type":"address","internalType":"address"},{"name":"amount","type":"uint256","internalType":"uint256"}],"outputs":[],"stateMutability":"nonpayable"},{"type":"function","name":"mint","inputs":[{"name":"shares","type":"uint256","internalType":"uint256"},{"name":"receiver","type":"address","internalType":"address"}],"outputs":[{"name":"","type":"uint256","internalType":"uint256"}],"stateMutability":"nonpayable"},{"type":"function","name":"name","inputs":[],"outputs":[{"name":"","type":"string","internalType":"string"}],"stateMutability":"view"},{"type":"function","name":"previewDeposit","inputs":[{"name":"assets","type":"uint256","internalType":"uint256"}],"outputs":[{"name":"","type":"uint256","internalType":"uint256"}],"stateMutability":"view"},{"type":"function","name":"previewMint","inputs":[{"name":"shares","type":"uint256","internalType":"uint256"}],"outputs":[{"name":"","type":"uint256","internalType":"uint256"}],"stateMutability":"view"},{"type":"function","name":"previewRedeem","inputs":[{"name":"shares","type":"uint256","internalType":"uint256"}],"outputs":[{"name":"","type":"uint256","internalType":"uint256"}],"stateMutability":"view"},{"type":"function","name":"previewWithdraw","inputs":[{"name":"assets","type":"uint256","internalType":"uint256"}],"outputs":[{"name":"","type":"uint256","internalType":"uint256"}],"stateMutability":"view"},{"type":"function","name":"redeem","inputs":[{"name":"shares","type":"uint256","internalType":"uint256"},{"name":"receiver","type":"address","internalType":"address"},{"name":"owner","type":"address","internalType":"address"}],"outputs":[{"name":"","type":"uint256","internalType":"uint256"}],"stateMutability":"nonpayable"},{"type":"function","name":"symbol","inputs":[],"outputs":[{"name":"","type":"string","internalType":"string"}],"stateMutability":"view"},{"type":"function","name":"totalAssets","inputs":[],"outputs":[{"name":"","type":"uint256","internalType":"uint256"}],"stateMutability":"view"},{"type":"function","name":"totalSupply","inputs":[],"outputs":[{"name":"","type":"uint256","internalType":"uint256"}],"stateMutability":"view"},{"type":"function","name":"transfer","inputs":[{"name":"to","type":"address","internalType":"address"},{"name":"value","type":"uint256","internalType":"uint256"}],"outputs":[{"name":"","type":"bool","internalType":"bool"}],"stateMutability":"nonpayable"},{"type":"function","name":"transferFrom","inputs":[{"name":"from","type":"address","internalType":"address"},{"name":"to","type":"address","internalType":"address"},{"name":"value","type":"uint256","internalType":"uint256"}],"outputs":[{"name":"","type":"bool","internalType":"bool"}],"stateMutability":"nonpayable"},{"type":"function","name":"withdraw","inputs":[{"name":"assets","type":"uint256","internalType":"uint256"},{"name":"receiver","type":"address","internalType":"address"},{"name":"owner","type":"address","internalType":"address"}],"outputs":[{"name":"","type":"uint256","internalType":"uint256"}],"stateMutability":"nonpayable"},{"type":"event","name":"Approval","inputs":[{"name":"owner","type":"address","indexed":true,"internalType":"address"},{"name":"spender","type":"address","indexed":true,"internalType":"address"},{"name":"value","type":"uint256","indexed":false,"internalType":"uint256"}],"anonymous":false},{"type":"event","name":"Deposit","inputs":[{"name":"sender","type":"address","indexed":true,"internalType":"address"},{"name":"owner","type":"address","indexed":true,"internalType":"address"},{"name":"assets","type":"uint256","indexed":false,"internalType":"uint256"},{"name":"shares","type":"uint256","indexed":false,"internalType":"uint256"}],"anonymous":false},{"type":"event","name":"Transfer","inputs":[{"name":"from","type":"address","indexed":true,"internalType":"address"},{"name":"to","type":"address","indexed":true,"internalType":"address"},{"name":"value","type":"uint256","indexed":false,"internalType":"uint256"}],"anonymous":false},{"type":"event","name":"Withdraw","inputs":[{"name":"sender","type":"address","indexed":true,"internalType":"address"},{"name":"receiver","type":"address","indexed":true,"internalType":"address"},{"name":"owner","type":"address","indexed":true,"internalType":"address"},{"name":"assets","type":"uint256","indexed":false,"internalType":"uint256"},{"name":"shares","type":"uint256","indexed":false,"internalType":"uint256"}],"anonymous":false},{"type":"error","name":"ERC20InsufficientAllowance","inputs":[{"name":"spender","type":"address","internalType":"address"},{"name":"allowance","type":"uint256","internalType":"uint256"},{"name":"needed","type":"uint256","internalType":"uint256"}]},{"type":"error","name":"ERC20InsufficientBalance","inputs":[{"name":"sender","type":"address","internalType":"address"},{"name":"balance","type":"uint256","internalType":"uint256"},{"name":"needed","type":"uint256","internalType":"uint256"}]},{"type":"error","name":"ERC20InvalidApprover","inputs":[{"name":"approver","type":"address","internalType":"address"}]},{"type":"error","name":"ERC20InvalidReceiver","inputs":[{"name":"receiver","type":"address","internalType":"address"}]},{"type":"error","name":"ERC20InvalidSender","inputs":[{"name":"sender","type":"address","internalType":"address"}]},{"type":"error","name":"ERC20InvalidSpender","inputs":[{"name":"spender","type":"address","internalType":"address"}]},{"type":"error","name":"ERC4626ExceededMaxDeposit","inputs":[{"name":"receiver","type":"address","internalType":"address"},{"name":"assets","type":"uint256","internalType":"uint256"},{"name":"max","type":"uint256","internalType":"uint256"}]},{"type":"error","name":"ERC4626ExceededMaxMint","inputs":[{"name":"receiver","type":"address","internalType":"address"},{"name":"shares","type":"uint256","internalType":"uint256"},{"name":"max","type":"uint256","internalType":"uint256"}]},{"type":"error","name":"ERC4626ExceededMaxRedeem","inputs":[{"name":"owner","type":"address","internalType":"address"},{"name":"shares","type":"uint256","internalType":"uint256"},{"name":"max","type":"uint256","internalType":"uint256"}]},{"type":"error","name":"ERC4626ExceededMaxWithdraw","inputs":[{"name":"owner","type":"address","internalType":"address"},{"name":"assets","type":"uint256","internalType":"uint256"},{"name":"max","type":"uint256","internalType":"uint256"}]},{"type":"error","name":"SafeERC20FailedOperation","inputs":[{"name":"token","type":"address","internalType":"address"}]}],"bytecode":{"object":"0x60c080604052346103d157602081611357803803809161001f82856103d5565b8339810103126103d157516001600160a01b038116908190036103d1576040519061004b6040836103d5565b600b82526a455243343632364d6f636b60a81b6020830152604051906100726040836103d5565b600682526545343632364d60d01b602083015282516001600160401b0381116102e257600354600181811c911680156103c7575b60208210146102c457601f8111610364575b506020601f821160011461030157819293945f926102f6575b50508160011b915f199060031b1c1916176003555b81516001600160401b0381116102e257600454600181811c911680156102d8575b60208210146102c457601f8111610261575b50602092601f821160011461020057928192935f926101f5575b50508160011b915f199060031b1c1916176004555b6040519060405f6020840163313ce56760e01b81526004855261016c6024866103d5565b845190845afa5f519083604052806101ea575b806101df575b156101d75760ff1660015b156101cf575b60a052608052610f5e90816103f98239608051818181610500015281816108bc01528181610be10152610d76015260a051816105430152f35b506012610196565b505f80610190565b5060ff811115610185565b5060203d101561017f565b015190505f80610133565b601f1982169360045f52805f20915f5b8681106102495750836001959610610231575b505050811b01600455610148565b01515f1960f88460031b161c191690555f8080610223565b91926020600181928685015181550194019201610210565b60045f527f8a35acfbc15ff81a39ae7d344fd709f28e8600b4aa8c65c6b64bfe7fe36bd19b601f830160051c810191602084106102ba575b601f0160051c01905b8181106102af5750610119565b5f81556001016102a2565b9091508190610299565b634e487b7160e01b5f52602260045260245ffd5b90607f1690610107565b634e487b7160e01b5f52604160045260245ffd5b015190505f806100d1565b601f1982169060035f52805f20915f5b81811061034c57509583600195969710610334575b505050811b016003556100e6565b01515f1960f88460031b161c191690555f8080610326565b9192602060018192868b015181550194019201610311565b60035f527fc2575a0e9e593c00f959f8c92f12db2869c3395a3b0502d05e2516446f71f85b601f830160051c810191602084106103bd575b601f0160051c01905b8181106103b257506100b8565b5f81556001016103a5565b909150819061039c565b90607f16906100a6565b5f80fd5b601f909101601f19168101906001600160401b038211908210176102e25760405256fe60806040526004361015610011575f80fd5b5f3560e01c806301e1d1141461076057806306fdde03146106a557806307a2d13a146104c1578063095ea7b3146105fd5780630a28a477146105df57806318160ddd146105c257806323b872dd1461058a578063313ce5671461052f57806338d52e0f146104eb578063402d267d1461020157806340c10f19146104c65780634cdad506146104c15780636e553f651461048e57806370a082311461019b57806394bf804d1461045b57806395d89b41146103575780639dc29fac14610330578063a9059cbb146102ff578063b3d7f6b9146102e1578063b460af9414610272578063ba08765214610206578063c63d75b614610201578063c6e6f59214610142578063ce96cb77146101db578063d905777e1461019b578063dd62ed3e146101475763ef8b30f714610142575f80fd5b61084d565b34610197576040366003190112610197576101606107c2565b6101686107d8565b6001600160a01b039182165f908152600160209081526040808320949093168252928352819020549051908152f35b5f80fd5b346101975760203660031901126101975760206101d36101b96107c2565b6001600160a01b03165f9081526020819052604090205490565b604051908152f35b346101975760203660031901126101975760206101d36101fc6101b96107c2565b61096f565b6107ee565b346101975761021436610813565b90916102308260018060a01b03165f525f60205260405f205490565b8082116102515750806020936102486101d39361096f565b93849133610d25565b91632e52afbb60e21b5f5260018060a01b031660045260245260445260645ffd5b346101975761028036610813565b909161029f6101fc8360018060a01b03165f525f60205260405f205490565b8082116102c05750602092816102b76101d39361099c565b93849233610d25565b91633fa733bb60e21b5f5260018060a01b031660045260245260445260645ffd5b346101975760203660031901126101975760206101d360043561093e565b346101975760403660031901126101975761032561031b6107c2565b6024359033610a9a565b602060405160018152f35b346101975760403660031901126101975761035561034c6107c2565b60243590610ca1565b005b34610197575f366003190112610197576040515f6004548060011c90600181168015610451575b60208310811461043d5782855290811561041957506001146103bb575b6103b7836103ab8185038261086b565b6040519182918261077a565b0390f35b91905060045f527f8a35acfbc15ff81a39ae7d344fd709f28e8600b4aa8c65c6b64bfe7fe36bd19b915f905b8082106103ff575090915081016020016103ab61039b565b9192600181602092548385880101520191019092916103e7565b60ff191660208086019190915291151560051b840190910191506103ab905061039b565b634e487b7160e01b5f52602260045260245ffd5b91607f169161037e565b346101975760403660031901126101975760206004356101d361047c6107d8565b916104868161093e565b809333610bb4565b346101975760403660031901126101975760206004356101d36104af6107d8565b6104b8836109ca565b92839133610bb4565b6107a4565b34610197576040366003190112610197576103556104e26107c2565b60243590610b57565b34610197575f366003190112610197576040517f00000000000000000000000000000000000000000000000000000000000000006001600160a01b03168152602090f35b34610197575f3660031901126101975760ff7f00000000000000000000000000000000000000000000000000000000000000001660ff811161057657602090604051908152f35b634e487b7160e01b5f52601160045260245ffd5b34610197576060366003190112610197576103256105a66107c2565b6105ae6107d8565b604435916105bd8333836109f7565b610a9a565b34610197575f366003190112610197576020600254604051908152f35b346101975760203660031901126101975760206101d360043561099c565b34610197576040366003190112610197576106166107c2565b602435903315610692576001600160a01b031690811561067f57335f52600160205260405f20825f526020528060405f20556040519081527f8c5be1e5ebec7d5bd14f71427d1e84f3dd0314c0f7b2291e5b200ac8c7c3b92560203392a3602060405160018152f35b634a1406b160e11b5f525f60045260245ffd5b63e602df0560e01b5f525f60045260245ffd5b34610197575f366003190112610197576040515f6003548060011c90600181168015610756575b60208310811461043d5782855290811561041957506001146106f8576103b7836103ab8185038261086b565b91905060035f527fc2575a0e9e593c00f959f8c92f12db2869c3395a3b0502d05e2516446f71f85b915f905b80821061073c575090915081016020016103ab61039b565b919260018160209254838588010152019101909291610724565b91607f16916106cc565b34610197575f3660031901126101975760206101d36108a1565b602060409281835280519182918282860152018484015e5f828201840152601f01601f1916010190565b346101975760203660031901126101975760206101d360043561096f565b600435906001600160a01b038216820361019757565b602435906001600160a01b038216820361019757565b34610197576020366003190112610197576108076107c2565b5060206040515f198152f35b606090600319011261019757600435906024356001600160a01b038116810361019757906044356001600160a01b03811681036101975790565b346101975760203660031901126101975760206101d36004356109ca565b90601f8019910116810190811067ffffffffffffffff82111761088d57604052565b634e487b7160e01b5f52604160045260245ffd5b6040516370a0823160e01b81523060048201526020816024817f00000000000000000000000000000000000000000000000000000000000000006001600160a01b03165afa908115610926575f916108f7575090565b90506020813d60201161091e575b816109126020938361086b565b81010312610197575190565b3d9150610905565b6040513d5f823e3d90fd5b9190820180921161057657565b6109466108a1565b906001820180921161057657600254600181018091116105765761096c92600192610e17565b90565b6109776108a1565b906001820180921161057657600254600181018091116105765761096c925f92610e17565b6002549060018201809211610576576109b36108a1565b600181018091116105765761096c92600192610e17565b6002549060018201809211610576576109e16108a1565b600181018091116105765761096c925f92610e17565b6001600160a01b039081165f818152600160209081526040808320948616835293905291909120549291905f198410610a31575b50505050565b828410610a77578015610692576001600160a01b0382161561067f575f52600160205260405f209060018060a01b03165f5260205260405f20910390555f808080610a2b565b508290637dc7a0d960e11b5f5260018060a01b031660045260245260445260645ffd5b6001600160a01b0316908115610b44576001600160a01b0316918215610b3157815f525f60205260405f2054818110610b1857817fddf252ad1be2c89b69c2b068fc378daa952ba7f163c4a11628f55a4df523b3ef92602092855f525f84520360405f2055845f525f825260405f20818154019055604051908152a3565b8263391434e360e21b5f5260045260245260445260645ffd5b63ec442f0560e01b5f525f60045260245ffd5b634b637e8f60e11b5f525f60045260245ffd5b6001600160a01b0316908115610b31577fddf252ad1be2c89b69c2b068fc378daa952ba7f163c4a11628f55a4df523b3ef602082610b985f94600254610931565b60025584845283825260408420818154019055604051908152a3565b6040516323b872dd60e01b5f9081526001600160a01b0392831660048190523060245260448690529495927f000000000000000000000000000000000000000000000000000000000000000016919060209060648180865af19060015f5114821615610c80575b6040525f60605215610c6e57508181610c576040937fdcbc1c05240f31ff3ad067ef1ee35ce4997762752e3a095284754544f4c709d795610b57565b825195865260208601526001600160a01b031693a3565b635274afe760e01b5f5260045260245ffd5b906001811516610c9857823b15153d15161690610c1b565b503d5f823e3d90fd5b9091906001600160a01b03168015610b4457805f525f60205260405f2054838110610d0b576020845f94957fddf252ad1be2c89b69c2b068fc378daa952ba7f163c4a11628f55a4df523b3ef938587528684520360408620558060025403600255604051908152a3565b915063391434e360e21b5f5260045260245260445260645ffd5b6001600160a01b0380841695908216939091610d4d91839182898803610e06575b5050610ca1565b60405163a9059cbb60e01b5f9081526001600160a01b03938416600481905260248790529591937f0000000000000000000000000000000000000000000000000000000000000000169060209060448180855af160015f5114811615610de7575b8460405215610c6e5750825260208201527ffbde797d201c681b91056529119e0b02407c7bb96a4a2c75c01fc9667232c8db90604090a4565b6001811516610dfd57813b15153d151616610dae565b843d5f823e3d90fd5b610e1091836109f7565b5f82610d46565b9291610e24818386610e89565b926004811015610e75576001809116149182610e4a575b505061096c9250151590610931565b9080925015610e615761096c930915155f80610e3b565b634e487b7160e01b5f52601260045260245ffd5b634e487b7160e01b5f52602160045260245ffd5b90915f198383099280830292838086109503948086039514610f1a5784831115610f025790829109815f0382168092046002816003021880820260020302808202600203028082026002030280820260020302808202600203028091026002030293600183805f03040190848311900302920304170290565b82634e487b715f52156003026011186020526024601cfd5b505080925015610e6157049056fea264697066735822122086211be6a41ef9dd032d9d9e1a330ead5a58d3472e214a16727c253b383fd70764736f6c634300081e0033","linkReferences":{}},"methodIdentifiers":{"allowance(address,address)":"dd62ed3e","approve(address,uint256)":"095ea7b3","asset()":"38d52e0f","balanceOf(address)":"70a08231","burn(address,uint256)":"9dc29fac","convertToAssets(uint256)":"07a2d13a","convertToShares(uint256)":"c6e6f592","decimals()":"313ce567","deposit(uint256,address)":"6e553f65","maxDeposit(address)":"402d267d","maxMint(address)":"c63d75b6","maxRedeem(address)":"d905777e","maxWithdraw(address)":"ce96cb77","mint(address,uint256)":"40c10f19","mint(uint256,address)":"94bf804d","name()":"06fdde03","previewDeposit(uint256)":"ef8b30f7","previewMint(uint256)":"b3d7f6b9","previewRedeem(uint256)":"4cdad506","previewWithdraw(uint256)":"0a28a477","redeem(uint256,address,address)":"ba087652","symbol()":"95d89b41","totalAssets()":"01e1d114","totalSupply()":"18160ddd","transfer(address,uint256)":"a9059cbb","transferFrom(address,address,uint256)":"23b872dd","withdraw(uint256,address,address)":"b460af94"},"id":207}