{"abi":[{"type":"constructor","inputs":[{"name":"name","type":"string","internalType":"string"},{"name":"symbol","type":"string","internalType":"string"},{"name":"receivers","type":"address[]","internalType":"address[]"},{"name":"amounts","type":"uint96[]","internalType":"uint96[]"}],"stateMutability":"nonpayable"},{"type":"function","name":"approve","inputs":[{"name":"to","type":"address","internalType":"address"},{"name":"tokenId","type":"uint256","internalType":"uint256"}],"outputs":[],"stateMutability":"nonpayable"},{"type":"function","name":"balanceOf","inputs":[{"name":"owner","type":"address","internalType":"address"}],"outputs":[{"name":"","type":"uint256","internalType":"uint256"}],"stateMutability":"view"},{"type":"function","name":"getApproved","inputs":[{"name":"tokenId","type":"uint256","internalType":"uint256"}],"outputs":[{"name":"","type":"address","internalType":"address"}],"stateMutability":"view"},{"type":"function","name":"isApprovedForAll","inputs":[{"name":"owner","type":"address","internalType":"address"},{"name":"operator","type":"address","internalType":"address"}],"outputs":[{"name":"","type":"bool","internalType":"bool"}],"stateMutability":"view"},{"type":"function","name":"name","inputs":[],"outputs":[{"name":"","type":"string","internalType":"string"}],"stateMutability":"view"},{"type":"function","name":"ownerOf","inputs":[{"name":"tokenId","type":"uint256","internalType":"uint256"}],"outputs":[{"name":"","type":"address","internalType":"address"}],"stateMutability":"view"},{"type":"function","name":"safeTransferFrom","inputs":[{"name":"from","type":"address","internalType":"address"},{"name":"to","type":"address","internalType":"address"},{"name":"tokenId","type":"uint256","internalType":"uint256"}],"outputs":[],"stateMutability":"nonpayable"},{"type":"function","name":"safeTransferFrom","inputs":[{"name":"from","type":"address","internalType":"address"},{"name":"to","type":"address","internalType":"address"},{"name":"tokenId","type":"uint256","internalType":"uint256"},{"name":"data","type":"bytes","internalType":"bytes"}],"outputs":[],"stateMutability":"nonpayable"},{"type":"function","name":"setApprovalForAll","inputs":[{"name":"operator","type":"address","internalType":"address"},{"name":"approved","type":"bool","internalType":"bool"}],"outputs":[],"stateMutability":"nonpayable"},{"type":"function","name":"supportsInterface","inputs":[{"name":"interfaceId","type":"bytes4","internalType":"bytes4"}],"outputs":[{"name":"","type":"bool","internalType":"bool"}],"stateMutability":"view"},{"type":"function","name":"symbol","inputs":[],"outputs":[{"name":"","type":"string","internalType":"string"}],"stateMutability":"view"},{"type":"function","name":"tokenByIndex","inputs":[{"name":"index","type":"uint256","internalType":"uint256"}],"outputs":[{"name":"","type":"uint256","internalType":"uint256"}],"stateMutability":"view"},{"type":"function","name":"tokenOfOwnerByIndex","inputs":[{"name":"owner","type":"address","internalType":"address"},{"name":"index","type":"uint256","internalType":"uint256"}],"outputs":[{"name":"","type":"uint256","internalType":"uint256"}],"stateMutability":"view"},{"type":"function","name":"tokenURI","inputs":[{"name":"tokenId","type":"uint256","internalType":"uint256"}],"outputs":[{"name":"","type":"string","internalType":"string"}],"stateMutability":"view"},{"type":"function","name":"totalSupply","inputs":[],"outputs":[{"name":"","type":"uint256","internalType":"uint256"}],"stateMutability":"view"},{"type":"function","name":"transferFrom","inputs":[{"name":"from","type":"address","internalType":"address"},{"name":"to","type":"address","internalType":"address"},{"name":"tokenId","type":"uint256","internalType":"uint256"}],"outputs":[],"stateMutability":"nonpayable"},{"type":"event","name":"Approval","inputs":[{"name":"owner","type":"address","indexed":true,"internalType":"address"},{"name":"approved","type":"address","indexed":true,"internalType":"address"},{"name":"tokenId","type":"uint256","indexed":true,"internalType":"uint256"}],"anonymous":false},{"type":"event","name":"ApprovalForAll","inputs":[{"name":"owner","type":"address","indexed":true,"internalType":"address"},{"name":"operator","type":"address","indexed":true,"internalType":"address"},{"name":"approved","type":"bool","indexed":false,"internalType":"bool"}],"anonymous":false},{"type":"event","name":"ConsecutiveTransfer","inputs":[{"name":"fromTokenId","type":"uint256","indexed":true,"internalType":"uint256"},{"name":"toTokenId","type":"uint256","indexed":false,"internalType":"uint256"},{"name":"fromAddress","type":"address","indexed":true,"internalType":"address"},{"name":"toAddress","type":"address","indexed":true,"internalType":"address"}],"anonymous":false},{"type":"event","name":"Transfer","inputs":[{"name":"from","type":"address","indexed":true,"internalType":"address"},{"name":"to","type":"address","indexed":true,"internalType":"address"},{"name":"tokenId","type":"uint256","indexed":true,"internalType":"uint256"}],"anonymous":false},{"type":"error","name":"CheckpointUnorderedInsertion","inputs":[]},{"type":"error","name":"ERC721EnumerableForbiddenBatchMint","inputs":[]},{"type":"error","name":"ERC721ExceededMaxBatchMint","inputs":[{"name":"batchSize","type":"uint256","internalType":"uint256"},{"name":"maxBatch","type":"uint256","internalType":"uint256"}]},{"type":"error","name":"ERC721ForbiddenBatchBurn","inputs":[]},{"type":"error","name":"ERC721ForbiddenBatchMint","inputs":[]},{"type":"error","name":"ERC721ForbiddenMint","inputs":[]},{"type":"error","name":"ERC721IncorrectOwner","inputs":[{"name":"sender","type":"address","internalType":"address"},{"name":"tokenId","type":"uint256","internalType":"uint256"},{"name":"owner","type":"address","internalType":"address"}]},{"type":"error","name":"ERC721InsufficientApproval","inputs":[{"name":"operator","type":"address","internalType":"address"},{"name":"tokenId","type":"uint256","internalType":"uint256"}]},{"type":"error","name":"ERC721InvalidApprover","inputs":[{"name":"approver","type":"address","internalType":"address"}]},{"type":"error","name":"ERC721InvalidOperator","inputs":[{"name":"operator","type":"address","internalType":"address"}]},{"type":"error","name":"ERC721InvalidOwner","inputs":[{"name":"owner","type":"address","internalType":"address"}]},{"type":"error","name":"ERC721InvalidReceiver","inputs":[{"name":"receiver","type":"address","internalType":"address"}]},{"type":"error","name":"ERC721InvalidSender","inputs":[{"name":"sender","type":"address","internalType":"address"}]},{"type":"error","name":"ERC721NonexistentToken","inputs":[{"name":"tokenId","type":"uint256","internalType":"uint256"}]},{"type":"error","name":"ERC721OutOfBoundsIndex","inputs":[{"name":"owner","type":"address","internalType":"address"},{"name":"index","type":"uint256","internalType":"uint256"}]}],"bytecode":{"object":"0x6080604052346100f9576118b08038038061001981610155565b9283398101906080818303126100f95780516001600160401b0381116100f9578261004591830161017a565b60208201519091906001600160401b0381116100f9578361006791830161017a565b60408201516001600160401b0381116100f95782019184601f840112156100f957825161009b610096826101cb565b610155565b9360208086848152019260051b820101908782116100f957602001915b8183106100fd575050506060810151946001600160401b0386116100f9576100ea956100e492016101e2565b92610273565b604051610fe590816108cb8239f35b5f80fd5b82516001600160a01b03811681036100f9578152602092830192016100b8565b634e487b7160e01b5f52604160045260245ffd5b60408051919082016001600160401b0381118382101761015057604052565b61011d565b6040519190601f01601f191682016001600160401b0381118382101761015057604052565b81601f820112156100f9578051906001600160401b038211610150576101a9601f8301601f1916602001610155565b92828452602083830101116100f957815f9260208093018386015e8301015290565b6001600160401b0381116101505760051b60200190565b9080601f830112156100f9578151906101fd610096836101cb565b9260208085858152019360051b8201019182116100f957602001915b8183106102265750505090565b82516001600160601b03811681036100f957815260209283019201610219565b634e487b7160e01b5f52603260045260245ffd5b805182101561026e5760209160051b010190565b610246565b8051939493906001600160401b0382116101505761029a826102955f546103bd565b6103f5565b602090601f83116001146103385791806102ce926102d595945f9261032d575b50508160011b915f199060031b1c19161790565b5f55610493565b5f5b815181101561032757806103206103006102f36001948661025a565b516001600160a01b031690565b61031a61030d848961025a565b516001600160601b031690565b906105b6565b50016102d7565b50509050565b015190505f806102ba565b5f8052601f19831691907f290decd9548b62a8d60345a988386fc84ba6bc95484008f6362f93160ef3e563925f5b8181106103a557509160019391856102d59796941061038d575b505050811b015f55610493565b01515f1960f88460031b161c191690555f8080610380565b92936020600181928786015181550195019301610366565b90600182811c921680156103eb575b60208310146103d757565b634e487b7160e01b5f52602260045260245ffd5b91607f16916103cc565b601f8111610401575050565b5f805260205f20906020601f840160051c8301931061043a575b601f0160051c01905b81811061042f575050565b5f8155600101610424565b909150819061041b565b601f821161045157505050565b5f5260205f20906020601f840160051c83019310610489575b601f0160051c01905b81811061047e575050565b5f8155600101610473565b909150819061046a565b80519091906001600160401b038111610150576104bc816104b56001546103bd565b6001610444565b602092601f82116001146104f0576104eb929382915f9261032d5750508160011b915f199060031b1c19161790565b600155565b60015f52601f198216937fb10e2d527612073b26eecdfd717e6a320cf44b4afac2b0732d9fcbe2b7fa0cf6915f5b868110610554575083600195961061053c575b505050811b01600155565b01515f1960f88460031b161c191690555f8080610531565b9192602060018192868501518155019401920161051e565b634e487b7160e01b5f52601160045260245ffd5b6001600160601b03918216908216019190821161059957565b61056c565b6001600160601b039081165f19019190821161059957565b906105bf6106a7565b916001600160601b038216806105d6575b50505090565b303b610698576001600160a01b0382169283156106845761138880831161066457505f929161061061060b6106229388610580565b61059e565b9261061b868561078c565b505061088b565b6040516001600160601b039182168152908416907fdeaa91b6123d068f5821d0fb0678463d1a8a6079fe8af5de3ce5e896dcf9133d90602090a45f80806105d0565b6308f58e5760e41b5f526001600160601b0390911660045260245260445ffd5b633250574960e11b5f90815260045260245ffd5b6329cfc83160e11b5f5260045ffd5b6106af6106e1565b5090156106ce576001600160601b039081166001019081116105995790565b505f90565b5f1981019190821161059957565b600654806106f257505f905f905f90565b805f198101116105995760065f527ff652222313e28459528d920b65115c16c04f3efc82aaedc97be59f3f377c0d3e01546001916001600160601b0382169160601c90565b90815468010000000000000000811015610150576001810180845581101561026e575f9283526020928390208251929093015160601b6001600160601b0319166001600160601b039290921691909117910155565b6006549192918015610862576107a46107cd916106d3565b60065f527ff652222313e28459528d920b65115c16c04f3efc82aaedc97be59f3f377c0d3f0190565b8054606081901c92916001600160601b039182169183168083116108535786920361081c5780546001600160601b031660609290921b6001600160601b031916919091179055509190565b9190565b50506108189061083c61082d610131565b6001600160601b039092168252565b6001600160a01b03851660208201525b6006610737565b632520601d60e01b5f5260045ffd5b506108869061087261082d610131565b6001600160a01b038416602082015261084c565b5f9190565b6001600160801b0390911690816108bb576001600160a01b03165f90815260036020526040902080549091019055565b6359171fc160e01b5f5260045ffdfe60806040526004361015610011575f80fd5b5f3560e01c806301ffc9a71461011457806306fdde031461010f578063081812fc1461010a578063095ea7b31461010557806318160ddd1461010057806323b872dd146100fb5780632f745c59146100f657806342842e0e146100f15780634f6ccce7146100ec5780636352211e146100e757806370a08231146100e257806395d89b41146100dd578063a22cb465146100d8578063b88d4fde146100d3578063c87b56dd146100ce5763e985e9c5146100c9575f80fd5b6108d4565b61087f565b6107f7565b6106d2565b61061d565b6105f2565b6105c2565b61055c565b610533565b6104bd565b6104a6565b61044f565b610348565b6102e0565b6101f0565b61012f565b6001600160e01b031981160361012b57565b5f80fd5b3461012b57602036600319011261012b5760043561014c81610119565b63ffffffff60e01b1663780e9d6360e01b8114908115610175575b506040519015158152602090f35b6380ac58cd60e01b8114915081156101a7575b8115610196575b505f610167565b6301ffc9a760e01b1490505f61018f565b635b5e139f60e01b81149150610188565b805180835260209291819084018484015e5f828201840152601f01601f1916010190565b9060206101ed9281815201906101b8565b90565b3461012b575f36600319011261012b576040515f5f548060011c90600181169081156102d6575b6020831082146102c25782855260208501919081156102a95750600114610259575b61025584610249818603826107b4565b604051918291826101dc565b0390f35b5f8080529250907f290decd9548b62a8d60345a988386fc84ba6bc95484008f6362f93160ef3e5635b8184106102955750500161024982610239565b805484840152602090930192600101610282565b60ff191682525090151560051b01905061024982610239565b634e487b7160e01b5f52602260045260245ffd5b91607f1691610217565b3461012b57602036600319011261012b576004356102fd81610c75565b505f526004602052602060018060a01b0360405f205416604051908152f35b600435906001600160a01b038216820361012b57565b602435906001600160a01b038216820361012b57565b3461012b57604036600319011261012b5761036161031c565b6024359061036e82610c75565b3315158061043c575b806103fe575b6103eb576103e9926103ca9181906001600160a01b0385811691167f8c5be1e5ebec7d5bd14f71427d1e84f3dd0314c0f7b2291e5b200ac8c7c3b9255f80a45f52600460205260405f2090565b80546001600160a01b0319166001600160a01b03909216919091179055565b005b63a9fbf51f60e01b5f523360045260245ffd5b5060ff6104343361041f8460018060a01b03165f52600560205260405f2090565b9060018060a01b03165f5260205260405f2090565b54161561037d565b506001600160a01b038116331415610377565b3461012b575f36600319011261012b576020600a54604051908152f35b606090600319011261012b576004356001600160a01b038116810361012b57906024356001600160a01b038116810361012b579060443590565b3461012b576103e96104b73661046c565b91610930565b3461012b57604036600319011261012b576104d661031c565b602435906104e381610b49565b821015610516576001600160a01b03165f9081526008602090815260408083209383529281529082902054915191825290f35b63295f44f760e21b5f5260018060a01b031660045260245260445ffd5b3461012b576103e96105443661046c565b90604051926105546020856107b4565b5f8452610b7a565b3461012b57602036600319011261012b57600435600a548110156105ac57600a5f527fc65a7bb8d6351c1cf70c95a316cc6a92839c986682d98bc35f958f4883f9d2a80154604051908152602090f35b63295f44f760e21b5f525f60045260245260445ffd5b3461012b57602036600319011261012b5760206105e0600435610c75565b6040516001600160a01b039091168152f35b3461012b57602036600319011261012b57602061061561061061031c565b610b49565b604051908152f35b3461012b575f36600319011261012b576040515f6001548060011c90600181169081156106c8575b6020831082146102c25782855260208501919081156102a957506001146106765761025584610249818603826107b4565b60015f9081529250907fb10e2d527612073b26eecdfd717e6a320cf44b4afac2b0732d9fcbe2b7fa0cf65b8184106106b45750500161024982610239565b8054848401526020909301926001016106a1565b91607f1691610645565b3461012b57604036600319011261012b576106eb61031c565b602435801515810361012b57331561078d576001600160a01b03821691821561077a578161073761074892335f52600560205260405f209060018060a01b03165f5260205260405f2090565b9060ff801983541691151516179055565b604051901515815233907f17307eab39ab6107e8899845ad3d59bd9653f200f220920489ca2b5937696c3190602090a3005b82630b61174360e31b5f5260045260245ffd5b63a9fbf51f60e01b5f525f60045260245ffd5b634e487b7160e01b5f52604160045260245ffd5b90601f8019910116810190811067ffffffffffffffff8211176107d657604052565b6107a0565b67ffffffffffffffff81116107d657601f01601f191660200190565b3461012b57608036600319011261012b5761081061031c565b610818610332565b906044356064359267ffffffffffffffff841161012b573660238501121561012b57836004013592610849846107db565b9361085760405195866107b4565b808552366024828801011161012b576020815f9260246103e999018389013786010152610b7a565b3461012b57602036600319011261012b5761089b600435610c75565b505f6040516108ab6020826107b4565b526102556040516108bd6020826107b4565b5f81526040519182916020835260208301906101b8565b3461012b57604036600319011261012b57602060ff6109246108f461031c565b6108fc610332565b6001600160a01b039182165f9081526005865260408082209290931681526020919091522090565b54166040519015158152f35b9091906001600160a01b0383168015610b365761094c83610d3b565b9333151580610a90575b506001600160a01b038516918215908115610a64575b6001600160a01b0383165f908152600360205260409020600181540190556109a0836103ca885f52600260205260405f2090565b8581857fddf252ad1be2c89b69c2b068fc378daa952ba7f163c4a11628f55a4df523b3ef5f80a48180610a5b575b610a4c57859115610a36576109e282610ed5565b8303610a26575b50506001600160a01b038216036109ff57505050565b6364283d7b60e01b5f526001600160a01b039081166004526024919091521660445260645ffd5b610a2f91610f59565b5f836109e9565b8381146109e257610a478288610e52565b6109e2565b6356c4a82960e11b5f5260045ffd5b50303b156109ce565b610a6d86610d19565b6001600160a01b0387165f90815260036020526040902080545f1901905561096c565b80610ad8575b15610aa1575f610956565b836001600160a01b038616610ac257637e27328960e01b5f5260045260245ffd5b63177e802f60e01b5f523360045260245260445ffd5b506001600160a01b038516338114908115610b13575b5080610a9657505f848152600460205260409020546001600160a01b03163314610a96565b5f90815260056020908152604080832033845290915281205460ff169150610aee565b633250574960e11b5f525f60045260245ffd5b6001600160a01b03168015610b67575f52600360205260405f205490565b6322718ad960e21b5f525f60045260245ffd5b909291610b88818584610930565b833b610b95575b50505050565b602091610bb76040519485938493630a85bd0160e11b85523360048601610cb9565b03815f6001600160a01b0387165af15f9181610c44575b50610c085750610bdc610cea565b8051919082610c0157633250574960e11b5f526001600160a01b03821660045260245ffd5b6020915001fd5b6001600160e01b03191663757a42ff60e11b01610c2957505f808080610b8f565b633250574960e11b5f526001600160a01b031660045260245ffd5b610c6791925060203d602011610c6e575b610c5f81836107b4565b810190610ca4565b905f610bce565b503d610c55565b610c7e81610d3b565b906001600160a01b03821615610c92575090565b637e27328960e01b5f5260045260245ffd5b9081602091031261012b57516101ed81610119565b6001600160a01b0391821681529116602082015260408101919091526080606082018190526101ed929101906101b8565b3d15610d14573d90610cfb826107db565b91610d0960405193846107b4565b82523d5f602084013e565b606090565b610d2b905f52600460205260405f2090565b80546001600160a01b0319169055565b5f818152600260205260409020546001600160a01b03168015801590610e42575b8015610e3b575b610e365750610d898160ff6001918060081c5f526007602052161b60405f205416151590565b15610d9357505f90565b6001600160601b03166006549081905f5b838110610df85750508103610dc557506101ed5f5b6001600160a01b031690565b60065f527ff652222313e28459528d920b65115c16c04f3efc82aaedc97be59f3f377c0d3f01546101ed9060601c610db9565b83811860011c848216019060065f52826001600160601b038360205f20015416105f14610e2e5750610e2990610fa1565b610da4565b935092610da4565b905090565b505f610d63565b506001600160601b038211610d5c565b5f91610ea791610e6181610b49565b91808552600960205260408520549160018060a01b0316855260086020526040852091838103610eaa575b5084526009602052836040812055905f5260205260405f2090565b55565b838652826020526040862054818752836020528060408820558652600960205260408620555f610e8c565b600a54815f52600b6020528060405f2055680100000000000000008110156107d65760018101600a55600a54811015610f3157600a5f527fc65a7bb8d6351c1cf70c95a316cc6a92839c986682d98bc35f958f4883f9d2a80155565b634e487b7160e01b5f52603260045260245ffd5b634e487b7160e01b5f52601160045260245ffd5b90610f6382610b49565b5f19810192908311610f9c5760018060a01b03165f52600860205260405f20825f526020528060405f20555f52600960205260405f2055565b610f45565b9060018201809211610f9c5756fea2646970667358221220de45bbcc380113dc02df539642f6cd8bcb795f2df983931cf0e9171a78cf5ddc64736f6c634300081e0033","linkReferences":{}},"methodIdentifiers":{"approve(address,uint256)":"095ea7b3","balanceOf(address)":"70a08231","getApproved(uint256)":"081812fc","isApprovedForAll(address,address)":"e985e9c5","name()":"06fdde03","ownerOf(uint256)":"6352211e","safeTransferFrom(address,address,uint256)":"42842e0e","safeTransferFrom(address,address,uint256,bytes)":"b88d4fde","setApprovalForAll(address,bool)":"a22cb465","supportsInterface(bytes4)":"01ffc9a7","symbol()":"95d89b41","tokenByIndex(uint256)":"4f6ccce7","tokenOfOwnerByIndex(address,uint256)":"2f745c59","tokenURI(uint256)":"c87b56dd","totalSupply()":"18160ddd","transferFrom(address,address,uint256)":"23b872dd"},"id":210}