{"abi":[{"type":"constructor","inputs":[{"name":"array","type":"bytes[]","internalType":"bytes[]"}],"stateMutability":"nonpayable"},{"type":"function","name":"length","inputs":[],"outputs":[{"name":"","type":"uint256","internalType":"uint256"}],"stateMutability":"view"},{"type":"function","name":"unsafeAccess","inputs":[{"name":"pos","type":"uint256","internalType":"uint256"}],"outputs":[{"name":"","type":"bytes","internalType":"bytes"}],"stateMutability":"view"},{"type":"function","name":"unsafeSetLength","inputs":[{"name":"newLength","type":"uint256","internalType":"uint256"}],"outputs":[],"stateMutability":"nonpayable"}],"bytecode":{"object":"0x6080604052346102f25761057b80380380610019816102f6565b9283398101906020818303126102f2578051906001600160401b0382116102f257019080601f830112156102f2578151906001600160401b0382116101ec578160051b92602061006a8186016102f6565b809481520160208195830101918383116102f25760208101915b838310610281578551876801000000000000000082116101ec575f54825f55808310610200575b505f8080525f51602061055b5f395f51905f5292915b8282106100d7576040516101f1908161036a8239f35b80518051906001600160401b0382116101ec576100f4865461031b565b601f81116101b1575b50602090601f83116001146101485792826001949360209386955f9261013d575b50505f19600383901b1c191690841b1787555b019401910190926100c1565b01519050898061011e565b90601f19831691875f52815f20925f5b8181106101995750936020936001969387969383889510610181575b505050811b018755610131565b01515f1960f88460031b161c19169055898080610174565b92936020600181928786015181550195019301610158565b6101dc90875f5260205f20601f850160051c810191602086106101e2575b601f0160051c0190610353565b866100fd565b90915081906101cf565b634e487b7160e01b5f52604160045260245ffd5b5f80525f51602061055b5f395f51905f529081019083015b81811061022557506100ab565b806102326001925461031b565b8061023f575b5001610218565b601f8111831461025457505f81555b85610238565b61027090825f5283601f60205f20920160051c82019101610353565b805f525f602081208183555561024e565b82516001600160401b0381116102f257820185603f820112156102f2576020810151916001600160401b0383116101ec576102c5601f8401601f19166020016102f6565b83815260408385010188106102f2575f602085819660408397018386015e83010152815201920191610084565b5f80fd5b6040519190601f01601f191682016001600160401b038111838210176101ec57604052565b90600182811c92168015610349575b602083101461033557565b634e487b7160e01b5f52602260045260245ffd5b91607f169161032a565b81811061035e575050565b5f815560010161035356fe6080806040526004361015610012575f80fd5b5f3560e01c9081631f7b6d32146101a25750806340aa934d146100595763e9fdbeba1461003d575f80fd5b34610055576020366003190112610055576004355f55005b5f80fd5b34610055576020366003190112610055575f80526004357f290decd9548b62a8d60345a988386fc84ba6bc95484008f6362f93160ef3e56301604051905f8154918260011c9060018416938415610198575b6020831085146101845782865260208601949081156101695750600114610131575b5050829003601f01601f191682019167ffffffffffffffff83118184101761011d576040918391828452602083525180918160208501528484015e5f828201840152601f01601f19168101030190f35b634e487b7160e01b5f52604160045260245ffd5b9091505f5260205f205f905b82821061015357506020915083010183806100cd565b600181602092548385890101520191019061013d565b60ff191685525050151560051b8301602001905083806100cd565b634e487b7160e01b5f52602260045260245ffd5b91607f16916100ab565b34610055575f366003190112610055576020905f548152f3fea2646970667358221220bc9d5ea94fcc4de831e6c4f9ee2ed1ff72673fcd5972f030ed50228f672480f464736f6c634300081e0033290decd9548b62a8d60345a988386fc84ba6bc95484008f6362f93160ef3e563","linkReferences":{}},"methodIdentifiers":{"length()":"1f7b6d32","unsafeAccess(uint256)":"40aa934d","unsafeSetLength(uint256)":"e9fdbeba"},"id":104}