{"abi":[{"type":"constructor","inputs":[{"name":"array","type":"uint256[]","internalType":"uint256[]"}],"stateMutability":"nonpayable"},{"type":"function","name":"findUpperBound","inputs":[{"name":"value","type":"uint256","internalType":"uint256"}],"outputs":[{"name":"","type":"uint256","internalType":"uint256"}],"stateMutability":"view"},{"type":"function","name":"length","inputs":[],"outputs":[{"name":"","type":"uint256","internalType":"uint256"}],"stateMutability":"view"},{"type":"function","name":"lowerBound","inputs":[{"name":"value","type":"uint256","internalType":"uint256"}],"outputs":[{"name":"","type":"uint256","internalType":"uint256"}],"stateMutability":"view"},{"type":"function","name":"lowerBoundMemory","inputs":[{"name":"array","type":"uint256[]","internalType":"uint256[]"},{"name":"value","type":"uint256","internalType":"uint256"}],"outputs":[{"name":"","type":"uint256","internalType":"uint256"}],"stateMutability":"pure"},{"type":"function","name":"sort","inputs":[{"name":"array","type":"uint256[]","internalType":"uint256[]"}],"outputs":[{"name":"","type":"uint256[]","internalType":"uint256[]"}],"stateMutability":"pure"},{"type":"function","name":"sortReverse","inputs":[{"name":"array","type":"uint256[]","internalType":"uint256[]"}],"outputs":[{"name":"","type":"uint256[]","internalType":"uint256[]"}],"stateMutability":"pure"},{"type":"function","name":"unsafeAccess","inputs":[{"name":"pos","type":"uint256","internalType":"uint256"}],"outputs":[{"name":"","type":"uint256","internalType":"uint256"}],"stateMutability":"view"},{"type":"function","name":"unsafeSetLength","inputs":[{"name":"newLength","type":"uint256","internalType":"uint256"}],"outputs":[],"stateMutability":"nonpayable"},{"type":"function","name":"upperBound","inputs":[{"name":"value","type":"uint256","internalType":"uint256"}],"outputs":[{"name":"","type":"uint256","internalType":"uint256"}],"stateMutability":"view"},{"type":"function","name":"upperBoundMemory","inputs":[{"name":"array","type":"uint256[]","internalType":"uint256[]"},{"name":"value","type":"uint256","internalType":"uint256"}],"outputs":[{"name":"","type":"uint256","internalType":"uint256"}],"stateMutability":"pure"}],"bytecode":{"object":"0x608060405234610151576107fd8038038061001981610155565b928339810190602081830312610151578051906001600160401b03821161015157019080601f83011215610151578151906001600160401b03821161012d578160051b92602061006a818601610155565b8094815201906020829582010192831161015157602001905b82821061014157505090519190506001600160401b03821161012d5768010000000000000000821161012d575f54825f558083106100fd575b505f8080525f5160206107dd5f395f51905f529291905b8281106100e957604051610662908161017b8239f35b6001906020835193019281860155016100d3565b5f80525f5160206107dd5f395f51905f529081019083015b81811061012257506100bc565b5f8155600101610115565b634e487b7160e01b5f52604160045260245ffd5b8151815260209182019101610083565b5f80fd5b6040519190601f01601f191682016001600160401b0381118382101761012d5760405256fe60806040526004361015610011575f80fd5b5f3560e01c8063054615f6146100b45780631f7b6d32146100af578063206ce879146100aa578063233c1d6a146100a557806333e3a58a146100a057806340aa934d1461009b57806374380a78146100965780639ec8b02614610091578063e9fdbeba1461008c5763ed44001714610087575f80fd5b610338565b610320565b6102f9565b6102db565b610297565b610279565b61025b565b610222565b61019f565b346100d55760206100cd6100c73661016d565b90610351565b604051908152f35b5f80fd5b634e487b7160e01b5f52604160045260245ffd5b9080601f830112156100d55781359167ffffffffffffffff8311610168578260051b9060405193601f19603f840116850185811067ffffffffffffffff8211176101685760405284526020808501928201019283116100d557602001905b8282106101585750505090565b813581526020918201910161014b565b6100d9565b60406003198201126100d5576004359067ffffffffffffffff82116100d557610198916004016100ed565b9060243590565b346100d5575f3660031901126100d55760205f54604051908152f35b60206003198201126100d5576004359067ffffffffffffffff82116100d5576101e6916004016100ed565b90565b60206040818301928281528451809452019201905f5b81811061020c5750505090565b82518452602093840193909201916001016101ff565b346100d557610257610233366101bb565b61024b60016020835160051b8401016020840161058a565b604051918291826101e9565b0390f35b346100d55760203660031901126100d55760206100cd6004356103bf565b346100d55760203660031901126100d55760206100cd600435610440565b346100d55760203660031901126100d55760206004355f80527f290decd9548b62a8d60345a988386fc84ba6bc95484008f6362f93160ef3e5630154604051908152f35b346100d55760203660031901126100d55760206100cd6004356104fa565b346100d55761025761030a366101bb565b610313816103a7565b50604051918291826101e9565b346100d55760203660031901126100d5576004355f55005b346100d55760206100cd61034b3661016d565b90610544565b5f918151801561039f5791905b82841061036b5750505090565b90919283811860011c84821601908260208360051b86010151105f146103985750600101925b919061035e565b9350610391565b505050505f90565b6101e660026020835160051b8401016020840161058a565b5f905f548015610404575b8083106103d657505090565b80831860011c81841601905f8052828260205f200154115f146103f957506103ca565b9250600101916103ca565b5050505f90565b634e487b7160e01b5f52601160045260245ffd5b906001820180921161042d57565b61040b565b5f1981019190821161042d57565b5f905f548015610404575b8083106104aa5750811515908161046c575b50156101e6576101e690610432565b90506104a261047a83610432565b5f80527f290decd9548b62a8d60345a988386fc84ba6bc95484008f6362f93160ef3e5630190565b54145f61045d565b5f805282811683821860011c019082827f290decd9548b62a8d60345a988386fc84ba6bc95484008f6362f93160ef3e563015411156104e9575061044b565b92506104f49061041f565b9161044b565b5f905f54801561040457905b81831061051257505090565b909182811860011c83821601905f8052828260205f200154105f1461053d5750600101915b90610506565b9250610537565b5f918151801561039f575b80841061055c5750505090565b80841860011c81851601908260208360051b86010151115f1461057f575061054f565b93506001019261054f565b91906040838203106106275782519282818095602084015b8581106105ca57505082518151845281526105bc9261058a565b60206105c8930161058a565b565b91509150805185838160011461061e57506002146105f657634e487b7160e01b5f52605160045260245ffd5b82115b61060a575b602001849186916105a2565b6020958601805182518252825295506105fe565b919050116105f9565b50505056fea2646970667358221220c550f3cb9006e8c57c1a1204be2c46179631fa920baabca6d813c4e3e14bd98e64736f6c634300081e0033290decd9548b62a8d60345a988386fc84ba6bc95484008f6362f93160ef3e563","linkReferences":{}},"methodIdentifiers":{"findUpperBound(uint256)":"33e3a58a","length()":"1f7b6d32","lowerBound(uint256)":"74380a78","lowerBoundMemory(uint256[],uint256)":"054615f6","sort(uint256[])":"9ec8b026","sortReverse(uint256[])":"206ce879","unsafeAccess(uint256)":"40aa934d","unsafeSetLength(uint256)":"e9fdbeba","upperBound(uint256)":"233c1d6a","upperBoundMemory(uint256[],uint256)":"ed440017"},"id":104}