{"abi":[{"type":"constructor","inputs":[{"name":"trustedForwarder_","type":"address","internalType":"address"}],"stateMutability":"nonpayable"},{"type":"function","name":"isTrustedForwarder","inputs":[{"name":"forwarder","type":"address","internalType":"address"}],"outputs":[{"name":"","type":"bool","internalType":"bool"}],"stateMutability":"view"},{"type":"function","name":"mockFunction","inputs":[],"outputs":[{"name":"","type":"string","internalType":"string"}],"stateMutability":"payable"},{"type":"function","name":"mockFunctionEmptyReturn","inputs":[],"outputs":[],"stateMutability":"payable"},{"type":"function","name":"mockFunctionEmptyReturnWritesStorage","inputs":[{"name":"slot","type":"bytes32","internalType":"bytes32"},{"name":"value","type":"bytes32","internalType":"bytes32"}],"outputs":[],"stateMutability":"payable"},{"type":"function","name":"mockFunctionExtra","inputs":[],"outputs":[{"name":"","type":"address","internalType":"address"},{"name":"","type":"uint256","internalType":"uint256"}],"stateMutability":"payable"},{"type":"function","name":"mockFunctionNonPayable","inputs":[],"outputs":[{"name":"","type":"string","internalType":"string"}],"stateMutability":"nonpayable"},{"type":"function","name":"mockFunctionOutOfGas","inputs":[],"outputs":[],"stateMutability":"payable"},{"type":"function","name":"mockFunctionRevertsNoReason","inputs":[],"outputs":[],"stateMutability":"payable"},{"type":"function","name":"mockFunctionRevertsReason","inputs":[],"outputs":[],"stateMutability":"payable"},{"type":"function","name":"mockFunctionThrows","inputs":[],"outputs":[],"stateMutability":"payable"},{"type":"function","name":"mockFunctionWithArgs","inputs":[{"name":"a","type":"uint256","internalType":"uint256"},{"name":"b","type":"uint256","internalType":"uint256"}],"outputs":[{"name":"","type":"string","internalType":"string"}],"stateMutability":"payable"},{"type":"function","name":"mockFunctionWithArgsReturn","inputs":[{"name":"a","type":"uint256","internalType":"uint256"},{"name":"b","type":"uint256","internalType":"uint256"}],"outputs":[{"name":"","type":"uint256","internalType":"uint256"},{"name":"","type":"uint256","internalType":"uint256"}],"stateMutability":"payable"},{"type":"function","name":"mockFunctionWithArgsReturnWritesStorage","inputs":[{"name":"slot","type":"bytes32","internalType":"bytes32"},{"name":"value","type":"bytes32","internalType":"bytes32"},{"name":"a","type":"uint256","internalType":"uint256"},{"name":"b","type":"uint256","internalType":"uint256"}],"outputs":[{"name":"","type":"uint256","internalType":"uint256"},{"name":"","type":"uint256","internalType":"uint256"}],"stateMutability":"payable"},{"type":"function","name":"mockFunctionWritesStorage","inputs":[{"name":"slot","type":"bytes32","internalType":"bytes32"},{"name":"value","type":"bytes32","internalType":"bytes32"}],"outputs":[{"name":"","type":"string","internalType":"string"}],"stateMutability":"nonpayable"},{"type":"function","name":"mockStaticFunction","inputs":[],"outputs":[{"name":"","type":"string","internalType":"string"}],"stateMutability":"pure"},{"type":"function","name":"mockStaticFunctionWithArgsReturn","inputs":[{"name":"a","type":"uint256","internalType":"uint256"},{"name":"b","type":"uint256","internalType":"uint256"}],"outputs":[{"name":"","type":"uint256","internalType":"uint256"},{"name":"","type":"uint256","internalType":"uint256"}],"stateMutability":"pure"},{"type":"event","name":"MockFunctionCalled","inputs":[],"anonymous":false},{"type":"event","name":"MockFunctionCalledExtra","inputs":[{"name":"caller","type":"address","indexed":false,"internalType":"address"},{"name":"value","type":"uint256","indexed":false,"internalType":"uint256"}],"anonymous":false},{"type":"event","name":"MockFunctionCalledWithArgs","inputs":[{"name":"a","type":"uint256","indexed":false,"internalType":"uint256"},{"name":"b","type":"uint256","indexed":false,"internalType":"uint256"}],"anonymous":false}],"bytecode":{"object":"0x608034607057601f61058238819003918201601f19168301916001600160401b03831184841017607457808492602094604052833981010312607057516001600160a01b03811690819003607057600180546001600160a01b0319169190911790556040516104f990816100898239f35b5f80fd5b634e487b7160e01b5f52604160045260245ffdfe6080806040526004361015610012575f80fd5b5f3560e01c9081630c034968146103e3575080630f63e42c146103b75780632c81d6381461015757806334edaa6d1461039b5780633bcfaa141461037c5780633e6fec0414610355578063425397a21461033a57806343c8d218146102ef5780634f1d61d2146102aa578063572b6c051461026d578063a09a84bb14610218578063a793ab4714610179578063c292d81c1461015b578063c8fc76961461013c578063f4c6005f1461011e5763fdb27325146100cc575f80fd5b7f2b42b3c9af4187c86225f201736204c7597312c830cb5c2537dff6ef24b946ae60406100f83661045a565b82519182526020820152a161011a61010e610470565b60405191829182610430565b0390f35b6101273661045a565b90555f5160206104a45f395f51905f525f80a1005b34610157575f3660031901126101575761011a61010e610470565b5f80fd5b5f366003190112610157575f5160206104a45f395f51905f525f80a1005b5f366003190112610157575f5b5f54680100000000000000008110156102045760018101805f558110156101f0577f290decd9548b62a8d60345a988386fc84ba6bc95484008f6362f93160ef3e563018190555f1981146101dc57600101610186565b634e487b7160e01b5f52601160045260245ffd5b634e487b7160e01b5f52603260045260245ffd5b634e487b7160e01b5f52604160045260245ffd5b6080366003190112610157576040604435606435602435600435557f2b42b3c9af4187c86225f201736204c7597312c830cb5c2537dff6ef24b946ae838051848152836020820152a182519182526020820152f35b34610157576020366003190112610157576004356001600160a01b038116908190036101575760209060018060a01b036001541614604051908152f35b60406102b53661045a565b7f2b42b3c9af4187c86225f201736204c7597312c830cb5c2537dff6ef24b946ae838051848152836020820152a182519182526020820152f35b5f36600319011261015757604080513381523460208201527fffa33d28bf6be9e1816e7ffd5fd5a09754144c76f7c08b5325dd3f6ef2c288f69190a160408051338152346020820152f35b34610157576103483661045a565b905561011a61010e610470565b5f366003190112610157575f5160206104a45f395f51905f525f80a161011a61010e610470565b5f36600319011261015757634e487b7160e01b5f52600160045260245ffd5b346101575760406103ab3661045a565b82519182526020820152f35b34610157575f366003190112610157575f5160206104a45f395f51905f525f80a161011a61010e610470565b5f3660031901126101575762461bcd60e51b815260206004820152601b60248201527f43616c6c52656365697665724d6f636b3a20726576657274696e6700000000006044820152606490fd5b602060409281835280519182918282860152018484015e5f828201840152601f01601f1916010190565b6040906003190112610157576004359060243590565b604051906040820182811067ffffffffffffffff8211176102045760405260068252650c1e0c4c8ccd60d21b602083015256fe52c66ed6ec9ca819cba26fe2b2650059270d8981b295af300187a964f54a8c23a2646970667358221220a97d4df4fce3fad1e88c0492ec3202f56f218060b8ce55d325ba99572ee8f99864736f6c634300081e0033","linkReferences":{}},"methodIdentifiers":{"isTrustedForwarder(address)":"572b6c05","mockFunction()":"3e6fec04","mockFunctionEmptyReturn()":"c292d81c","mockFunctionEmptyReturnWritesStorage(bytes32,bytes32)":"f4c6005f","mockFunctionExtra()":"43c8d218","mockFunctionNonPayable()":"0f63e42c","mockFunctionOutOfGas()":"a793ab47","mockFunctionRevertsNoReason()":"2c81d638","mockFunctionRevertsReason()":"0c034968","mockFunctionThrows()":"3bcfaa14","mockFunctionWithArgs(uint256,uint256)":"fdb27325","mockFunctionWithArgsReturn(uint256,uint256)":"4f1d61d2","mockFunctionWithArgsReturnWritesStorage(bytes32,bytes32,uint256,uint256)":"a09a84bb","mockFunctionWritesStorage(bytes32,bytes32)":"425397a2","mockStaticFunction()":"c8fc7696","mockStaticFunctionWithArgsReturn(uint256,uint256)":"34edaa6d"},"id":108}