{"abi":[{"type":"constructor","inputs":[{"name":"trustedForwarder","type":"address","internalType":"address"}],"stateMutability":"nonpayable"},{"type":"function","name":"isTrustedForwarder","inputs":[{"name":"forwarder","type":"address","internalType":"address"}],"outputs":[{"name":"","type":"bool","internalType":"bool"}],"stateMutability":"view"},{"type":"function","name":"msgData","inputs":[{"name":"integerValue","type":"uint256","internalType":"uint256"},{"name":"stringValue","type":"string","internalType":"string"}],"outputs":[],"stateMutability":"nonpayable"},{"type":"function","name":"msgDataShort","inputs":[],"outputs":[],"stateMutability":"nonpayable"},{"type":"function","name":"msgSender","inputs":[],"outputs":[],"stateMutability":"nonpayable"},{"type":"function","name":"multicall","inputs":[{"name":"data","type":"bytes[]","internalType":"bytes[]"}],"outputs":[{"name":"results","type":"bytes[]","internalType":"bytes[]"}],"stateMutability":"nonpayable"},{"type":"function","name":"trustedForwarder","inputs":[],"outputs":[{"name":"","type":"address","internalType":"address"}],"stateMutability":"view"},{"type":"event","name":"Data","inputs":[{"name":"data","type":"bytes","indexed":false,"internalType":"bytes"},{"name":"integerValue","type":"uint256","indexed":false,"internalType":"uint256"},{"name":"stringValue","type":"string","indexed":false,"internalType":"string"}],"anonymous":false},{"type":"event","name":"DataShort","inputs":[{"name":"data","type":"bytes","indexed":false,"internalType":"bytes"}],"anonymous":false},{"type":"event","name":"Sender","inputs":[{"name":"sender","type":"address","indexed":false,"internalType":"address"}],"anonymous":false},{"type":"error","name":"AddressEmptyCode","inputs":[{"name":"target","type":"address","internalType":"address"}]},{"type":"error","name":"FailedCall","inputs":[]}],"bytecode":{"object":"0x60a0346100bb57601f6107d438819003918201601f19168301916001600160401b038311848410176100bf578084926020946040528339810103126100bb57516001600160a01b03811681036100bb576080527fd6558c3ed910d959271054471fd1c326679d9fece99c5091b00ed89627cf2bfc602061007d6100d3565b6040516001600160a01b039091168152a16040516106c5908161010f8239608051818181610326015281816103800152818161060801526106610152f35b5f80fd5b634e487b7160e01b5f52604160045260245ffd5b6014361015806100fa575b156100f65760131936013681116100bb573560601c90565b3390565b506080516001600160a01b031633146100de56fe60806040526004361015610011575f80fd5b5f3560e01c8063376bf262146103b2578063572b6c05146103555780637da0a87714610311578063ac9650d814610102578063d737d0c7146100b45763ff5f6b591461005b575f80fd5b346100b0575f3660031901126100b0577f6d7cec71eba467294d92341ddc4e8634eb4d742a90e16f408f06e4b70bc4cd666100946105dc565b6100ab6040519283926020845260208401916104f0565b0390a1005b5f80fd5b346100b0575f3660031901126100b0577fd6558c3ed910d959271054471fd1c326679d9fece99c5091b00ed89627cf2bfc60206100ef610636565b6040516001600160a01b039091168152a1005b346100b05760203660031901126100b05760043567ffffffffffffffff81116100b057366023820112156100b05780600401359067ffffffffffffffff82116100b0573660248360051b830101116100b0576001600160a01b03610164610636565b1633145f146102dc5760405161017b602082610450565b5f8082523660208301379190915b61019282610510565b926101a06040519485610450565b828452601f196101af84610510565b015f5b8181106102c95750503681900360421901905f5b848110156102625760248160051b83010135838112156100b05782019060248201359167ffffffffffffffff83116100b05760440182360381136100b05782610240610246926020806001976040519586948386013783018b8282015f8152815193849201905e01015f815203601f198101835282610450565b30610550565b6102508289610528565b5261025b8188610528565b50016101c6565b856040518091602082016020835281518091526040830190602060408260051b8601019301915f905b82821061029a57505050500390f35b919360019193955060206102b98192603f198a820301865288516104cc565b960192019201859493919261028b565b60606020828801810191909152016101b2565b60131936013681116102fd576102f59060143691610486565b919091610189565b634e487b7160e01b5f52601160045260245ffd5b346100b0575f3660031901126100b0576040517f00000000000000000000000000000000000000000000000000000000000000006001600160a01b03168152602090f35b346100b05760203660031901126100b0576004356001600160a01b038116908190036100b0576040517f00000000000000000000000000000000000000000000000000000000000000006001600160a01b03169091148152602090f35b346100b05760403660031901126100b05760243567ffffffffffffffff81116100b057366023820112156100b0576104157faf235354a0a47c91ee171961326335cb2d1a8e55b8a89859b0e61eb049e50ea0913690602481600401359101610486565b6100ab6104206105dc565b91909261043a6040519485946060865260608601916104f0565b90600435602085015283820360408501526104cc565b90601f8019910116810190811067ffffffffffffffff82111761047257604052565b634e487b7160e01b5f52604160045260245ffd5b92919267ffffffffffffffff821161047257604051916104b0601f8201601f191660200184610450565b8294818452818301116100b0578281602093845f960137010152565b805180835260209291819084018484015e5f828201840152601f01601f1916010190565b908060209392818452848401375f828201840152601f01601f1916010190565b67ffffffffffffffff81116104725760051b60200190565b805182101561053c5760209160051b010190565b634e487b7160e01b5f52603260045260245ffd5b905f8091602081519101845af480806105c9575b156105845750506040513d81523d5f602083013e60203d82010160405290565b156105a957639996b31560e01b5f9081526001600160a01b0391909116600452602490fd5b3d156105ba576040513d5f823e3d90fd5b63d6bda27560e01b5f5260045ffd5b503d1515806105645750813b1515610564565b601436101580610604575b156105fe576013193601903682116100b0575f9190565b5f903690565b50337f00000000000000000000000000000000000000000000000000000000000000006001600160a01b0316146105e7565b60143610158061065d575b156106595760131936013681116100b0573560601c90565b3390565b50337f00000000000000000000000000000000000000000000000000000000000000006001600160a01b03161461064156fea26469706673582212200e38d2b9622c1ce8720bf4067adb5881a420a5d9b9d4c316c08f8623e5361d3564736f6c634300081e0033","linkReferences":{}},"methodIdentifiers":{"isTrustedForwarder(address)":"572b6c05","msgData(uint256,string)":"376bf262","msgDataShort()":"ff5f6b59","msgSender()":"d737d0c7","multicall(bytes[])":"ac9650d8","trustedForwarder()":"7da0a877"},"id":115}