{"abi":[{"type":"constructor","inputs":[{"name":"initialGateway","type":"address","internalType":"address"},{"name":"initialController","type":"bytes","internalType":"bytes"}],"stateMutability":"nonpayable"},{"type":"function","name":"controller","inputs":[],"outputs":[{"name":"","type":"bytes","internalType":"bytes"}],"stateMutability":"view"},{"type":"function","name":"gateway","inputs":[],"outputs":[{"name":"","type":"address","internalType":"address"}],"stateMutability":"view"},{"type":"function","name":"receiveMessage","inputs":[{"name":"receiveId","type":"bytes32","internalType":"bytes32"},{"name":"sender","type":"bytes","internalType":"bytes"},{"name":"payload","type":"bytes","internalType":"bytes"}],"outputs":[{"name":"","type":"bytes4","internalType":"bytes4"}],"stateMutability":"payable"},{"type":"function","name":"reconfigure","inputs":[{"name":"newGateway","type":"address","internalType":"address"},{"name":"newController","type":"bytes","internalType":"bytes"}],"outputs":[],"stateMutability":"nonpayable"},{"type":"event","name":"CrosschainControllerSet","inputs":[{"name":"gateway","type":"address","indexed":false,"internalType":"address"},{"name":"controller","type":"bytes","indexed":false,"internalType":"bytes"}],"anonymous":false},{"type":"event","name":"ERC7579TryExecuteFail","inputs":[{"name":"batchExecutionIndex","type":"uint256","indexed":false,"internalType":"uint256"},{"name":"returndata","type":"bytes","indexed":false,"internalType":"bytes"}],"anonymous":false},{"type":"error","name":"AccessRestricted","inputs":[]},{"type":"error","name":"ERC7579DecodingError","inputs":[]},{"type":"error","name":"ERC7579UnsupportedCallType","inputs":[{"name":"callType","type":"bytes1","internalType":"CallType"}]},{"type":"error","name":"ERC7579UnsupportedExecType","inputs":[{"name":"execType","type":"bytes1","internalType":"ExecType"}]},{"type":"error","name":"ERC7786RecipientUnauthorizedGateway","inputs":[{"name":"gateway","type":"address","internalType":"address"},{"name":"sender","type":"bytes","internalType":"bytes"}]},{"type":"error","name":"FailedCall","inputs":[]},{"type":"error","name":"OutOfRangeAccess","inputs":[]}],"bytecode":{"object":"0x608080604052346102d557610e88803803809161001c82856102ec565b83398101906040818303126102d55780516001600160a01b03811691908290036102d5576020810151906001600160401b0382116102d557019082601f830112156102d55781516001600160401b0381116102955760405192610089601f8301601f1916602001856102ec565b8184526020840194602083830101116102d557815f926020809301875e8401015260405163dc680a0f60e01b81525f6004820152602081602481855afa80156102e1576102a9575b505f80546001600160a01b031916821790558151926001600160401b03841161029557600154600181811c9116801561028b575b602082101461027757601f8111610214575b50602093601f81116001146101a0579081606093925f516020610e685f395f51905f52965f91610195575b508160011b915f199060031b1c1916176001555b6040519384928352604060208401525180918160408501528484015e5f828201840152601f01601f19168101030190a1604051610b5890816103108239f35b90508501515f610142565b601f1981169460015f52805f20955f5b8181106101fc5750915f516020610e685f395f51905f5296600192826060979695106101e4575b5050811b01600155610156565b8701515f1960f88460031b161c191690555f806101d7565b868301518855600190970196602092830192016101b0565b60015f527fb10e2d527612073b26eecdfd717e6a320cf44b4afac2b0732d9fcbe2b7fa0cf6601f860160051c8101916020871061026d575b601f0160051c01905b8181106102625750610117565b5f8155600101610255565b909150819061024c565b634e487b7160e01b5f52602260045260245ffd5b90607f1690610105565b634e487b7160e01b5f52604160045260245ffd5b6020813d6020116102d9575b816102c2602093836102ec565b810103126102d5575180151581146100d1575b5f80fd5b3d91506102b5565b6040513d5f823e3d90fd5b601f909101601f19168101906001600160401b038211908210176102955760405256fe6080806040526004361015610012575f80fd5b5f3560e01c908163116191b614610772575080632432ef2614610310578063362ad6c01461007f5763f77c479114610048575f80fd5b3461007b575f36600319011261007b57610077610063610892565b604051918291602083526020830190610836565b0390f35b5f80fd5b3461007b57604036600319011261007b576004356001600160a01b0381169081900361007b5760243567ffffffffffffffff811161007b573660238201121561007b576100d6903690602481600401359101610800565b3033036103015760405163dc680a0f60e01b81525f6004820152602081602481865afa80156102f6576102bf575b505f80546001600160a01b0319168317905580519167ffffffffffffffff83116102ab5761013360015461085a565b601f8111610243575b506020601f84116001146101b55792807f0cff5007efcafd99cdeb44bb49f05a247d4147bd8c51588a483d7598b782bd05945f916101aa575b508160011b915f199060031b1c1916176001555b6101a56040519283928352604060208401526040830190610836565b0390a1005b905083015185610175565b601f1984169060015f525f516020610b035f395f51905f52915f5b81811061022b57509185917f0cff5007efcafd99cdeb44bb49f05a247d4147bd8c51588a483d7598b782bd059660019410610213575b5050811b01600155610189565b8501515f1960f88460031b161c191690558580610206565b919260206001819286890151815501940192016101d0565b60015f52601f840160051c5f516020610b035f395f51905f52019060208510610296575b601f0160051c5f516020610b035f395f51905f5201905b81811061028b575061013c565b5f815560010161027e565b5f516020610b035f395f51905f529150610267565b634e487b7160e01b5f52604160045260245ffd5b6020813d6020116102ee575b816102d8602093836107c2565b8101031261007b57518015158114610104575f80fd5b3d91506102cb565b6040513d5f823e3d90fd5b63c240bad360e01b5f5260045ffd5b606036600319011261007b5760243567ffffffffffffffff811161007b5761033c903690600401610794565b60443567ffffffffffffffff811161007b5761035c903690600401610794565b5f5491939092916001600160a01b0316331480610730575b156106f05750508060201161007b57601f198101906001600160f81b03198335600881901b821691602086019116806104385750836103b2916109df565b60601c9260341161007b575f8061041e9561040f9460348201356103d461094e565b9780158514610432575030925b60405192839160531982019060540183376053199082010185815203925af1610408610a1f565b915f610a4e565b61041882610988565b52610988565b505b604051631219779360e11b8152602090f35b926103e1565b92949192600160f81b81036105dc5750602084106105b8578360201161007b573592603f19850184116105b8576020840180851161007b571161007b5760208382010192602093359467ffffffffffffffff86119081156105c7575b506105b85701604001916104a784610936565b6104b460405191826107c2565b848152601f196104c386610936565b01825f5b8281106105a8575050505f5b8581106104e557505050505050610420565b6104f08187876109bd565b356001600160a01b038116919082810361007b5784610510838a8a6109bd565b01359061051e838a8a6109bd565b604081013590601e198136030182121561007b57019384359467ffffffffffffffff861161007b578701853603811361007b57600195610586945f9485946105a2575030925b826040519384928337810185815203925af161057e610a1f565b908784610a4e565b61059082856109a9565b5261059b81846109a9565b50016104d3565b92610564565b60608282860101520183906104c7565b63eb0bcc5d60e01b5f5260045ffd5b90508560051b9082603f199103011086610494565b9294926001600160f81b031981036106de5750836105f9916109df565b60601c9260141161007b575f91829161061061094e565b94801584146106d8575030915b60405191603319820190603401833781018360331982015281603319910301915af491610648610a1f565b908061066c575061065c8161066694610adc565b5061041882610988565b50610420565b92600160f81b84036106c557610666935061040f577f2eea2f51f83910481f4b5ba28b7003a6e045d4b59f67dfff8d4c9011940500896040515f815260406020820152806106bd6040820185610836565b0390a161040f565b836323a2408560e01b5f5260045260245ffd5b9161061d565b6358df354b60e11b5f5260045260245ffd5b6064908260405193849263cddea73760e01b845233600485015260406024850152816044850152848401375f828201840152601f01601f19168101030190fd5b50610739610892565b610744368484610800565b8151815190818114938461075c575b50505050610374565b6020929394508201209201201485808080610753565b3461007b575f36600319011261007b575f546001600160a01b03168152602090f35b9181601f8401121561007b5782359167ffffffffffffffff831161007b576020838186019501011161007b57565b90601f8019910116810190811067ffffffffffffffff8211176102ab57604052565b67ffffffffffffffff81116102ab57601f01601f191660200190565b92919261080c826107e4565b9161081a60405193846107c2565b82948184528183011161007b578281602093845f960137010152565b805180835260209291819084018484015e5f828201840152601f01601f1916010190565b90600182811c92168015610888575b602083101461087457565b634e487b7160e01b5f52602260045260245ffd5b91607f1691610869565b604051905f82600154916108a58361085a565b808352926001811690811561091757506001146108cb575b6108c9925003836107c2565b565b5060015f90815290915f516020610b035f395f51905f525b8183106108fb5750509060206108c9928201016108bd565b60209193508060019154838589010152019101909184926108e3565b602092506108c994915060ff191682840152151560051b8201016108bd565b67ffffffffffffffff81116102ab5760051b60200190565b6040805190919061095f83826107c2565b6001815291601f1901825f5b82811061097757505050565b80606060208093850101520161096b565b8051156109955760200190565b634e487b7160e01b5f52603260045260245ffd5b80518210156109955760209160051b010190565b91908110156109955760051b81013590605e198136030182121561007b570190565b356bffffffffffffffffffffffff198116929190601482106109ff575050565b6bffffffffffffffffffffffff1960149290920360031b82901b16169150565b3d15610a49573d90610a30826107e4565b91610a3e60405193846107c2565b82523d5f602084013e565b606090565b9183916001600160f81b03191680610a6f5750610a6b9250610adc565b5090565b909150600160f81b8103610aca575015610a87575090565b7f2eea2f51f83910481f4b5ba28b7003a6e045d4b59f67dfff8d4c901194050089906040519081526040602082015280610ac46040820185610836565b0390a190565b6323a2408560e01b5f5260045260245ffd5b15610ae45790565b805115610af357602081519101fd5b63d6bda27560e01b5f5260045ffdfeb10e2d527612073b26eecdfd717e6a320cf44b4afac2b0732d9fcbe2b7fa0cf6a2646970667358221220eb3454c7a71d88e1d8d059995fffb433a46e6d3208e5487a42712cd6a9124a3a64736f6c634300081e00330cff5007efcafd99cdeb44bb49f05a247d4147bd8c51588a483d7598b782bd05","linkReferences":{}},"methodIdentifiers":{"controller()":"f77c4791","gateway()":"116191b6","receiveMessage(bytes32,bytes,bytes)":"2432ef26","reconfigure(address,bytes)":"362ad6c0"},"id":23}