{"abi":[{"type":"constructor","inputs":[{"name":"gateway_","type":"address","internalType":"address"}],"stateMutability":"nonpayable"},{"type":"function","name":"receiveMessage","inputs":[{"name":"receiveId","type":"bytes32","internalType":"bytes32"},{"name":"sender","type":"bytes","internalType":"bytes"},{"name":"payload","type":"bytes","internalType":"bytes"}],"outputs":[{"name":"","type":"bytes4","internalType":"bytes4"}],"stateMutability":"payable"},{"type":"event","name":"MessageReceived","inputs":[{"name":"gateway","type":"address","indexed":false,"internalType":"address"},{"name":"receiveId","type":"bytes32","indexed":false,"internalType":"bytes32"},{"name":"sender","type":"bytes","indexed":false,"internalType":"bytes"},{"name":"payload","type":"bytes","indexed":false,"internalType":"bytes"},{"name":"value","type":"uint256","indexed":false,"internalType":"uint256"}],"anonymous":false},{"type":"error","name":"ERC7786RecipientUnauthorizedGateway","inputs":[{"name":"gateway","type":"address","internalType":"address"},{"name":"sender","type":"bytes","internalType":"bytes"}]}],"bytecode":{"object":"0x60a034606557601f61024838819003918201601f19168301916001600160401b03831184841017606957808492602094604052833981010312606557516001600160a01b03811681036065576080526040516101ca908161007e82396080518160750152f35b5f80fd5b634e487b7160e01b5f52604160045260245ffdfe6080806040526004361015610012575f80fd5b5f3560e01c632432ef2614610025575f80fd5b60603660031901126101425760243567ffffffffffffffff811161014257610051903690600401610146565b60443567ffffffffffffffff811161014257610071903690600401610146565b90937f00000000000000000000000000000000000000000000000000000000000000006001600160a01b0316330361011857507f6481284e17cb5e280cd79edd7b43c0bea1c693984dee5b1d9199579884fa0d4e936100fd916100ef604051958695338752600435602088015260a0604088015260a0870191610174565b918483036060860152610174565b3460808301520390a1604051631219779360e11b8152602090f35b63cddea73760e01b8152336004820152604060248201528061013e604482018587610174565b0390fd5b5f80fd5b9181601f840112156101425782359167ffffffffffffffff8311610142576020838186019501011161014257565b908060209392818452848401375f828201840152601f01601f191601019056fea264697066735822122030acc2c0c7f95825b70fa5c1bfde1c759abadd4344bf557bdd6176564e72d61d64736f6c634300081e0033","linkReferences":{}},"methodIdentifiers":{"receiveMessage(bytes32,bytes,bytes)":"2432ef26"},"id":141}