{"abi":[{"type":"constructor","inputs":[{"name":"initialAdmin","type":"address","internalType":"address"}],"stateMutability":"nonpayable"},{"type":"function","name":"ADMIN_ROLE","inputs":[],"outputs":[{"name":"","type":"uint64","internalType":"uint64"}],"stateMutability":"view"},{"type":"function","name":"PUBLIC_ROLE","inputs":[],"outputs":[{"name":"","type":"uint64","internalType":"uint64"}],"stateMutability":"view"},{"type":"function","name":"canCall","inputs":[{"name":"caller","type":"address","internalType":"address"},{"name":"target","type":"address","internalType":"address"},{"name":"selector","type":"bytes4","internalType":"bytes4"}],"outputs":[{"name":"immediate","type":"bool","internalType":"bool"},{"name":"delay","type":"uint32","internalType":"uint32"}],"stateMutability":"view"},{"type":"function","name":"cancel","inputs":[{"name":"caller","type":"address","internalType":"address"},{"name":"target","type":"address","internalType":"address"},{"name":"data","type":"bytes","internalType":"bytes"}],"outputs":[{"name":"","type":"uint32","internalType":"uint32"}],"stateMutability":"nonpayable"},{"type":"function","name":"consumeScheduledOp","inputs":[{"name":"caller","type":"address","internalType":"address"},{"name":"data","type":"bytes","internalType":"bytes"}],"outputs":[],"stateMutability":"nonpayable"},{"type":"function","name":"execute","inputs":[{"name":"target","type":"address","internalType":"address"},{"name":"data","type":"bytes","internalType":"bytes"}],"outputs":[{"name":"","type":"uint32","internalType":"uint32"}],"stateMutability":"payable"},{"type":"function","name":"expiration","inputs":[],"outputs":[{"name":"","type":"uint32","internalType":"uint32"}],"stateMutability":"view"},{"type":"function","name":"getAccess","inputs":[{"name":"roleId","type":"uint64","internalType":"uint64"},{"name":"account","type":"address","internalType":"address"}],"outputs":[{"name":"since","type":"uint48","internalType":"uint48"},{"name":"currentDelay","type":"uint32","internalType":"uint32"},{"name":"pendingDelay","type":"uint32","internalType":"uint32"},{"name":"effect","type":"uint48","internalType":"uint48"}],"stateMutability":"view"},{"type":"function","name":"getNonce","inputs":[{"name":"id","type":"bytes32","internalType":"bytes32"}],"outputs":[{"name":"","type":"uint32","internalType":"uint32"}],"stateMutability":"view"},{"type":"function","name":"getRoleAdmin","inputs":[{"name":"roleId","type":"uint64","internalType":"uint64"}],"outputs":[{"name":"","type":"uint64","internalType":"uint64"}],"stateMutability":"view"},{"type":"function","name":"getRoleGrantDelay","inputs":[{"name":"roleId","type":"uint64","internalType":"uint64"}],"outputs":[{"name":"","type":"uint32","internalType":"uint32"}],"stateMutability":"view"},{"type":"function","name":"getRoleGuardian","inputs":[{"name":"roleId","type":"uint64","internalType":"uint64"}],"outputs":[{"name":"","type":"uint64","internalType":"uint64"}],"stateMutability":"view"},{"type":"function","name":"getSchedule","inputs":[{"name":"id","type":"bytes32","internalType":"bytes32"}],"outputs":[{"name":"","type":"uint48","internalType":"uint48"}],"stateMutability":"view"},{"type":"function","name":"getTargetAdminDelay","inputs":[{"name":"target","type":"address","internalType":"address"}],"outputs":[{"name":"","type":"uint32","internalType":"uint32"}],"stateMutability":"view"},{"type":"function","name":"getTargetFunctionRole","inputs":[{"name":"target","type":"address","internalType":"address"},{"name":"selector","type":"bytes4","internalType":"bytes4"}],"outputs":[{"name":"","type":"uint64","internalType":"uint64"}],"stateMutability":"view"},{"type":"function","name":"grantRole","inputs":[{"name":"roleId","type":"uint64","internalType":"uint64"},{"name":"account","type":"address","internalType":"address"},{"name":"executionDelay","type":"uint32","internalType":"uint32"}],"outputs":[],"stateMutability":"nonpayable"},{"type":"function","name":"hasRole","inputs":[{"name":"roleId","type":"uint64","internalType":"uint64"},{"name":"account","type":"address","internalType":"address"}],"outputs":[{"name":"isMember","type":"bool","internalType":"bool"},{"name":"executionDelay","type":"uint32","internalType":"uint32"}],"stateMutability":"view"},{"type":"function","name":"hashOperation","inputs":[{"name":"caller","type":"address","internalType":"address"},{"name":"target","type":"address","internalType":"address"},{"name":"data","type":"bytes","internalType":"bytes"}],"outputs":[{"name":"","type":"bytes32","internalType":"bytes32"}],"stateMutability":"view"},{"type":"function","name":"isTargetClosed","inputs":[{"name":"target","type":"address","internalType":"address"}],"outputs":[{"name":"","type":"bool","internalType":"bool"}],"stateMutability":"view"},{"type":"function","name":"labelRole","inputs":[{"name":"roleId","type":"uint64","internalType":"uint64"},{"name":"label","type":"string","internalType":"string"}],"outputs":[],"stateMutability":"nonpayable"},{"type":"function","name":"minSetback","inputs":[],"outputs":[{"name":"","type":"uint32","internalType":"uint32"}],"stateMutability":"view"},{"type":"function","name":"multicall","inputs":[{"name":"data","type":"bytes[]","internalType":"bytes[]"}],"outputs":[{"name":"results","type":"bytes[]","internalType":"bytes[]"}],"stateMutability":"nonpayable"},{"type":"function","name":"renounceRole","inputs":[{"name":"roleId","type":"uint64","internalType":"uint64"},{"name":"callerConfirmation","type":"address","internalType":"address"}],"outputs":[],"stateMutability":"nonpayable"},{"type":"function","name":"revokeRole","inputs":[{"name":"roleId","type":"uint64","internalType":"uint64"},{"name":"account","type":"address","internalType":"address"}],"outputs":[],"stateMutability":"nonpayable"},{"type":"function","name":"schedule","inputs":[{"name":"target","type":"address","internalType":"address"},{"name":"data","type":"bytes","internalType":"bytes"},{"name":"when","type":"uint48","internalType":"uint48"}],"outputs":[{"name":"operationId","type":"bytes32","internalType":"bytes32"},{"name":"nonce","type":"uint32","internalType":"uint32"}],"stateMutability":"nonpayable"},{"type":"function","name":"setGrantDelay","inputs":[{"name":"roleId","type":"uint64","internalType":"uint64"},{"name":"newDelay","type":"uint32","internalType":"uint32"}],"outputs":[],"stateMutability":"nonpayable"},{"type":"function","name":"setRoleAdmin","inputs":[{"name":"roleId","type":"uint64","internalType":"uint64"},{"name":"admin","type":"uint64","internalType":"uint64"}],"outputs":[],"stateMutability":"nonpayable"},{"type":"function","name":"setRoleGuardian","inputs":[{"name":"roleId","type":"uint64","internalType":"uint64"},{"name":"guardian","type":"uint64","internalType":"uint64"}],"outputs":[],"stateMutability":"nonpayable"},{"type":"function","name":"setTargetAdminDelay","inputs":[{"name":"target","type":"address","internalType":"address"},{"name":"newDelay","type":"uint32","internalType":"uint32"}],"outputs":[],"stateMutability":"nonpayable"},{"type":"function","name":"setTargetClosed","inputs":[{"name":"target","type":"address","internalType":"address"},{"name":"closed","type":"bool","internalType":"bool"}],"outputs":[],"stateMutability":"nonpayable"},{"type":"function","name":"setTargetFunctionRole","inputs":[{"name":"target","type":"address","internalType":"address"},{"name":"selectors","type":"bytes4[]","internalType":"bytes4[]"},{"name":"roleId","type":"uint64","internalType":"uint64"}],"outputs":[],"stateMutability":"nonpayable"},{"type":"function","name":"updateAuthority","inputs":[{"name":"target","type":"address","internalType":"address"},{"name":"newAuthority","type":"address","internalType":"address"}],"outputs":[],"stateMutability":"nonpayable"},{"type":"event","name":"OperationCanceled","inputs":[{"name":"operationId","type":"bytes32","indexed":true,"internalType":"bytes32"},{"name":"nonce","type":"uint32","indexed":true,"internalType":"uint32"}],"anonymous":false},{"type":"event","name":"OperationExecuted","inputs":[{"name":"operationId","type":"bytes32","indexed":true,"internalType":"bytes32"},{"name":"nonce","type":"uint32","indexed":true,"internalType":"uint32"}],"anonymous":false},{"type":"event","name":"OperationScheduled","inputs":[{"name":"operationId","type":"bytes32","indexed":true,"internalType":"bytes32"},{"name":"nonce","type":"uint32","indexed":true,"internalType":"uint32"},{"name":"schedule","type":"uint48","indexed":false,"internalType":"uint48"},{"name":"caller","type":"address","indexed":false,"internalType":"address"},{"name":"target","type":"address","indexed":false,"internalType":"address"},{"name":"data","type":"bytes","indexed":false,"internalType":"bytes"}],"anonymous":false},{"type":"event","name":"RoleAdminChanged","inputs":[{"name":"roleId","type":"uint64","indexed":true,"internalType":"uint64"},{"name":"admin","type":"uint64","indexed":true,"internalType":"uint64"}],"anonymous":false},{"type":"event","name":"RoleGrantDelayChanged","inputs":[{"name":"roleId","type":"uint64","indexed":true,"internalType":"uint64"},{"name":"delay","type":"uint32","indexed":false,"internalType":"uint32"},{"name":"since","type":"uint48","indexed":false,"internalType":"uint48"}],"anonymous":false},{"type":"event","name":"RoleGranted","inputs":[{"name":"roleId","type":"uint64","indexed":true,"internalType":"uint64"},{"name":"account","type":"address","indexed":true,"internalType":"address"},{"name":"delay","type":"uint32","indexed":false,"internalType":"uint32"},{"name":"since","type":"uint48","indexed":false,"internalType":"uint48"},{"name":"newMember","type":"bool","indexed":false,"internalType":"bool"}],"anonymous":false},{"type":"event","name":"RoleGuardianChanged","inputs":[{"name":"roleId","type":"uint64","indexed":true,"internalType":"uint64"},{"name":"guardian","type":"uint64","indexed":true,"internalType":"uint64"}],"anonymous":false},{"type":"event","name":"RoleLabel","inputs":[{"name":"roleId","type":"uint64","indexed":true,"internalType":"uint64"},{"name":"label","type":"string","indexed":false,"internalType":"string"}],"anonymous":false},{"type":"event","name":"RoleRevoked","inputs":[{"name":"roleId","type":"uint64","indexed":true,"internalType":"uint64"},{"name":"account","type":"address","indexed":true,"internalType":"address"}],"anonymous":false},{"type":"event","name":"TargetAdminDelayUpdated","inputs":[{"name":"target","type":"address","indexed":true,"internalType":"address"},{"name":"delay","type":"uint32","indexed":false,"internalType":"uint32"},{"name":"since","type":"uint48","indexed":false,"internalType":"uint48"}],"anonymous":false},{"type":"event","name":"TargetClosed","inputs":[{"name":"target","type":"address","indexed":true,"internalType":"address"},{"name":"closed","type":"bool","indexed":false,"internalType":"bool"}],"anonymous":false},{"type":"event","name":"TargetFunctionRoleUpdated","inputs":[{"name":"target","type":"address","indexed":true,"internalType":"address"},{"name":"selector","type":"bytes4","indexed":false,"internalType":"bytes4"},{"name":"roleId","type":"uint64","indexed":true,"internalType":"uint64"}],"anonymous":false},{"type":"error","name":"AccessManagerAlreadyScheduled","inputs":[{"name":"operationId","type":"bytes32","internalType":"bytes32"}]},{"type":"error","name":"AccessManagerBadConfirmation","inputs":[]},{"type":"error","name":"AccessManagerExpired","inputs":[{"name":"operationId","type":"bytes32","internalType":"bytes32"}]},{"type":"error","name":"AccessManagerInvalidInitialAdmin","inputs":[{"name":"initialAdmin","type":"address","internalType":"address"}]},{"type":"error","name":"AccessManagerLockedFunction","inputs":[{"name":"selector","type":"bytes4","internalType":"bytes4"}]},{"type":"error","name":"AccessManagerLockedRole","inputs":[{"name":"roleId","type":"uint64","internalType":"uint64"}]},{"type":"error","name":"AccessManagerNotReady","inputs":[{"name":"operationId","type":"bytes32","internalType":"bytes32"}]},{"type":"error","name":"AccessManagerNotScheduled","inputs":[{"name":"operationId","type":"bytes32","internalType":"bytes32"}]},{"type":"error","name":"AccessManagerUnauthorizedAccount","inputs":[{"name":"msgsender","type":"address","internalType":"address"},{"name":"roleId","type":"uint64","internalType":"uint64"}]},{"type":"error","name":"AccessManagerUnauthorizedCall","inputs":[{"name":"caller","type":"address","internalType":"address"},{"name":"target","type":"address","internalType":"address"},{"name":"selector","type":"bytes4","internalType":"bytes4"}]},{"type":"error","name":"AccessManagerUnauthorizedCancel","inputs":[{"name":"msgsender","type":"address","internalType":"address"},{"name":"caller","type":"address","internalType":"address"},{"name":"target","type":"address","internalType":"address"},{"name":"selector","type":"bytes4","internalType":"bytes4"}]},{"type":"error","name":"AccessManagerUnauthorizedConsume","inputs":[{"name":"target","type":"address","internalType":"address"}]},{"type":"error","name":"AddressEmptyCode","inputs":[{"name":"target","type":"address","internalType":"address"}]},{"type":"error","name":"FailedCall","inputs":[]},{"type":"error","name":"InsufficientBalance","inputs":[{"name":"balance","type":"uint256","internalType":"uint256"},{"name":"needed","type":"uint256","internalType":"uint256"}]},{"type":"error","name":"SafeCastOverflowedUintDowncast","inputs":[{"name":"bits","type":"uint8","internalType":"uint8"},{"name":"value","type":"uint256","internalType":"uint256"}]}],"bytecode":{"object":"0x6080604052346102b757604051601f6126ab38819003918201601f19168301916001600160401b0383118484101761015a578084926020946040528339810103126102b757516001600160a01b038116908190036102b75780156102a4575f8181525f51602061266b5f395f51905f52602052604090205465ffffffffffff161580156101825765ffffffffffff610096426102bb565b1665ffffffffffff811161016e578060405191604083019383851060018060401b0386111761015a5760409485529183525f60208085018281528783525f51602061266b5f395f51905f529091529481209351845495516001600160a01b031990961665ffffffffffff919091161760309590951b600160301b600160a01b0316949094179092555f51602061268b5f395f51905f52916060915b65ffffffffffff604051928684521660208301526040820152a360405161238090816102eb8239f35b634e487b7160e01b5f52604160045260245ffd5b634e487b7160e01b5f52601160045260245ffd5b5f8281525f51602061266b5f395f51905f526020526040902054906101a6426102bb565b63ffffffff8360301c169265ffffffffffff808260701c1692168211155f146102925750505b63ffffffff8216801561028b5763ffffffff811161016e575b65ffffffffffff63ffffffff6101fa426102bb565b921691160165ffffffffffff811161016e575f8481525f51602061266b5f395f51905f52602090815260408083208054600160301b600160a01b0319169185901b6dffffffffffff0000000000000000169690921b67ffffffff00000000169590951760301b600160301b600160a01b0316949094179093555f51602061268b5f395f51905f529160609190610131565b505f6101e5565b63ffffffff9060501c169250506101cc565b630409d6d160e11b5f525f60045260245ffd5b5f80fd5b65ffffffffffff81116102d35765ffffffffffff1690565b6306dfcc6560e41b5f52603060045260245260445ffdfe60806040526004361015610011575f80fd5b5f5f3560e01c806308d6122d146114e45780630b0a93ba1461149f57806312be87271461147c578063167bd395146113f157806318ff183c1461135f5780631cff79cd1461122057806325c471a014610f175780633078f11414610ebc57806330cae18714610e1e5780633adc277a14610def5780633ca7c02a14610dcd5780634136a33c14610d9a5780634665096d14610d7c5780634c1da1e214610d4a5780635296295214610c92578063530dd45614610c3e5780636d5115bd14610bde57806375b238fc14610bc2578063853551b814610b0857806394c7d7ee14610a42578063a166aa89146109f6578063a64d95ce146108ea578063abd9bd2a146108c5578063ac9650d814610718578063b7009613146106d3578063b7d2b162146106a0578063cc1b6c8114610682578063d1f856ee1461063d578063d22b59891461056e578063d6bb62c6146103ef578063f801a698146101cc5763fe0776f51461017a575f80fd5b346101c95760403660031901126101c957610193611641565b61019b6115fb565b90336001600160a01b038316036101ba57906101b691611d97565b5080f35b635f159e6360e01b8352600483fd5b80fd5b50346101c95760603660031901126101c9576101e66115e5565b906024356001600160401b0381116103eb5761020690369060040161166d565b919060443565ffffffffffff81168091036103e75761022784838733611b3f565b905061024363ffffffff61023a4261231b565b92168092611a6e565b901580156103cc575b610393579065ffffffffffff80921690818082119118021816906102728482873361186c565b93848452600260205265ffffffffffff6040852054168015159081610382575b5061036e57604095849361035f87947f82a2da5dee54ea8021c6545b4444620291e07ee83be6dd57edb175062715f3b494868b99526002602052600163ffffffff8a8a205460301c160163ffffffff81169989898c9b52600260205281812065ffffffffffff881665ffffffffffff198254161790558981526002602052209069ffffffff00000000000082549160301b169069ffffffff00000000000019161790558a51948594855233602086015260018060a01b03168b85015260806060850152608084019161184c565b0390a382519182526020820152f35b63813e945960e01b84526004859052602484fd5b61038c9150611d41565b155f610292565b606484876103a18887611b86565b6381c6f24b60e01b8352336004526001600160a01b039091166024526001600160e01b031916604452fd5b50811515801561024c575065ffffffffffff8116821061024c565b8280fd5b5080fd5b50346101c95761041790610402366116f0565b61040f8183949793611b86565b92868561186c565b91828452600260205265ffffffffffff604085205416155f146104485763060a299b60e41b84526004839052602484fd5b6001600160a01b0316903382036104ba575b505060209250808252600283526040822065ffffffffffff1981541690558082526002835263ffffffff604083205460301c1680917fbd9ac67a6e2f6463b80927326310338bcbb4bdb7936ce1365ea3e01067e7b9f76040519480a38152f35b6104c333611a06565b509460018060a01b03169485855284602052604085209163ffffffff60e01b169182865260205261052b336105266001600160401b036040892054166001600160401b03165f5260016020526001600160401b03600160405f20015460401c1690565b611a43565b5090159081610565575b501561045a57608492508460405192630ff89d4760e21b8452336004850152602484015260448301526064820152fd5b9050155f610535565b50346101c95760403660031901126101c9576105886115e5565b7fa56b76017453f399ec2327ba00375dbfb1fd070ff854341ad6191e6a2e2de19c6105b16116dd565b916105ba611aa0565b60018060a01b031691828452836020526105e4816001600160701b03600160408820015416612288565b9190848652856020526001600160701b036001604088200191166001600160701b03198254161790556106376040519283928390929165ffffffffffff60209163ffffffff604085019616845216910152565b0390a280f35b50346101c95760403660031901126101c95761066861065a611641565b6106626115fb565b90611a43565b60408051921515835263ffffffff91909116602083015290f35b50346101c957806003193601126101c9576020604051620697808152f35b50346101c95760403660031901126101c9576101b66106bd611641565b6106c56115fb565b906106ce611aa0565b611d97565b50346101c95760603660031901126101c9576106ed6115e5565b6106f56115fb565b604435916001600160e01b0319831683036107145761066893506118fa565b8380fd5b50346101c95760203660031901126101c9576004356001600160401b0381116103eb57610749903690600401611611565b9060206040516107598282611773565b84815281810191601f198101368437610771856118bb565b9361077f6040519586611773565b858552601f1961078e876118bb565b01875b8181106108b657505036819003601e190190875b8781101561083e578060051b8201358381121561083a578201908135916001600160401b0383116108365785018236038113610836578261081461081a928d898c6001986040519687958487013784018281018481528e519283915e010190815203601f198101835282611773565b30611d75565b610824828a6118d2565b5261082f81896118d2565b50016107a5565b8a80fd5b8980fd5b88848860405191808301818452825180915260408401918060408360051b870101940192865b8388106108715786860387f35b9091929394838080600193603f198b8203018752818a518051918291828552018484015e86838284010152601f80199101160101970193019701969093929193610864565b60608782018501528301610791565b50346101c95760206108e26108d9366116f0565b9291909161186c565b604051908152f35b50346101c95760403660031901126101c957610904611641565b6001600160401b036109146116dd565b9161091d611aa0565b16906001600160401b0382146109e2577ffeb69018ee8b8fd50ea86348f1267d07673379f72cffdeccec63853ee8ce8b48908284526001602052610974816001600160701b03600160408820015460801c16612288565b84865260016020818152604080892090920180546dffffffffffffffffffffffffffff60801b191660809590951b6dffffffffffffffffffffffffffff60801b1694909417909355805163ffffffff909416845265ffffffffffff9091169183019190915281908101610637565b63061c6a4360e21b83526004829052602483fd5b50346101c95760203660031901126101c9576020610a38610a156115e5565b6001600160a01b03165f9081526020819052604090206001015460701c60ff1690565b6040519015158152f35b50346101c957610a513661169a565b91604051638fb3603760e01b8152602081600481335afa908115610afd578591610ab6575b506001600160e01b03191663704c9fc960e01b01610aa35791610a9e916101b693339061186c565b611b9c565b630641fee960e31b845233600452602484fd5b90506020813d602011610af5575b81610ad160209383611773565b81010312610af157516001600160e01b031981168103610af1575f610a76565b8480fd5b3d9150610ac4565b6040513d87823e3d90fd5b50346101c95760403660031901126101c957610b22611641565b602435906001600160401b0382116103e757610b4a6001600160401b0392369060040161166d565b929091610b55611aa0565b169182158015610bb2575b610b9e57907f1256f5b5ecb89caec12db449738f2fbcd1ba5806cf38f35413f4e5c15bf6a4509161063760405192839260208452602084019161184c565b63061c6a4360e21b84526004839052602484fd5b506001600160401b038314610b60565b50346101c957806003193601126101c957602090604051908152f35b50346101c95760403660031901126101c957610bf86115e5565b6024359063ffffffff60e01b82168092036103e7576001600160a01b0316825260208281526040808420928452918152918190205490516001600160401b039091168152f35b50346101c95760203660031901126101c9576020610c81610c5d611641565b6001600160401b03165f5260016020526001600160401b03600160405f2001541690565b6001600160401b0360405191168152f35b50346101c95760403660031901126101c957610cac611641565b6001600160401b03610cbc611657565b91610cc5611aa0565b169081158015610d3a575b6109e2576001600160401b0390828452600160205260016040852001805467ffffffffffffffff60401b8360401b169067ffffffffffffffff60401b191617905516907f7a8059630b897b5de4c08ade69f8b90c3ead1f8596d62d10b6c4d14a0afb4ae28380a380f35b506001600160401b038214610cd0565b50346101c95760203660031901126101c9576020610d6e610d696115e5565b611825565b63ffffffff60405191168152f35b50346101c957806003193601126101c957602060405162093a808152f35b50346101c95760203660031901126101c95763ffffffff6040602092600435815260028452205460301c16604051908152f35b50346101c957806003193601126101c95760206040516001600160401b038152f35b50346101c95760203660031901126101c9576020610e0e6004356117fb565b65ffffffffffff60405191168152f35b50346101c95760403660031901126101c957610e38611641565b6001600160401b03610e48611657565b91610e51611aa0565b169081158015610eac575b6109e2576001600160401b0390828452600160205260016040852001828216831982541617905516907f1fd6dd7631312dfac2205b52913f99de03b4d7e381d5d27d3dbfe0713e6e63408380a380f35b506001600160401b038214610e5c565b50346101c95760403660031901126101c957608063ffffffff65ffffffffffff81610ef6610ee8611641565b610ef06115fb565b906117a8565b93929590918560405197168752166020860152166040840152166060820152f35b50346101c95760603660031901126101c957610f31611641565b610f396115fb565b906044359163ffffffff831680930361071457610f54611aa0565b6001600160401b03610f6583611742565b9216916001600160401b03831461120c578285526001602090815260408087206001600160a01b0385165f908152925290205465ffffffffffff16159081156110aa57610fc29063ffffffff610fba4261231b565b911690611a6e565b604051604081018181106001600160401b03821117611096577ff98448b987f1428e0e230e1f3c6e2ce15b5693eaf31827fbd0b1ec4b424ae7cf94926110776060959365ffffffffffff9360405283831681526001600160701b03602082018b81528a8d52600160205260408d2060018060a01b0389165f52602052858060405f209451161686198454161783555116600160301b600160a01b0382549160301b1690600160301b600160a01b031916179055565b60408051988952911660208801528601526001600160a01b031693a380f35b634e487b7160e01b88526041600452602488fd5b5082855260016020526040852060018060a01b0383165f526020526110de6001600160701b0360405f205460301c16611d04565b50508463ffffffff82168181115f146111c3570363ffffffff81116111af579165ffffffffffff7ff98448b987f1428e0e230e1f3c6e2ce15b5693eaf31827fbd0b1ec4b424ae7cf94926111aa67ffffffff0000000061114f63ffffffff6060985b1661114a4261231b565b611a6e565b9260201b1665ffffffffffff60401b8360401b16178917888b52600160205260408b2060018060a01b0387165f5260205260405f2090600160301b600160a01b0382549160301b1690600160301b600160a01b031916179055565b611077565b634e487b7160e01b87526011600452602487fd5b50509160609165ffffffffffff7ff98448b987f1428e0e230e1f3c6e2ce15b5693eaf31827fbd0b1ec4b424ae7cf946111aa67ffffffff0000000061114f63ffffffff8c611140565b63061c6a4360e21b85526004839052602485fd5b5061122a3661169a565b909161123882848333611b3f565b93901580611351575b611343576112518382843361186c565b63ffffffff8695161580159061132a575b611318575b506003549261129e6112798284611b86565b6001600160a01b0385165f9081526001600160e01b0319919091166020526040902090565b6003556001600160401b03811161130457604051916112c7601f8301601f191660200184611773565b8183523682820111611300579560208284938299836112ee98970137830101523491611c69565b5060035563ffffffff60405191168152f35b8680fd5b634e487b7160e01b86526041600452602486fd5b611323919450611b9c565b925f611267565b5065ffffffffffff61133b826117fb565b161515611262565b906103a16064938693611b86565b5063ffffffff841615611241565b50346113ed5760403660031901126113ed576113796115e5565b6113816115fb565b9061138a611aa0565b6001600160a01b031690813b156113ed57604051637a9e5e4b60e01b81526001600160a01b039091166004820152905f908290602490829084905af180156113e2576113d4575080f35b6113e091505f90611773565b005b6040513d5f823e3d90fd5b5f80fd5b346113ed5760403660031901126113ed5761140a6115e5565b602435908115158092036113ed5760207f90d4e7bb7e5d933792b3562e1741306f8be94837e1348dacef9b6f1df56eb13891611444611aa0565b6001600160a01b03165f818152808352604090819020600101805460ff60701b1916607087901b60ff60701b161790555193845292a2005b346113ed5760203660031901126113ed576020610d6e61149a611641565b611742565b346113ed5760203660031901126113ed576020610c816114bd611641565b6001600160401b03165f5260016020526001600160401b03600160405f20015460401c1690565b346113ed5760603660031901126113ed576114fd6115e5565b6024356001600160401b0381116113ed5761151c903690600401611611565b9190604435906001600160401b0382168092036113ed5761153e939293611aa0565b6001600160a01b03909316925f5b838110156113e0578060051b82013563ffffffff60e01b81168091036113ed57637a9e5e4b60e01b81146115d3579083867f9ea6790c7dadfd01c9f8b9762b3682607af2c7e79e05a9f9fdf5580dde9491516020600195835f525f825260405f20815f52825260405f20856001600160401b0319825416179055604051908152a30161154c565b637a3a272560e11b5f5260045260245ffd5b600435906001600160a01b03821682036113ed57565b602435906001600160a01b03821682036113ed57565b9181601f840112156113ed578235916001600160401b0383116113ed576020808501948460051b0101116113ed57565b600435906001600160401b03821682036113ed57565b602435906001600160401b03821682036113ed57565b9181601f840112156113ed578235916001600160401b0383116113ed57602083818601950101116113ed57565b9060406003198301126113ed576004356001600160a01b03811681036113ed5791602435906001600160401b0382116113ed576116d99160040161166d565b9091565b6024359063ffffffff821682036113ed57565b60606003198201126113ed576004356001600160a01b03811681036113ed57916024356001600160a01b03811681036113ed5791604435906001600160401b0382116113ed576116d99160040161166d565b6001600160401b03165f52600160205261176e6001600160701b03600160405f20015460801c16611d04565b505090565b90601f801991011681019081106001600160401b0382111761179457604052565b634e487b7160e01b5f52604160045260245ffd5b6001600160401b03165f9081526001602090815260408083206001600160a01b039094168352929052205465ffffffffffff916117f1603083901c6001600160701b0316611d04565b9490931693909291565b5f52600260205265ffffffffffff60405f20541661181881611d41565b1561182257505f90565b90565b60018060a01b03165f525f60205261176e6001600160701b03600160405f20015416611d04565b908060209392818452848401375f828201840152601f01601f1916010190565b604080516001600160a01b039283166020820190815292909316908301526060808301529290916118b59183916118a791608084019161184c565b03601f198101835282611773565b51902090565b6001600160401b0381116117945760051b60200190565b80518210156118e65760209160051b010190565b634e487b7160e01b5f52603260045260245ffd5b6001600160a01b0382165f9081526020819052604090206001015491929160701c60ff161561192c575050505f905f90565b6001600160a01b038116300361196957506003546001600160a01b039092165f9081526001600160e01b0319909116602052604090205b14905f90565b919291906001600160e01b031916637a9e5e4b60e01b81036119c357506119a163ffffffff806119998194611a06565b939096611825565b9216911690818082119118021816915f146119bc5781159190565b5f91508190565b6119f3929360018060a01b03165f525f60205260405f20905f526020526001600160401b0360405f205416611a43565b9190156119bc5763ffffffff8216159190565b90611a1865ffffffffffff925f6117a8565b505092168015159081611a2a57509190565b905065ffffffffffff611a3c4261231b565b1610159190565b6001600160401b0381811603611a5c5750506001905f90565b65ffffffffffff9291611a18916117a8565b9065ffffffffffff8091169116019065ffffffffffff8211611a8c57565b634e487b7160e01b5f52601160045260245ffd5b611aaa3633611e46565b9015611ab35750565b63ffffffff16611ae8576001600160401b03611ace36611f49565b50905063f07e038f60e01b5f52336004521660245260445ffd5b611b3c6040516020810190338252306040820152606080820152611b3481602060808201368152365f838301375f823683010152601f19601f360116010103601f198101835282611773565b519020611b9c565b50565b909291906001600160a01b0384163003611b5d576116d99350611efa565b9192906004841015611b7357505050505f905f90565b6116d993611b8091611b86565b916118fa565b906004116113ed57356001600160e01b03191690565b5f81815260026020526040902054909190603081901c63ffffffff169065ffffffffffff1680611bd9578363060a299b60e41b5f5260045260245ffd5b65ffffffffffff611be94261231b565b16811115611c045783630c65b5bd60e11b5f5260045260245ffd5b611c119093919293611d41565b611c57578190805f52600260205260405f2065ffffffffffff1981541690557f76a2a46953689d4861a5d3f6ed883ad7e6af674a21f8e162707159fc9dde614d5f80a390565b631e2975b960e21b5f5260045260245ffd5b91804710611cee57815f92916020849351920190855af18080611cdb575b15611c9657505061182261226f565b15611cbb57639996b31560e01b5f9081526001600160a01b0391909116600452602490fd5b3d15611ccc576040513d5f823e3d90fd5b63d6bda27560e01b5f5260045ffd5b503d151580611c875750813b1515611c87565b4763cf47918160e01b5f5260045260245260445ffd5b611d0d4261231b565b63ffffffff82169165ffffffffffff604082901c811692168211611d35575090915f91508190565b60201c63ffffffff1692565b65ffffffffffff62093a8091160165ffffffffffff8111611a8c5765ffffffffffff80611d6d4261231b565b169116111590565b905f8091602081519101845af48080611cdb5715611c9657505061182261226f565b6001600160401b0316906001600160401b038214611e3357815f52600160205260405f2060018060a01b0382165f5260205265ffffffffffff60405f20541615611e2d57815f52600160205260405f2060018060a01b0382165f526020525f604081205560018060a01b0316907ff229baa593af28c41b1d16b748cd7688f0c83aaf92d4be41c44005defe84c1665f80a3600190565b50505f90565b5063061c6a4360e21b5f5260045260245ffd5b9060048110611ea2576001600160a01b0382163014611ed157611e69905f6120f1565b9290911580611eb3575b611eaa57611e8091611a43565b9015611ea25763ffffffff808093169116908180821191180218169081159190565b50505f905f90565b5050505f905f90565b50305f9081526020819052604090206001015460701c60ff16611e73565b90506004116113ed57600354305f90815280356001600160e01b03191660205260409020611963565b919060048210611eaa576001600160a01b0383163014611f1e5790611e69916120f1565b611f289250611b86565b600354305f9081526001600160e01b03199092166020526040909120611963565b5f90600481106120e757806004116113ed575f356001600160e01b031916906310a6aa3760e31b821480156120d7575b80156120c7575b80156120b7575b80156120a7575b61209b5763063fc60f60e21b8214801561208b575b801561207b575b61204b5763012e238d60e51b8214801561203b575b611fea575030825281602052604082209082526020526001600160401b036040822054169181929190565b90506024116101c957806101c957506004356001600160401b03811681036113ed57612034906001600160401b03165f5260016020526001600160401b03600160405f2001541690565b6001915f90565b50635be958b160e11b8214611fbf565b9150506024116113ed576004356001600160a01b038116908190036113ed5761207390611825565b6001915f9190565b506308d6122d60e01b8214611faa565b5063167bd39560e01b8214611fa3565b5050506001905f905f90565b5063d22b598960e01b8214611f8e565b50635326cae760e11b8214611f87565b5063294b14a960e11b8214611f80565b506330cae18760e01b8214611f79565b50505f905f905f90565b600482106120e7576001600160e01b031961210c8383611b86565b16916310a6aa3760e31b8314801561225f575b801561224f575b801561223f575b801561222f575b61209b5763063fc60f60e21b8314801561221f575b801561220f575b6121e85763012e238d60e51b831480156121d8575b612192575050305f525f60205260405f20905f526020526001600160401b0360405f205416905f91905f90565b9091506024116113ed57600401356001600160401b03811681036113ed57612034906001600160401b03165f5260016020526001600160401b03600160405f2001541690565b50635be958b160e11b8314612165565b9091506024116113ed576004013560018060a01b0381168091036113ed5761207390611825565b506308d6122d60e01b8314612150565b5063167bd39560e01b8314612149565b5063d22b598960e01b8314612134565b50635326cae760e11b831461212d565b5063294b14a960e11b8314612126565b506330cae18760e01b831461211f565b604051903d82523d5f602084013e60203d830101604052565b61229963ffffffff91939293611d04565b505092168063ffffffff84168181115f14612301570363ffffffff8111611a8c576122e763ffffffff8067ffffffff00000000935b1680620697801181620697801802181661114a4261231b565b9360201b1665ffffffffffff60401b8460401b1617179190565b505067ffffffff000000006122e763ffffffff805f6122ce565b65ffffffffffff81116123335765ffffffffffff1690565b6306dfcc6560e41b5f52603060045260245260445ffdfea264697066735822122009286a5bb8399ccec2e6fba4eb79f9de2570a26f21bdf5e378730529a29966fa64736f6c634300081e0033a6eef7e35abe7026729641147f7915573c7e97b47efa546f5f6e3230263bcb49f98448b987f1428e0e230e1f3c6e2ce15b5693eaf31827fbd0b1ec4b424ae7cf","linkReferences":{}},"methodIdentifiers":{"ADMIN_ROLE()":"75b238fc","PUBLIC_ROLE()":"3ca7c02a","canCall(address,address,bytes4)":"b7009613","cancel(address,address,bytes)":"d6bb62c6","consumeScheduledOp(address,bytes)":"94c7d7ee","execute(address,bytes)":"1cff79cd","expiration()":"4665096d","getAccess(uint64,address)":"3078f114","getNonce(bytes32)":"4136a33c","getRoleAdmin(uint64)":"530dd456","getRoleGrantDelay(uint64)":"12be8727","getRoleGuardian(uint64)":"0b0a93ba","getSchedule(bytes32)":"3adc277a","getTargetAdminDelay(address)":"4c1da1e2","getTargetFunctionRole(address,bytes4)":"6d5115bd","grantRole(uint64,address,uint32)":"25c471a0","hasRole(uint64,address)":"d1f856ee","hashOperation(address,address,bytes)":"abd9bd2a","isTargetClosed(address)":"a166aa89","labelRole(uint64,string)":"853551b8","minSetback()":"cc1b6c81","multicall(bytes[])":"ac9650d8","renounceRole(uint64,address)":"fe0776f5","revokeRole(uint64,address)":"b7d2b162","schedule(address,bytes,uint48)":"f801a698","setGrantDelay(uint64,uint32)":"a64d95ce","setRoleAdmin(uint64,uint64)":"30cae187","setRoleGuardian(uint64,uint64)":"52962952","setTargetAdminDelay(address,uint32)":"d22b5989","setTargetClosed(address,bool)":"167bd395","setTargetFunctionRole(address,bytes4[],uint64)":"08d6122d","updateAuthority(address,address)":"18ff183c"},"id":10}