{"abi":[{"type":"function","name":"verify","inputs":[{"name":"key","type":"bytes","internalType":"bytes"},{"name":"hash","type":"bytes32","internalType":"bytes32"},{"name":"signature","type":"bytes","internalType":"bytes"}],"outputs":[{"name":"","type":"bytes4","internalType":"bytes4"}],"stateMutability":"view"}],"bytecode":{"object":"0x60808060405234601557611231908161001a8239f35b5f80fdfe60806040526004361015610011575f80fd5b5f3560e01c63024ad31814610024575f80fd5b3461047c57606036600319011261047c5760043567ffffffffffffffff811161047c5761005590369060040161049f565b9060443567ffffffffffffffff811161047c5761007961007f91369060040161049f565b906105b2565b909283610494575b836100c3575b5050505f146100b357602062495a6360e31b5b6040516001600160e01b03199091168152f35b60206001600160e01b03196100a0565b90919250604051926024356020850152602084526100e26040856104e9565b8160201161047c5780359160401161047c57602001359060c08336031261047c576040519260c0840184811067ffffffffffffffff8211176104805760405280358452602084019060208101358252604085019060408101358252606086019660608201358852608082013567ffffffffffffffff811161047c57820136601f8201121561047c5761017b90369060208135910161055b565b916080880192835260a08101359067ffffffffffffffff821161047c570136601f8201121561047c576101b590369060208135910161055b565b60a0880193818552602484515111998a61043a575b5089610348575b50505086610327575b86610306575b866102b9575b866101fa575b5050505050505f808061008d565b602080929394959697505f91519351604051918183925191829101835e8101838152039060025afa156102ae575f6020918151610257848060405180948280830197805191829101895e82019083820152030180845201826104e9565b604051918291518091835e8101838152039060025afa156102ae575f519351905190610286848484848961069f565b9095901561029f5750505050505b5f80808080806101ec565b6102a995506107bb565b610294565b6040513d5f823e3d90fd5b809650518051602010156102f25760400151600160fb1b808216149081156102e3575b50956101e6565b600160fc1b161590505f6102dc565b634e487b7160e01b5f52603260045260245ffd5b809650518051602010156102f25760400151600160fa1b90811614956101e0565b809650518051602010156102f25760400151600160f81b90811614956101da565b519298509061035690610b36565b90604051906103a16001602d846020808201976c1131b430b63632b733b2911d1160991b89528051918291018484015e8101601160f91b838201520301601e198101855201836104e9565b815184018481101590815f199102180281519081815f19181090825f199118180218938480821091180284189060206103da8387610591565b92806103fe6103e88661053f565b956103f660405197886104e9565b80875261053f565b8584019890601f1901368a3703920101855e51905190818114938461042b575b50505050955f80806101d1565b2091201490505f80808061041e565b90995051601474113a3cb832911d113bb2b130baba34371733b2ba1160591b6affffffffffffffffffffff19602084860101511614910182511116985f6101ca565b5f80fd5b634e487b7160e01b5f52604160045260245ffd5b604081149350610087565b9181601f8401121561047c5782359167ffffffffffffffff831161047c576020838186019501011161047c57565b6060810190811067ffffffffffffffff82111761048057604052565b90601f8019910116810190811067ffffffffffffffff82111761048057604052565b9093929384831161047c57841161047c578101920390565b359060208110610531575090565b5f199060200360031b1b1690565b67ffffffffffffffff811161048057601f01601f191660200190565b9291926105678261053f565b9161057560405193846104e9565b82948184528183011161047c578281602093845f960137010152565b9190820391821161059e57565b634e487b7160e01b5f52601160045260245ffd5b91908260c08210610697578160801161047c576105d6607f19830160808301610523565b908260a01161047c576105f0609f19840160a08301610523565b90601f19840184811161059e578284821091821561068d575b50506106845761063d61063661062a86858161063061062a828b818b61050b565b90610523565b9661050b565b9385610591565b601f19810190811161059e5710928315610664575b50505061065f5760019190565b5f9190565b61066f929350610591565b601f19810190811161059e57105f8080610652565b505050505f9190565b109050825f610609565b9250505f9190565b909192936106ad8484610c34565b1580156107aa575b156106c65750505050505f90600190565b6020945f9460a094604051948552878501526040840152606083015260808201528280526101005afa156107a8575f511561070357600190600190565b60205f60a06040517fbb5a52f42f9c9261ed4361f59422a1e30036e7c32b270c8807a419feca6050238152600584820152600160408201527fa71af64de5126a4a4e02b7922d66ce9415ce88a4c9d25514d91082c8725ac95760608201527f5d47723c8fbe580bb369fec9c2665d8e30a435b9932645482e7c9f11e872296b60808201528280526101005afa156107a8575f51156107a2575f90600190565b5f905f90565bfe5b506107b58186610c98565b156106b5565b919093926107c98286610c34565b158015610b25575b610b1c57604051936102006107e681876104e9565b5f5b818110610b075750506020926109825f9360c093604051610808816104cd565b8681528688820152866040820152895260405191610825836104cd565b8252868201526001604082015285880190815287610973604051610848816104cd565b7f6b17d1f2e12c4247f8bce6e563a440f277037d812deb33a0f4a13945d898c29681527f4fe342e2fe1a7f9b8ee7eb4a7c0f9e162bce33576b315ececbb6406837bf51f58982015260016040820152608083019081526109646109556108ae8651610d4d565b92604086019384526108c08151610d4d565b9061010087019182526108d68851865190610d8a565b96606081019788526108eb8951835190610d8a565b60a08201526108fd8651835190610d8a565b8c82015261090e8851835190610d8a565b60e08201526109208951845190610d8a565b6101208201526109338651845190610d8a565b6101408201526101606109498951855190610d8a565b91015251905190610d8a565b6101808d018181529551610d8a565b6101a08c015251835190610d8a565b6101c08a015251905190610d8a565b6101e087015260405190848252848083015284604083015260608201527fffffffff00000000ffffffffffffffffbce6faada7179e84f3b9cac2fc63254f60808201525f5160206111dc5f395f51905f5260a082015260055afa5f519015610af557805f5160206111dc5f395f51905f52809286959495099309905f905f925f945f915b60808310610a31575050505091610a2b915f5160206111dc5f395f51905f5293611126565b50061490565b86610ad3575b8160fe1c600c8260fc1c16176040610a4f8287610d3c565b510151610a6b575b5060019060021b9160021b92019190610a06565b969195909482610aaf57505050610a828583610d3c565b51519360016040610aa26020610a988a88610d3c565b5101519886610d3c565b5101519695945b90610a57565b90610ac89291610ac26001989987610d3c565b51610ea8565b969195909594610aa9565b9395610ae49195610aea9397610da9565b91610da9565b959194909493610a37565b634e487b715f5260126020526024601cfd5b602090610b12610d1e565b81890152016107e8565b50505050505f90565b50610b308482610c98565b156107d1565b90815115610c1e578151600281901b906001600160fe1b0381160361059e576002810180911161059e576003900490604051917f4142434445464748494a4b4c4d4e4f505152535455565758595a616263646566601f526106707f6768696a6b6c6d6e6f707172737475767778797a303132333435363738392b2f18603f5260208301938080510160208101908151925f83525b818110610be4575050528083528201602001604052909150565b60036004910197603f8951818160121c165183538181600c1c16516001840153818160061c16516002840153165160038201530196610bca565b9050604051610c2e6020826104e9565b5f815290565b908115159182610c81575b5081610c77575b81610c4f575090565b7f7fffffff800000007fffffffffffffffde737d56d38bcf4279dce5617e3192a89150111590565b8015159150610c46565b5f5160206111dc5f395f51905f521191505f610c3f565b600160601b63ffffffff60c01b03197f5ac635d8aa3a93e7b3ebbd55769886bc651d06b0cc53b0f63bce3c3e27d2604b8183816003600160601b0363ffffffff60c01b031981838009080908600160601b63ffffffff60c01b03198380091491600163ffffffff60601b0360601b191190600163ffffffff60601b0360601b1911161690565b60405190610d2b826104cd565b5f6040838281528260208201520152565b9060108110156102f25760051b0190565b610d6d90610d59610d1e565b508051906040602082015191015191610da9565b9060405192610d7b846104cd565b83526020830152604082015290565b610d6d91610d96610d1e565b5080516040602083015192015192610ea8565b929091600160601b63ffffffff60c01b0319838009600160601b63ffffffff60c01b0319828009600160601b63ffffffff60c01b0319908190819080096003600160601b0363ffffffff60c01b031909600160601b63ffffffff60c01b0319808880096003090894600160601b63ffffffff60c01b031990819083900960040994600160601b63ffffffff60c01b03198087600209600160601b63ffffffff60c01b0319908103908380090895600160601b63ffffffff60c01b031992839081908009600809600160601b63ffffffff60c01b03199081039290918290898203900890090892600160601b63ffffffff60c01b03199182910960020990565b9193905f945f945f94604081015190600163ffffffff60601b0360601b19828009600160601b63ffffffff60c01b031984800992600160601b63ffffffff60c01b03198086860960208501510991600160601b63ffffffff60c01b031983810381808585098a09089351600160601b63ffffffff60c01b03199086900990600160601b63ffffffff60c01b0319908282039082908b090890811585151694855f1461105b575050505050600114610f60575b50505050565b929650909450919250600160601b63ffffffff60c01b031984800990600160601b63ffffffff60c01b0319908190819080096003600160601b0363ffffffff60c01b031909600160601b63ffffffff60c01b0319808880096003090894600160601b63ffffffff60c01b031990819083900960040994600160601b63ffffffff60c01b03198087600209600160601b63ffffffff60c01b0319908103908380090895600160601b63ffffffff60c01b031992839081908009600809600160601b63ffffffff60c01b03199081039290918290898203900890090892600160601b63ffffffff60c01b031991829109600209905f808080610f5a565b96999a5096509650985098505050600163ffffffff60601b0360601b1983800991600160601b63ffffffff60c01b03199083900991600160601b63ffffffff60c01b031990840991600160601b63ffffffff60c01b03198082600209600160601b63ffffffff60c01b03199081039085810381868009080897600160601b63ffffffff60c01b031993849109600160601b63ffffffff60c01b031990810392909182908a8203900890090893600160601b63ffffffff60c01b0319928391099009905f808080610f5a565b929180156111d1575f60c060209260405190848252848083015284604083015260608201527fffffffff00000001000000000000000000000000fffffffffffffffffffffffd6080820152600163ffffffff60601b0360601b1960a082015260055afa905f519115610af557600160601b63ffffffff60c01b031982800993600160601b63ffffffff60c01b03199085900993600160601b63ffffffff60c01b031992839109900990565b505090505f905f9056feffffffff00000000ffffffffffffffffbce6faada7179e84f3b9cac2fc632551a2646970667358221220bf920cf5b7d3d196cc80d7c420985b9f769ef15c9f3861a6ebe9e47b4d3644c264736f6c634300081e0033","linkReferences":{}},"methodIdentifiers":{"verify(bytes,bytes32,bytes)":"024ad318"},"id":330}